{
	"Simple_NFT.sol": {
		"SimpleNFT": {
			"abi": [
				{
					"anonymous": false,
					"inputs": [
						{
							"indexed": true,
							"internalType": "address",
							"name": "_owner",
							"type": "address"
						},
						{
							"indexed": true,
							"internalType": "address",
							"name": "_operator",
							"type": "address"
						},
						{
							"indexed": false,
							"internalType": "bool",
							"name": "_approved",
							"type": "bool"
						}
					],
					"name": "ApprovalForAll",
					"type": "event"
				},
				{
					"anonymous": false,
					"inputs": [
						{
							"indexed": true,
							"internalType": "address",
							"name": "_from",
							"type": "address"
						},
						{
							"indexed": true,
							"internalType": "address",
							"name": "_to",
							"type": "address"
						},
						{
							"indexed": true,
							"internalType": "uint256",
							"name": "_tokenId",
							"type": "uint256"
						}
					],
					"name": "Transfer",
					"type": "event"
				},
				{
					"inputs": [
						{
							"internalType": "address",
							"name": "_owner",
							"type": "address"
						}
					],
					"name": "balanceOf",
					"outputs": [
						{
							"internalType": "uint256",
							"name": "",
							"type": "uint256"
						}
					],
					"stateMutability": "view",
					"type": "function"
				},
				{
					"inputs": [
						{
							"internalType": "address",
							"name": "_owner",
							"type": "address"
						},
						{
							"internalType": "address",
							"name": "_operator",
							"type": "address"
						}
					],
					"name": "isApprovalForAll",
					"outputs": [
						{
							"internalType": "bool",
							"name": "",
							"type": "bool"
						}
					],
					"stateMutability": "view",
					"type": "function"
				},
				{
					"inputs": [
						{
							"internalType": "uint256",
							"name": "_tokenId",
							"type": "uint256"
						}
					],
					"name": "mint",
					"outputs": [],
					"stateMutability": "nonpayable",
					"type": "function"
				},
				{
					"inputs": [
						{
							"internalType": "uint256",
							"name": "_tokenId",
							"type": "uint256"
						}
					],
					"name": "ownerOf",
					"outputs": [
						{
							"internalType": "address",
							"name": "",
							"type": "address"
						}
					],
					"stateMutability": "view",
					"type": "function"
				},
				{
					"inputs": [
						{
							"internalType": "address",
							"name": "_operator",
							"type": "address"
						},
						{
							"internalType": "bool",
							"name": "_approved",
							"type": "bool"
						}
					],
					"name": "setApprovalForAll",
					"outputs": [],
					"stateMutability": "nonpayable",
					"type": "function"
				},
				{
					"inputs": [
						{
							"internalType": "uint256",
							"name": "_tokenId",
							"type": "uint256"
						}
					],
					"name": "tokenURI",
					"outputs": [
						{
							"internalType": "string",
							"name": "",
							"type": "string"
						}
					],
					"stateMutability": "view",
					"type": "function"
				},
				{
					"inputs": [
						{
							"internalType": "address",
							"name": "_from",
							"type": "address"
						},
						{
							"internalType": "address",
							"name": "_to",
							"type": "address"
						},
						{
							"internalType": "uint256",
							"name": "_tokenId",
							"type": "uint256"
						}
					],
					"name": "transferFrom",
					"outputs": [],
					"stateMutability": "payable",
					"type": "function"
				}
			],
			"devdoc": {
				"kind": "dev",
				"methods": {},
				"version": 1
			},
			"evm": {
				"assembly": "    /* \"Simple_NFT.sol\":119:2495  contract SimpleNFT {... */\n  mstore(0x40, 0x80)\n    /* \"Simple_NFT.sol\":548:640  string baseURL = \"ipfs.io/ipfs/bafybeih6vu2jpgdjofc4ucnoemqs5jva62qhd5bf4526id734g6co4adyu/\" */\n  mload(0x40)\n  dup1\n  0x80\n  add\n  0x40\n  mstore\n  dup1\n  0x49\n  dup2\n  mstore\n  0x20\n  add\n  data_ff37e19c21681fae7ef5d86913c73be4d8fc47702f94080f82e42fd627ca6197\n  0x49\n  swap2\n  codecopy\n  0x03\n  swap1\n  dup2\n  tag_1\n  swap2\n  swap1\n  tag_2\n  jump\t// in\ntag_1:\n  pop\n    /* \"Simple_NFT.sol\":119:2495  contract SimpleNFT {... */\n  callvalue\n  dup1\n  iszero\n  tag_3\n  jumpi\n  0x00\n  dup1\n  revert\ntag_3:\n  pop\n  jump(tag_4)\n    /* \"#utility.yul\":7:106   */\ntag_5:\n    /* \"#utility.yul\":59:65   */\n  0x00\n    /* \"#utility.yul\":93:98   */\n  dup2\n    /* \"#utility.yul\":87:99   */\n  mload\n    /* \"#utility.yul\":77:99   */\n  swap1\n  pop\n    /* \"#utility.yul\":7:106   */\n  swap2\n  swap1\n  pop\n  jump\t// out\n    /* \"#utility.yul\":112:292   */\ntag_6:\n    /* \"#utility.yul\":160:237   */\n  0x4e487b7100000000000000000000000000000000000000000000000000000000\n    /* \"#utility.yul\":157:158   */\n  0x00\n    /* \"#utility.yul\":150:238   */\n  mstore\n    /* \"#utility.yul\":257:261   */\n  0x41\n    /* \"#utility.yul\":254:255   */\n  0x04\n    /* \"#utility.yul\":247:262   */\n  mstore\n    /* \"#utility.yul\":281:285   */\n  0x24\n    /* \"#utility.yul\":278:279   */\n  0x00\n    /* \"#utility.yul\":271:286   */\n  revert\n    /* \"#utility.yul\":298:478   */\ntag_7:\n    /* \"#utility.yul\":346:423   */\n  0x4e487b7100000000000000000000000000000000000000000000000000000000\n    /* \"#utility.yul\":343:344   */\n  0x00\n    /* \"#utility.yul\":336:424   */\n  mstore\n    /* \"#utility.yul\":443:447   */\n  0x22\n    /* \"#utility.yul\":440:441   */\n  0x04\n    /* \"#utility.yul\":433:448   */\n  mstore\n    /* \"#utility.yul\":467:471   */\n  0x24\n    /* \"#utility.yul\":464:465   */\n  0x00\n    /* \"#utility.yul\":457:472   */\n  revert\n    /* \"#utility.yul\":484:804   */\ntag_8:\n    /* \"#utility.yul\":528:534   */\n  0x00\n    /* \"#utility.yul\":565:566   */\n  0x02\n    /* \"#utility.yul\":559:563   */\n  dup3\n    /* \"#utility.yul\":555:567   */\n  div\n    /* \"#utility.yul\":545:567   */\n  swap1\n  pop\n    /* \"#utility.yul\":612:613   */\n  0x01\n    /* \"#utility.yul\":606:610   */\n  dup3\n    /* \"#utility.yul\":602:614   */\n  and\n    /* \"#utility.yul\":633:651   */\n  dup1\n    /* \"#utility.yul\":623:704   */\n  tag_30\n  jumpi\n    /* \"#utility.yul\":689:693   */\n  0x7f\n    /* \"#utility.yul\":681:687   */\n  dup3\n    /* \"#utility.yul\":677:694   */\n  and\n    /* \"#utility.yul\":667:694   */\n  swap2\n  pop\n    /* \"#utility.yul\":623:704   */\ntag_30:\n    /* \"#utility.yul\":751:753   */\n  0x20\n    /* \"#utility.yul\":743:749   */\n  dup3\n    /* \"#utility.yul\":740:754   */\n  lt\n    /* \"#utility.yul\":720:738   */\n  dup2\n    /* \"#utility.yul\":717:755   */\n  sub\n    /* \"#utility.yul\":714:798   */\n  tag_31\n  jumpi\n    /* \"#utility.yul\":770:788   */\n  tag_32\n  tag_7\n  jump\t// in\ntag_32:\n    /* \"#utility.yul\":714:798   */\ntag_31:\n    /* \"#utility.yul\":535:804   */\n  pop\n    /* \"#utility.yul\":484:804   */\n  swap2\n  swap1\n  pop\n  jump\t// out\n    /* \"#utility.yul\":810:951   */\ntag_9:\n    /* \"#utility.yul\":859:863   */\n  0x00\n    /* \"#utility.yul\":882:885   */\n  dup2\n    /* \"#utility.yul\":874:885   */\n  swap1\n  pop\n    /* \"#utility.yul\":905:908   */\n  dup2\n    /* \"#utility.yul\":902:903   */\n  0x00\n    /* \"#utility.yul\":895:909   */\n  mstore\n    /* \"#utility.yul\":939:943   */\n  0x20\n    /* \"#utility.yul\":936:937   */\n  0x00\n    /* \"#utility.yul\":926:944   */\n  keccak256\n    /* \"#utility.yul\":918:944   */\n  swap1\n  pop\n    /* \"#utility.yul\":810:951   */\n  swap2\n  swap1\n  pop\n  jump\t// out\n    /* \"#utility.yul\":957:1050   */\ntag_10:\n    /* \"#utility.yul\":994:1000   */\n  0x00\n    /* \"#utility.yul\":1041:1043   */\n  0x20\n    /* \"#utility.yul\":1036:1038   */\n  0x1f\n    /* \"#utility.yul\":1029:1034   */\n  dup4\n    /* \"#utility.yul\":1025:1039   */\n  add\n    /* \"#utility.yul\":1021:1044   */\n  div\n    /* \"#utility.yul\":1011:1044   */\n  swap1\n  pop\n    /* \"#utility.yul\":957:1050   */\n  swap2\n  swap1\n  pop\n  jump\t// out\n    /* \"#utility.yul\":1056:1163   */\ntag_11:\n    /* \"#utility.yul\":1100:1108   */\n  0x00\n    /* \"#utility.yul\":1150:1155   */\n  dup3\n    /* \"#utility.yul\":1144:1148   */\n  dup3\n    /* \"#utility.yul\":1140:1156   */\n  shl\n    /* \"#utility.yul\":1119:1156   */\n  swap1\n  pop\n    /* \"#utility.yul\":1056:1163   */\n  swap3\n  swap2\n  pop\n  pop\n  jump\t// out\n    /* \"#utility.yul\":1169:1562   */\ntag_12:\n    /* \"#utility.yul\":1238:1244   */\n  0x00\n    /* \"#utility.yul\":1288:1289   */\n  0x08\n    /* \"#utility.yul\":1276:1286   */\n  dup4\n    /* \"#utility.yul\":1272:1290   */\n  mul\n    /* \"#utility.yul\":1311:1408   */\n  tag_37\n    /* \"#utility.yul\":1341:1407   */\n  0xffffffffffffffffffffffffffffffffffffffffffffffffffffffffffffffff\n    /* \"#utility.yul\":1330:1339   */\n  dup3\n    /* \"#utility.yul\":1311:1408   */\n  tag_11\n  jump\t// in\ntag_37:\n    /* \"#utility.yul\":1429:1468   */\n  tag_38\n    /* \"#utility.yul\":1459:1467   */\n  dup7\n    /* \"#utility.yul\":1448:1457   */\n  dup4\n    /* \"#utility.yul\":1429:1468   */\n  tag_11\n  jump\t// in\ntag_38:\n    /* \"#utility.yul\":1417:1468   */\n  swap6\n  pop\n    /* \"#utility.yul\":1501:1505   */\n  dup1\n    /* \"#utility.yul\":1497:1506   */\n  not\n    /* \"#utility.yul\":1490:1495   */\n  dup5\n    /* \"#utility.yul\":1486:1507   */\n  and\n    /* \"#utility.yul\":1477:1507   */\n  swap4\n  pop\n    /* \"#utility.yul\":1550:1554   */\n  dup1\n    /* \"#utility.yul\":1540:1548   */\n  dup7\n    /* \"#utility.yul\":1536:1555   */\n  and\n    /* \"#utility.yul\":1529:1534   */\n  dup5\n    /* \"#utility.yul\":1526:1556   */\n  or\n    /* \"#utility.yul\":1516:1556   */\n  swap3\n  pop\n    /* \"#utility.yul\":1245:1562   */\n  pop\n  pop\n    /* \"#utility.yul\":1169:1562   */\n  swap4\n  swap3\n  pop\n  pop\n  pop\n  jump\t// out\n    /* \"#utility.yul\":1568:1645   */\ntag_13:\n    /* \"#utility.yul\":1605:1612   */\n  0x00\n    /* \"#utility.yul\":1634:1639   */\n  dup2\n    /* \"#utility.yul\":1623:1639   */\n  swap1\n  pop\n    /* \"#utility.yul\":1568:1645   */\n  swap2\n  swap1\n  pop\n  jump\t// out\n    /* \"#utility.yul\":1651:1711   */\ntag_14:\n    /* \"#utility.yul\":1679:1682   */\n  0x00\n    /* \"#utility.yul\":1700:1705   */\n  dup2\n    /* \"#utility.yul\":1693:1705   */\n  swap1\n  pop\n    /* \"#utility.yul\":1651:1711   */\n  swap2\n  swap1\n  pop\n  jump\t// out\n    /* \"#utility.yul\":1717:1859   */\ntag_15:\n    /* \"#utility.yul\":1767:1776   */\n  0x00\n    /* \"#utility.yul\":1800:1853   */\n  tag_42\n    /* \"#utility.yul\":1818:1852   */\n  tag_43\n    /* \"#utility.yul\":1827:1851   */\n  tag_44\n    /* \"#utility.yul\":1845:1850   */\n  dup5\n    /* \"#utility.yul\":1827:1851   */\n  tag_13\n  jump\t// in\ntag_44:\n    /* \"#utility.yul\":1818:1852   */\n  tag_14\n  jump\t// in\ntag_43:\n    /* \"#utility.yul\":1800:1853   */\n  tag_13\n  jump\t// in\ntag_42:\n    /* \"#utility.yul\":1787:1853   */\n  swap1\n  pop\n    /* \"#utility.yul\":1717:1859   */\n  swap2\n  swap1\n  pop\n  jump\t// out\n    /* \"#utility.yul\":1865:1940   */\ntag_16:\n    /* \"#utility.yul\":1908:1911   */\n  0x00\n    /* \"#utility.yul\":1929:1934   */\n  dup2\n    /* \"#utility.yul\":1922:1934   */\n  swap1\n  pop\n    /* \"#utility.yul\":1865:1940   */\n  swap2\n  swap1\n  pop\n  jump\t// out\n    /* \"#utility.yul\":1946:2215   */\ntag_17:\n    /* \"#utility.yul\":2056:2095   */\n  tag_47\n    /* \"#utility.yul\":2087:2094   */\n  dup4\n    /* \"#utility.yul\":2056:2095   */\n  tag_15\n  jump\t// in\ntag_47:\n    /* \"#utility.yul\":2117:2208   */\n  tag_48\n    /* \"#utility.yul\":2166:2207   */\n  tag_49\n    /* \"#utility.yul\":2190:2206   */\n  dup3\n    /* \"#utility.yul\":2166:2207   */\n  tag_16\n  jump\t// in\ntag_49:\n    /* \"#utility.yul\":2158:2164   */\n  dup5\n    /* \"#utility.yul\":2151:2155   */\n  dup5\n    /* \"#utility.yul\":2145:2156   */\n  sload\n    /* \"#utility.yul\":2117:2208   */\n  tag_12\n  jump\t// in\ntag_48:\n    /* \"#utility.yul\":2111:2115   */\n  dup3\n    /* \"#utility.yul\":2104:2209   */\n  sstore\n    /* \"#utility.yul\":2022:2215   */\n  pop\n    /* \"#utility.yul\":1946:2215   */\n  pop\n  pop\n  pop\n  jump\t// out\n    /* \"#utility.yul\":2221:2294   */\ntag_18:\n    /* \"#utility.yul\":2266:2269   */\n  0x00\n    /* \"#utility.yul\":2221:2294   */\n  swap1\n  jump\t// out\n    /* \"#utility.yul\":2300:2489   */\ntag_19:\n    /* \"#utility.yul\":2377:2409   */\n  tag_52\n  tag_18\n  jump\t// in\ntag_52:\n    /* \"#utility.yul\":2418:2483   */\n  tag_53\n    /* \"#utility.yul\":2476:2482   */\n  dup2\n    /* \"#utility.yul\":2468:2474   */\n  dup5\n    /* \"#utility.yul\":2462:2466   */\n  dup5\n    /* \"#utility.yul\":2418:2483   */\n  tag_17\n  jump\t// in\ntag_53:\n    /* \"#utility.yul\":2353:2489   */\n  pop\n    /* \"#utility.yul\":2300:2489   */\n  pop\n  pop\n  jump\t// out\n    /* \"#utility.yul\":2495:2681   */\ntag_20:\n    /* \"#utility.yul\":2555:2675   */\ntag_55:\n    /* \"#utility.yul\":2572:2575   */\n  dup2\n    /* \"#utility.yul\":2565:2570   */\n  dup2\n    /* \"#utility.yul\":2562:2576   */\n  lt\n    /* \"#utility.yul\":2555:2675   */\n  iszero\n  tag_57\n  jumpi\n    /* \"#utility.yul\":2626:2665   */\n  tag_58\n    /* \"#utility.yul\":2663:2664   */\n  0x00\n    /* \"#utility.yul\":2656:2661   */\n  dup3\n    /* \"#utility.yul\":2626:2665   */\n  tag_19\n  jump\t// in\ntag_58:\n    /* \"#utility.yul\":2599:2600   */\n  0x01\n    /* \"#utility.yul\":2592:2597   */\n  dup2\n    /* \"#utility.yul\":2588:2601   */\n  add\n    /* \"#utility.yul\":2579:2601   */\n  swap1\n  pop\n    /* \"#utility.yul\":2555:2675   */\n  jump(tag_55)\ntag_57:\n    /* \"#utility.yul\":2495:2681   */\n  pop\n  pop\n  jump\t// out\n    /* \"#utility.yul\":2687:3230   */\ntag_21:\n    /* \"#utility.yul\":2788:2790   */\n  0x1f\n    /* \"#utility.yul\":2783:2786   */\n  dup3\n    /* \"#utility.yul\":2780:2791   */\n  gt\n    /* \"#utility.yul\":2777:3223   */\n  iszero\n  tag_60\n  jumpi\n    /* \"#utility.yul\":2822:2860   */\n  tag_61\n    /* \"#utility.yul\":2854:2859   */\n  dup2\n    /* \"#utility.yul\":2822:2860   */\n  tag_9\n  jump\t// in\ntag_61:\n    /* \"#utility.yul\":2906:2935   */\n  tag_62\n    /* \"#utility.yul\":2924:2934   */\n  dup5\n    /* \"#utility.yul\":2906:2935   */\n  tag_10\n  jump\t// in\ntag_62:\n    /* \"#utility.yul\":2896:2904   */\n  dup2\n    /* \"#utility.yul\":2892:2936   */\n  add\n    /* \"#utility.yul\":3089:3091   */\n  0x20\n    /* \"#utility.yul\":3077:3087   */\n  dup6\n    /* \"#utility.yul\":3074:3092   */\n  lt\n    /* \"#utility.yul\":3071:3120   */\n  iszero\n  tag_63\n  jumpi\n    /* \"#utility.yul\":3110:3118   */\n  dup2\n    /* \"#utility.yul\":3095:3118   */\n  swap1\n  pop\n    /* \"#utility.yul\":3071:3120   */\ntag_63:\n    /* \"#utility.yul\":3133:3213   */\n  tag_64\n    /* \"#utility.yul\":3189:3211   */\n  tag_65\n    /* \"#utility.yul\":3207:3210   */\n  dup6\n    /* \"#utility.yul\":3189:3211   */\n  tag_10\n  jump\t// in\ntag_65:\n    /* \"#utility.yul\":3179:3187   */\n  dup4\n    /* \"#utility.yul\":3175:3212   */\n  add\n    /* \"#utility.yul\":3162:3173   */\n  dup3\n    /* \"#utility.yul\":3133:3213   */\n  tag_20\n  jump\t// in\ntag_64:\n    /* \"#utility.yul\":2792:3223   */\n  pop\n  pop\n    /* \"#utility.yul\":2777:3223   */\ntag_60:\n    /* \"#utility.yul\":2687:3230   */\n  pop\n  pop\n  pop\n  jump\t// out\n    /* \"#utility.yul\":3236:3353   */\ntag_22:\n    /* \"#utility.yul\":3290:3298   */\n  0x00\n    /* \"#utility.yul\":3340:3345   */\n  dup3\n    /* \"#utility.yul\":3334:3338   */\n  dup3\n    /* \"#utility.yul\":3330:3346   */\n  shr\n    /* \"#utility.yul\":3309:3346   */\n  swap1\n  pop\n    /* \"#utility.yul\":3236:3353   */\n  swap3\n  swap2\n  pop\n  pop\n  jump\t// out\n    /* \"#utility.yul\":3359:3528   */\ntag_23:\n    /* \"#utility.yul\":3403:3409   */\n  0x00\n    /* \"#utility.yul\":3436:3487   */\n  tag_68\n    /* \"#utility.yul\":3484:3485   */\n  0x00\n    /* \"#utility.yul\":3480:3486   */\n  not\n    /* \"#utility.yul\":3472:3477   */\n  dup5\n    /* \"#utility.yul\":3469:3470   */\n  0x08\n    /* \"#utility.yul\":3465:3478   */\n  mul\n    /* \"#utility.yul\":3436:3487   */\n  tag_22\n  jump\t// in\ntag_68:\n    /* \"#utility.yul\":3432:3488   */\n  not\n    /* \"#utility.yul\":3517:3521   */\n  dup1\n    /* \"#utility.yul\":3511:3515   */\n  dup4\n    /* \"#utility.yul\":3507:3522   */\n  and\n    /* \"#utility.yul\":3497:3522   */\n  swap2\n  pop\n    /* \"#utility.yul\":3410:3528   */\n  pop\n    /* \"#utility.yul\":3359:3528   */\n  swap3\n  swap2\n  pop\n  pop\n  jump\t// out\n    /* \"#utility.yul\":3533:3828   */\ntag_24:\n    /* \"#utility.yul\":3609:3613   */\n  0x00\n    /* \"#utility.yul\":3755:3784   */\n  tag_70\n    /* \"#utility.yul\":3780:3783   */\n  dup4\n    /* \"#utility.yul\":3774:3778   */\n  dup4\n    /* \"#utility.yul\":3755:3784   */\n  tag_23\n  jump\t// in\ntag_70:\n    /* \"#utility.yul\":3747:3784   */\n  swap2\n  pop\n    /* \"#utility.yul\":3817:3820   */\n  dup3\n    /* \"#utility.yul\":3814:3815   */\n  0x02\n    /* \"#utility.yul\":3810:3821   */\n  mul\n    /* \"#utility.yul\":3804:3808   */\n  dup3\n    /* \"#utility.yul\":3801:3822   */\n  or\n    /* \"#utility.yul\":3793:3822   */\n  swap1\n  pop\n    /* \"#utility.yul\":3533:3828   */\n  swap3\n  swap2\n  pop\n  pop\n  jump\t// out\n    /* \"#utility.yul\":3833:5228   */\ntag_2:\n    /* \"#utility.yul\":3950:3987   */\n  tag_72\n    /* \"#utility.yul\":3983:3986   */\n  dup3\n    /* \"#utility.yul\":3950:3987   */\n  tag_5\n  jump\t// in\ntag_72:\n    /* \"#utility.yul\":4052:4070   */\n  0xffffffffffffffff\n    /* \"#utility.yul\":4044:4050   */\n  dup2\n    /* \"#utility.yul\":4041:4071   */\n  gt\n    /* \"#utility.yul\":4038:4094   */\n  iszero\n  tag_73\n  jumpi\n    /* \"#utility.yul\":4074:4092   */\n  tag_74\n  tag_6\n  jump\t// in\ntag_74:\n    /* \"#utility.yul\":4038:4094   */\ntag_73:\n    /* \"#utility.yul\":4118:4156   */\n  tag_75\n    /* \"#utility.yul\":4150:4154   */\n  dup3\n    /* \"#utility.yul\":4144:4155   */\n  sload\n    /* \"#utility.yul\":4118:4156   */\n  tag_8\n  jump\t// in\ntag_75:\n    /* \"#utility.yul\":4203:4270   */\n  tag_76\n    /* \"#utility.yul\":4263:4269   */\n  dup3\n    /* \"#utility.yul\":4255:4261   */\n  dup3\n    /* \"#utility.yul\":4249:4253   */\n  dup6\n    /* \"#utility.yul\":4203:4270   */\n  tag_21\n  jump\t// in\ntag_76:\n    /* \"#utility.yul\":4297:4298   */\n  0x00\n    /* \"#utility.yul\":4321:4325   */\n  0x20\n    /* \"#utility.yul\":4308:4325   */\n  swap1\n  pop\n    /* \"#utility.yul\":4353:4355   */\n  0x1f\n    /* \"#utility.yul\":4345:4351   */\n  dup4\n    /* \"#utility.yul\":4342:4356   */\n  gt\n    /* \"#utility.yul\":4370:4371   */\n  0x01\n    /* \"#utility.yul\":4365:4983   */\n  dup2\n  eq\n  tag_78\n  jumpi\n    /* \"#utility.yul\":5027:5028   */\n  0x00\n    /* \"#utility.yul\":5044:5050   */\n  dup5\n    /* \"#utility.yul\":5041:5118   */\n  iszero\n  tag_79\n  jumpi\n    /* \"#utility.yul\":5093:5102   */\n  dup3\n    /* \"#utility.yul\":5088:5091   */\n  dup8\n    /* \"#utility.yul\":5084:5103   */\n  add\n    /* \"#utility.yul\":5078:5104   */\n  mload\n    /* \"#utility.yul\":5069:5104   */\n  swap1\n  pop\n    /* \"#utility.yul\":5041:5118   */\ntag_79:\n    /* \"#utility.yul\":5144:5211   */\n  tag_80\n    /* \"#utility.yul\":5204:5210   */\n  dup6\n    /* \"#utility.yul\":5197:5202   */\n  dup3\n    /* \"#utility.yul\":5144:5211   */\n  tag_24\n  jump\t// in\ntag_80:\n    /* \"#utility.yul\":5138:5142   */\n  dup7\n    /* \"#utility.yul\":5131:5212   */\n  sstore\n    /* \"#utility.yul\":5000:5222   */\n  pop\n    /* \"#utility.yul\":4335:5222   */\n  jump(tag_77)\n    /* \"#utility.yul\":4365:4983   */\ntag_78:\n    /* \"#utility.yul\":4417:4421   */\n  0x1f\n    /* \"#utility.yul\":4413:4422   */\n  not\n    /* \"#utility.yul\":4405:4411   */\n  dup5\n    /* \"#utility.yul\":4401:4423   */\n  and\n    /* \"#utility.yul\":4451:4488   */\n  tag_81\n    /* \"#utility.yul\":4483:4487   */\n  dup7\n    /* \"#utility.yul\":4451:4488   */\n  tag_9\n  jump\t// in\ntag_81:\n    /* \"#utility.yul\":4510:4511   */\n  0x00\n    /* \"#utility.yul\":4524:4732   */\ntag_82:\n    /* \"#utility.yul\":4538:4545   */\n  dup3\n    /* \"#utility.yul\":4535:4536   */\n  dup2\n    /* \"#utility.yul\":4532:4546   */\n  lt\n    /* \"#utility.yul\":4524:4732   */\n  iszero\n  tag_84\n  jumpi\n    /* \"#utility.yul\":4617:4626   */\n  dup5\n    /* \"#utility.yul\":4612:4615   */\n  dup10\n    /* \"#utility.yul\":4608:4627   */\n  add\n    /* \"#utility.yul\":4602:4628   */\n  mload\n    /* \"#utility.yul\":4594:4600   */\n  dup3\n    /* \"#utility.yul\":4587:4629   */\n  sstore\n    /* \"#utility.yul\":4668:4669   */\n  0x01\n    /* \"#utility.yul\":4660:4666   */\n  dup3\n    /* \"#utility.yul\":4656:4670   */\n  add\n    /* \"#utility.yul\":4646:4670   */\n  swap2\n  pop\n    /* \"#utility.yul\":4715:4717   */\n  0x20\n    /* \"#utility.yul\":4704:4713   */\n  dup6\n    /* \"#utility.yul\":4700:4718   */\n  add\n    /* \"#utility.yul\":4687:4718   */\n  swap5\n  pop\n    /* \"#utility.yul\":4561:4565   */\n  0x20\n    /* \"#utility.yul\":4558:4559   */\n  dup2\n    /* \"#utility.yul\":4554:4566   */\n  add\n    /* \"#utility.yul\":4549:4566   */\n  swap1\n  pop\n    /* \"#utility.yul\":4524:4732   */\n  jump(tag_82)\ntag_84:\n    /* \"#utility.yul\":4760:4766   */\n  dup7\n    /* \"#utility.yul\":4751:4758   */\n  dup4\n    /* \"#utility.yul\":4748:4767   */\n  lt\n    /* \"#utility.yul\":4745:4924   */\n  iszero\n  tag_85\n  jumpi\n    /* \"#utility.yul\":4818:4827   */\n  dup5\n    /* \"#utility.yul\":4813:4816   */\n  dup10\n    /* \"#utility.yul\":4809:4828   */\n  add\n    /* \"#utility.yul\":4803:4829   */\n  mload\n    /* \"#utility.yul\":4861:4909   */\n  tag_86\n    /* \"#utility.yul\":4903:4907   */\n  0x1f\n    /* \"#utility.yul\":4895:4901   */\n  dup10\n    /* \"#utility.yul\":4891:4908   */\n  and\n    /* \"#utility.yul\":4880:4889   */\n  dup3\n    /* \"#utility.yul\":4861:4909   */\n  tag_23\n  jump\t// in\ntag_86:\n    /* \"#utility.yul\":4853:4859   */\n  dup4\n    /* \"#utility.yul\":4846:4910   */\n  sstore\n    /* \"#utility.yul\":4768:4924   */\n  pop\n    /* \"#utility.yul\":4745:4924   */\ntag_85:\n    /* \"#utility.yul\":4970:4971   */\n  0x01\n    /* \"#utility.yul\":4966:4967   */\n  0x02\n    /* \"#utility.yul\":4958:4964   */\n  dup9\n    /* \"#utility.yul\":4954:4968   */\n  mul\n    /* \"#utility.yul\":4950:4972   */\n  add\n    /* \"#utility.yul\":4944:4948   */\n  dup9\n    /* \"#utility.yul\":4937:4973   */\n  sstore\n    /* \"#utility.yul\":4372:4983   */\n  pop\n  pop\n  pop\n    /* \"#utility.yul\":4335:5222   */\ntag_77:\n  pop\n    /* \"#utility.yul\":3925:5228   */\n  pop\n  pop\n  pop\n    /* \"#utility.yul\":3833:5228   */\n  pop\n  pop\n  jump\t// out\n    /* \"Simple_NFT.sol\":119:2495  contract SimpleNFT {... */\ntag_4:\n  dataSize(sub_0)\n  dup1\n  dataOffset(sub_0)\n  0x00\n  codecopy\n  0x00\n  return\nstop\ndata_ff37e19c21681fae7ef5d86913c73be4d8fc47702f94080f82e42fd627ca6197 697066732e696f2f697066732f6261667962656968367675326a7067646a6f66633475636e6f656d7173356a766136327168643562663435323669643733346736636f34616479752f\n\nsub_0: assembly {\n        /* \"Simple_NFT.sol\":119:2495  contract SimpleNFT {... */\n      mstore(0x40, 0x80)\n      jumpi(tag_1, lt(calldatasize, 0x04))\n      shr(0xe0, calldataload(0x00))\n      dup1\n      0xa0712d68\n      gt\n      tag_9\n      jumpi\n      dup1\n      0xa0712d68\n      eq\n      tag_5\n      jumpi\n      dup1\n      0xa22cb465\n      eq\n      tag_6\n      jumpi\n      dup1\n      0xc87b56dd\n      eq\n      tag_7\n      jumpi\n      dup1\n      0xebd1d359\n      eq\n      tag_8\n      jumpi\n      jump(tag_1)\n    tag_9:\n      dup1\n      0x23b872dd\n      eq\n      tag_2\n      jumpi\n      dup1\n      0x6352211e\n      eq\n      tag_3\n      jumpi\n      dup1\n      0x70a08231\n      eq\n      tag_4\n      jumpi\n    tag_1:\n      0x00\n      dup1\n      revert\n        /* \"Simple_NFT.sol\":1156:1702  function transferFrom(address _from, address _to, uint256 _tokenId ) external payable{... */\n    tag_2:\n      tag_10\n      0x04\n      dup1\n      calldatasize\n      sub\n      dup2\n      add\n      swap1\n      tag_11\n      swap2\n      swap1\n      tag_12\n      jump\t// in\n    tag_11:\n      tag_13\n      jump\t// in\n    tag_10:\n      stop\n        /* \"Simple_NFT.sol\":970:1148  function ownerOf(uint256 _tokenId) external view returns (address) {... */\n    tag_3:\n      callvalue\n      dup1\n      iszero\n      tag_14\n      jumpi\n      0x00\n      dup1\n      revert\n    tag_14:\n      pop\n      tag_15\n      0x04\n      dup1\n      calldatasize\n      sub\n      dup2\n      add\n      swap1\n      tag_16\n      swap2\n      swap1\n      tag_17\n      jump\t// in\n    tag_16:\n      tag_18\n      jump\t// in\n    tag_15:\n      mload(0x40)\n      tag_19\n      swap2\n      swap1\n      tag_20\n      jump\t// in\n    tag_19:\n      mload(0x40)\n      dup1\n      swap2\n      sub\n      swap1\n      return\n        /* \"Simple_NFT.sol\":2320:2486  function balanceOf(address _owner) external view returns (uint256) {... */\n    tag_4:\n      callvalue\n      dup1\n      iszero\n      tag_21\n      jumpi\n      0x00\n      dup1\n      revert\n    tag_21:\n      pop\n      tag_22\n      0x04\n      dup1\n      calldatasize\n      sub\n      dup2\n      add\n      swap1\n      tag_23\n      swap2\n      swap1\n      tag_24\n      jump\t// in\n    tag_23:\n      tag_25\n      jump\t// in\n    tag_22:\n      mload(0x40)\n      tag_26\n      swap2\n      swap1\n      tag_27\n      jump\t// in\n    tag_26:\n      mload(0x40)\n      dup1\n      swap2\n      sub\n      swap1\n      return\n        /* \"Simple_NFT.sol\":649:958  function mint(uint256 _tokenId) external {... */\n    tag_5:\n      callvalue\n      dup1\n      iszero\n      tag_28\n      jumpi\n      0x00\n      dup1\n      revert\n    tag_28:\n      pop\n      tag_29\n      0x04\n      dup1\n      calldatasize\n      sub\n      dup2\n      add\n      swap1\n      tag_30\n      swap2\n      swap1\n      tag_17\n      jump\t// in\n    tag_30:\n      tag_31\n      jump\t// in\n    tag_29:\n      stop\n        /* \"Simple_NFT.sol\":1957:2158  function setApprovalForAll(address _operator, bool _approved) external  {... */\n    tag_6:\n      callvalue\n      dup1\n      iszero\n      tag_32\n      jumpi\n      0x00\n      dup1\n      revert\n    tag_32:\n      pop\n      tag_33\n      0x04\n      dup1\n      calldatasize\n      sub\n      dup2\n      add\n      swap1\n      tag_34\n      swap2\n      swap1\n      tag_35\n      jump\t// in\n    tag_34:\n      tag_36\n      jump\t// in\n    tag_33:\n      stop\n        /* \"Simple_NFT.sol\":1710:1943  function tokenURI(uint256 _tokenId) external view returns (string memory) {... */\n    tag_7:\n      callvalue\n      dup1\n      iszero\n      tag_37\n      jumpi\n      0x00\n      dup1\n      revert\n    tag_37:\n      pop\n      tag_38\n      0x04\n      dup1\n      calldatasize\n      sub\n      dup2\n      add\n      swap1\n      tag_39\n      swap2\n      swap1\n      tag_17\n      jump\t// in\n    tag_39:\n      tag_40\n      jump\t// in\n    tag_38:\n      mload(0x40)\n      tag_41\n      swap2\n      swap1\n      tag_42\n      jump\t// in\n    tag_41:\n      mload(0x40)\n      dup1\n      swap2\n      sub\n      swap1\n      return\n        /* \"Simple_NFT.sol\":2167:2312  function isApprovalForAll(address _owner, address _operator) external view returns (bool) {... */\n    tag_8:\n      callvalue\n      dup1\n      iszero\n      tag_43\n      jumpi\n      0x00\n      dup1\n      revert\n    tag_43:\n      pop\n      tag_44\n      0x04\n      dup1\n      calldatasize\n      sub\n      dup2\n      add\n      swap1\n      tag_45\n      swap2\n      swap1\n      tag_46\n      jump\t// in\n    tag_45:\n      tag_47\n      jump\t// in\n    tag_44:\n      mload(0x40)\n      tag_48\n      swap2\n      swap1\n      tag_49\n      jump\t// in\n    tag_48:\n      mload(0x40)\n      dup1\n      swap2\n      sub\n      swap1\n      return\n        /* \"Simple_NFT.sol\":1156:1702  function transferFrom(address _from, address _to, uint256 _tokenId ) external payable{... */\n    tag_13:\n        /* \"Simple_NFT.sol\":1307:1308  0 */\n      0x00\n        /* \"Simple_NFT.sol\":1278:1309  _owners[_tokenId] != address(0) */\n      0xffffffffffffffffffffffffffffffffffffffff\n      and\n        /* \"Simple_NFT.sol\":1278:1285  _owners */\n      0x00\n        /* \"Simple_NFT.sol\":1278:1295  _owners[_tokenId] */\n      dup1\n        /* \"Simple_NFT.sol\":1286:1294  _tokenId */\n      dup4\n        /* \"Simple_NFT.sol\":1278:1295  _owners[_tokenId] */\n      dup2\n      mstore\n      0x20\n      add\n      swap1\n      dup2\n      mstore\n      0x20\n      add\n      0x00\n      keccak256\n      0x00\n      swap1\n      sload\n      swap1\n      0x0100\n      exp\n      swap1\n      div\n      0xffffffffffffffffffffffffffffffffffffffff\n      and\n        /* \"Simple_NFT.sol\":1278:1309  _owners[_tokenId] != address(0) */\n      0xffffffffffffffffffffffffffffffffffffffff\n      and\n      sub\n        /* \"Simple_NFT.sol\":1270:1335  require(_owners[_tokenId] != address(0), \"token does not exists\") */\n      tag_51\n      jumpi\n      mload(0x40)\n      0x08c379a000000000000000000000000000000000000000000000000000000000\n      dup2\n      mstore\n      0x04\n      add\n      tag_52\n      swap1\n      tag_53\n      jump\t// in\n    tag_52:\n      mload(0x40)\n      dup1\n      swap2\n      sub\n      swap1\n      revert\n    tag_51:\n        /* \"Simple_NFT.sol\":1375:1380  _from */\n      dup3\n        /* \"Simple_NFT.sol\":1354:1380  _owners[_tokenId] == _from */\n      0xffffffffffffffffffffffffffffffffffffffff\n      and\n        /* \"Simple_NFT.sol\":1354:1361  _owners */\n      0x00\n        /* \"Simple_NFT.sol\":1354:1371  _owners[_tokenId] */\n      dup1\n        /* \"Simple_NFT.sol\":1362:1370  _tokenId */\n      dup4\n        /* \"Simple_NFT.sol\":1354:1371  _owners[_tokenId] */\n      dup2\n      mstore\n      0x20\n      add\n      swap1\n      dup2\n      mstore\n      0x20\n      add\n      0x00\n      keccak256\n      0x00\n      swap1\n      sload\n      swap1\n      0x0100\n      exp\n      swap1\n      div\n      0xffffffffffffffffffffffffffffffffffffffff\n      and\n        /* \"Simple_NFT.sol\":1354:1380  _owners[_tokenId] == _from */\n      0xffffffffffffffffffffffffffffffffffffffff\n      and\n      eq\n        /* \"Simple_NFT.sol\":1346:1406  require(_owners[_tokenId] == _from, \"cannot transfer from \") */\n      tag_54\n      jumpi\n      mload(0x40)\n      0x08c379a000000000000000000000000000000000000000000000000000000000\n      dup2\n      mstore\n      0x04\n      add\n      tag_55\n      swap1\n      tag_56\n      jump\t// in\n    tag_55:\n      mload(0x40)\n      dup1\n      swap2\n      sub\n      swap1\n      revert\n    tag_54:\n        /* \"Simple_NFT.sol\":1438:1443  _from */\n      dup3\n        /* \"Simple_NFT.sol\":1425:1443  msg.sender== _from */\n      0xffffffffffffffffffffffffffffffffffffffff\n      and\n        /* \"Simple_NFT.sol\":1425:1435  msg.sender */\n      caller\n        /* \"Simple_NFT.sol\":1425:1443  msg.sender== _from */\n      0xffffffffffffffffffffffffffffffffffffffff\n      and\n      eq\n        /* \"Simple_NFT.sol\":1425:1476  msg.sender== _from || _operators[_from][msg.sender] */\n      dup1\n      tag_57\n      jumpi\n      pop\n        /* \"Simple_NFT.sol\":1447:1457  _operators */\n      0x02\n        /* \"Simple_NFT.sol\":1447:1464  _operators[_from] */\n      0x00\n        /* \"Simple_NFT.sol\":1458:1463  _from */\n      dup5\n        /* \"Simple_NFT.sol\":1447:1464  _operators[_from] */\n      0xffffffffffffffffffffffffffffffffffffffff\n      and\n      0xffffffffffffffffffffffffffffffffffffffff\n      and\n      dup2\n      mstore\n      0x20\n      add\n      swap1\n      dup2\n      mstore\n      0x20\n      add\n      0x00\n      keccak256\n        /* \"Simple_NFT.sol\":1447:1476  _operators[_from][msg.sender] */\n      0x00\n        /* \"Simple_NFT.sol\":1465:1475  msg.sender */\n      caller\n        /* \"Simple_NFT.sol\":1447:1476  _operators[_from][msg.sender] */\n      0xffffffffffffffffffffffffffffffffffffffff\n      and\n      0xffffffffffffffffffffffffffffffffffffffff\n      and\n      dup2\n      mstore\n      0x20\n      add\n      swap1\n      dup2\n      mstore\n      0x20\n      add\n      0x00\n      keccak256\n      0x00\n      swap1\n      sload\n      swap1\n      0x0100\n      exp\n      swap1\n      div\n      0xff\n      and\n        /* \"Simple_NFT.sol\":1425:1476  msg.sender== _from || _operators[_from][msg.sender] */\n    tag_57:\n        /* \"Simple_NFT.sol\":1417:1501  require(msg.sender== _from || _operators[_from][msg.sender], \"required to be owner\") */\n      tag_58\n      jumpi\n      mload(0x40)\n      0x08c379a000000000000000000000000000000000000000000000000000000000\n      dup2\n      mstore\n      0x04\n      add\n      tag_59\n      swap1\n      tag_60\n      jump\t// in\n    tag_59:\n      mload(0x40)\n      dup1\n      swap2\n      sub\n      swap1\n      revert\n    tag_58:\n        /* \"Simple_NFT.sol\":1537:1545  _tokenId */\n      dup1\n        /* \"Simple_NFT.sol\":1532:1535  _to */\n      dup3\n        /* \"Simple_NFT.sol\":1517:1546  Transfer(_from,_to, _tokenId) */\n      0xffffffffffffffffffffffffffffffffffffffff\n      and\n        /* \"Simple_NFT.sol\":1526:1531  _from */\n      dup5\n        /* \"Simple_NFT.sol\":1517:1546  Transfer(_from,_to, _tokenId) */\n      0xffffffffffffffffffffffffffffffffffffffff\n      and\n      0xddf252ad1be2c89b69c2b068fc378daa952ba7f163c4a11628f55a4df523b3ef\n      mload(0x40)\n      mload(0x40)\n      dup1\n      swap2\n      sub\n      swap1\n      log4\n        /* \"Simple_NFT.sol\":1589:1594  false */\n      0x00\n        /* \"Simple_NFT.sol\":1557:1567  _operators */\n      0x02\n        /* \"Simple_NFT.sol\":1557:1574  _operators[_from] */\n      0x00\n        /* \"Simple_NFT.sol\":1568:1573  _from */\n      dup6\n        /* \"Simple_NFT.sol\":1557:1574  _operators[_from] */\n      0xffffffffffffffffffffffffffffffffffffffff\n      and\n      0xffffffffffffffffffffffffffffffffffffffff\n      and\n      dup2\n      mstore\n      0x20\n      add\n      swap1\n      dup2\n      mstore\n      0x20\n      add\n      0x00\n      keccak256\n        /* \"Simple_NFT.sol\":1557:1586  _operators[_from][msg.sender] */\n      0x00\n        /* \"Simple_NFT.sol\":1575:1585  msg.sender */\n      caller\n        /* \"Simple_NFT.sol\":1557:1586  _operators[_from][msg.sender] */\n      0xffffffffffffffffffffffffffffffffffffffff\n      and\n      0xffffffffffffffffffffffffffffffffffffffff\n      and\n      dup2\n      mstore\n      0x20\n      add\n      swap1\n      dup2\n      mstore\n      0x20\n      add\n      0x00\n      keccak256\n      0x00\n        /* \"Simple_NFT.sol\":1557:1594  _operators[_from][msg.sender] = false */\n      0x0100\n      exp\n      dup2\n      sload\n      dup2\n      0xff\n      mul\n      not\n      and\n      swap1\n      dup4\n      iszero\n      iszero\n      mul\n      or\n      swap1\n      sstore\n      pop\n        /* \"Simple_NFT.sol\":1625:1628  _to */\n      dup2\n        /* \"Simple_NFT.sol\":1605:1612  _owners */\n      0x00\n        /* \"Simple_NFT.sol\":1605:1622  _owners[_tokenId] */\n      dup1\n        /* \"Simple_NFT.sol\":1613:1621  _tokenId */\n      dup4\n        /* \"Simple_NFT.sol\":1605:1622  _owners[_tokenId] */\n      dup2\n      mstore\n      0x20\n      add\n      swap1\n      dup2\n      mstore\n      0x20\n      add\n      0x00\n      keccak256\n      0x00\n        /* \"Simple_NFT.sol\":1605:1628  _owners[_tokenId] = _to */\n      0x0100\n      exp\n      dup2\n      sload\n      dup2\n      0xffffffffffffffffffffffffffffffffffffffff\n      mul\n      not\n      and\n      swap1\n      dup4\n      0xffffffffffffffffffffffffffffffffffffffff\n      and\n      mul\n      or\n      swap1\n      sstore\n      pop\n        /* \"Simple_NFT.sol\":1660:1661  1 */\n      0x01\n        /* \"Simple_NFT.sol\":1641:1650  _balances */\n      dup1\n        /* \"Simple_NFT.sol\":1641:1657  _balances[_from] */\n      0x00\n        /* \"Simple_NFT.sol\":1651:1656  _from */\n      dup6\n        /* \"Simple_NFT.sol\":1641:1657  _balances[_from] */\n      0xffffffffffffffffffffffffffffffffffffffff\n      and\n      0xffffffffffffffffffffffffffffffffffffffff\n      and\n      dup2\n      mstore\n      0x20\n      add\n      swap1\n      dup2\n      mstore\n      0x20\n      add\n      0x00\n      keccak256\n      0x00\n        /* \"Simple_NFT.sol\":1641:1661  _balances[_from] +=1 */\n      dup3\n      dup3\n      sload\n      tag_61\n      swap2\n      swap1\n      tag_62\n      jump\t// in\n    tag_61:\n      swap3\n      pop\n      pop\n      dup2\n      swap1\n      sstore\n      pop\n        /* \"Simple_NFT.sol\":1689:1690  1 */\n      0x01\n        /* \"Simple_NFT.sol\":1672:1681  _balances */\n      dup1\n        /* \"Simple_NFT.sol\":1672:1686  _balances[_to] */\n      0x00\n        /* \"Simple_NFT.sol\":1682:1685  _to */\n      dup5\n        /* \"Simple_NFT.sol\":1672:1686  _balances[_to] */\n      0xffffffffffffffffffffffffffffffffffffffff\n      and\n      0xffffffffffffffffffffffffffffffffffffffff\n      and\n      dup2\n      mstore\n      0x20\n      add\n      swap1\n      dup2\n      mstore\n      0x20\n      add\n      0x00\n      keccak256\n      0x00\n        /* \"Simple_NFT.sol\":1672:1690  _balances[_to] +=1 */\n      dup3\n      dup3\n      sload\n      tag_63\n      swap2\n      swap1\n      tag_62\n      jump\t// in\n    tag_63:\n      swap3\n      pop\n      pop\n      dup2\n      swap1\n      sstore\n      pop\n        /* \"Simple_NFT.sol\":1156:1702  function transferFrom(address _from, address _to, uint256 _tokenId ) external payable{... */\n      pop\n      pop\n      pop\n      jump\t// out\n        /* \"Simple_NFT.sol\":970:1148  function ownerOf(uint256 _tokenId) external view returns (address) {... */\n    tag_18:\n        /* \"Simple_NFT.sol\":1028:1035  address */\n      0x00\n        /* \"Simple_NFT.sol\":1085:1086  0 */\n      dup1\n        /* \"Simple_NFT.sol\":1056:1087  _owners [_tokenId] !=address(0) */\n      0xffffffffffffffffffffffffffffffffffffffff\n      and\n        /* \"Simple_NFT.sol\":1056:1063  _owners */\n      0x00\n        /* \"Simple_NFT.sol\":1056:1074  _owners [_tokenId] */\n      dup1\n        /* \"Simple_NFT.sol\":1065:1073  _tokenId */\n      dup5\n        /* \"Simple_NFT.sol\":1056:1074  _owners [_tokenId] */\n      dup2\n      mstore\n      0x20\n      add\n      swap1\n      dup2\n      mstore\n      0x20\n      add\n      0x00\n      keccak256\n      0x00\n      swap1\n      sload\n      swap1\n      0x0100\n      exp\n      swap1\n      div\n      0xffffffffffffffffffffffffffffffffffffffff\n      and\n        /* \"Simple_NFT.sol\":1056:1087  _owners [_tokenId] !=address(0) */\n      0xffffffffffffffffffffffffffffffffffffffff\n      and\n      sub\n        /* \"Simple_NFT.sol\":1048:1105  require(_owners [_tokenId] !=address(0), \"no such token\") */\n      tag_65\n      jumpi\n      mload(0x40)\n      0x08c379a000000000000000000000000000000000000000000000000000000000\n      dup2\n      mstore\n      0x04\n      add\n      tag_66\n      swap1\n      tag_67\n      jump\t// in\n    tag_66:\n      mload(0x40)\n      dup1\n      swap2\n      sub\n      swap1\n      revert\n    tag_65:\n        /* \"Simple_NFT.sol\":1123:1130  _owners */\n      0x00\n        /* \"Simple_NFT.sol\":1123:1140  _owners[_tokenId] */\n      dup1\n        /* \"Simple_NFT.sol\":1131:1139  _tokenId */\n      dup4\n        /* \"Simple_NFT.sol\":1123:1140  _owners[_tokenId] */\n      dup2\n      mstore\n      0x20\n      add\n      swap1\n      dup2\n      mstore\n      0x20\n      add\n      0x00\n      keccak256\n      0x00\n      swap1\n      sload\n      swap1\n      0x0100\n      exp\n      swap1\n      div\n      0xffffffffffffffffffffffffffffffffffffffff\n      and\n        /* \"Simple_NFT.sol\":1116:1140  return _owners[_tokenId] */\n      swap1\n      pop\n        /* \"Simple_NFT.sol\":970:1148  function ownerOf(uint256 _tokenId) external view returns (address) {... */\n      swap2\n      swap1\n      pop\n      jump\t// out\n        /* \"Simple_NFT.sol\":2320:2486  function balanceOf(address _owner) external view returns (uint256) {... */\n    tag_25:\n        /* \"Simple_NFT.sol\":2378:2385  uint256 */\n      0x00\n        /* \"Simple_NFT.sol\":2424:2425  0 */\n      dup1\n        /* \"Simple_NFT.sol\":2406:2426  _owner != address(0) */\n      0xffffffffffffffffffffffffffffffffffffffff\n      and\n        /* \"Simple_NFT.sol\":2406:2412  _owner */\n      dup3\n        /* \"Simple_NFT.sol\":2406:2426  _owner != address(0) */\n      0xffffffffffffffffffffffffffffffffffffffff\n      and\n      sub\n        /* \"Simple_NFT.sol\":2398:2443  require(_owner != address(0), \"zero address\") */\n      tag_69\n      jumpi\n      mload(0x40)\n      0x08c379a000000000000000000000000000000000000000000000000000000000\n      dup2\n      mstore\n      0x04\n      add\n      tag_70\n      swap1\n      tag_71\n      jump\t// in\n    tag_70:\n      mload(0x40)\n      dup1\n      swap2\n      sub\n      swap1\n      revert\n    tag_69:\n        /* \"Simple_NFT.sol\":2461:2470  _balances */\n      0x01\n        /* \"Simple_NFT.sol\":2461:2478  _balances[_owner] */\n      0x00\n        /* \"Simple_NFT.sol\":2471:2477  _owner */\n      dup4\n        /* \"Simple_NFT.sol\":2461:2478  _balances[_owner] */\n      0xffffffffffffffffffffffffffffffffffffffff\n      and\n      0xffffffffffffffffffffffffffffffffffffffff\n      and\n      dup2\n      mstore\n      0x20\n      add\n      swap1\n      dup2\n      mstore\n      0x20\n      add\n      0x00\n      keccak256\n      sload\n        /* \"Simple_NFT.sol\":2454:2478  return _balances[_owner] */\n      swap1\n      pop\n        /* \"Simple_NFT.sol\":2320:2486  function balanceOf(address _owner) external view returns (uint256) {... */\n      swap2\n      swap1\n      pop\n      jump\t// out\n        /* \"Simple_NFT.sol\":649:958  function mint(uint256 _tokenId) external {... */\n    tag_31:\n        /* \"Simple_NFT.sol\":737:738  0 */\n      0x00\n        /* \"Simple_NFT.sol\":708:739  _owners [_tokenId] !=address(0) */\n      0xffffffffffffffffffffffffffffffffffffffff\n      and\n        /* \"Simple_NFT.sol\":708:715  _owners */\n      0x00\n        /* \"Simple_NFT.sol\":708:726  _owners [_tokenId] */\n      dup1\n        /* \"Simple_NFT.sol\":717:725  _tokenId */\n      dup4\n        /* \"Simple_NFT.sol\":708:726  _owners [_tokenId] */\n      dup2\n      mstore\n      0x20\n      add\n      swap1\n      dup2\n      mstore\n      0x20\n      add\n      0x00\n      keccak256\n      0x00\n      swap1\n      sload\n      swap1\n      0x0100\n      exp\n      swap1\n      div\n      0xffffffffffffffffffffffffffffffffffffffff\n      and\n        /* \"Simple_NFT.sol\":708:739  _owners [_tokenId] !=address(0) */\n      0xffffffffffffffffffffffffffffffffffffffff\n      and\n      sub\n        /* \"Simple_NFT.sol\":700:758  require(_owners [_tokenId] !=address(0), \"already minted\") */\n      tag_73\n      jumpi\n      mload(0x40)\n      0x08c379a000000000000000000000000000000000000000000000000000000000\n      dup2\n      mstore\n      0x04\n      add\n      tag_74\n      swap1\n      tag_75\n      jump\t// in\n    tag_74:\n      mload(0x40)\n      dup1\n      swap2\n      sub\n      swap1\n      revert\n    tag_73:\n        /* \"Simple_NFT.sol\":787:790  100 */\n      0x64\n        /* \"Simple_NFT.sol\":776:784  _tokenId */\n      dup2\n        /* \"Simple_NFT.sol\":776:790  _tokenId < 100 */\n      lt\n        /* \"Simple_NFT.sol\":768:813  require(_tokenId < 100, \"_tokenId too large\") */\n      tag_76\n      jumpi\n      mload(0x40)\n      0x08c379a000000000000000000000000000000000000000000000000000000000\n      dup2\n      mstore\n      0x04\n      add\n      tag_77\n      swap1\n      tag_78\n      jump\t// in\n    tag_77:\n      mload(0x40)\n      dup1\n      swap2\n      sub\n      swap1\n      revert\n    tag_76:\n        /* \"Simple_NFT.sol\":861:869  _tokenId */\n      dup1\n        /* \"Simple_NFT.sol\":849:859  msg.sender */\n      caller\n        /* \"Simple_NFT.sol\":828:870  Transfer(address(0), msg.sender, _tokenId) */\n      0xffffffffffffffffffffffffffffffffffffffff\n      and\n        /* \"Simple_NFT.sol\":845:846  0 */\n      0x00\n        /* \"Simple_NFT.sol\":828:870  Transfer(address(0), msg.sender, _tokenId) */\n      0xffffffffffffffffffffffffffffffffffffffff\n      and\n      0xddf252ad1be2c89b69c2b068fc378daa952ba7f163c4a11628f55a4df523b3ef\n      mload(0x40)\n      mload(0x40)\n      dup1\n      swap2\n      sub\n      swap1\n      log4\n        /* \"Simple_NFT.sol\":900:910  msg.sender */\n      caller\n        /* \"Simple_NFT.sol\":880:887  _owners */\n      0x00\n        /* \"Simple_NFT.sol\":880:897  _owners[_tokenId] */\n      dup1\n        /* \"Simple_NFT.sol\":888:896  _tokenId */\n      dup4\n        /* \"Simple_NFT.sol\":880:897  _owners[_tokenId] */\n      dup2\n      mstore\n      0x20\n      add\n      swap1\n      dup2\n      mstore\n      0x20\n      add\n      0x00\n      keccak256\n      0x00\n        /* \"Simple_NFT.sol\":880:910  _owners[_tokenId] = msg.sender */\n      0x0100\n      exp\n      dup2\n      sload\n      dup2\n      0xffffffffffffffffffffffffffffffffffffffff\n      mul\n      not\n      and\n      swap1\n      dup4\n      0xffffffffffffffffffffffffffffffffffffffff\n      and\n      mul\n      or\n      swap1\n      sstore\n      pop\n        /* \"Simple_NFT.sol\":947:948  1 */\n      0x01\n        /* \"Simple_NFT.sol\":922:931  _balances */\n      dup1\n        /* \"Simple_NFT.sol\":922:943  _balances[msg.sender] */\n      0x00\n        /* \"Simple_NFT.sol\":932:942  msg.sender */\n      caller\n        /* \"Simple_NFT.sol\":922:943  _balances[msg.sender] */\n      0xffffffffffffffffffffffffffffffffffffffff\n      and\n      0xffffffffffffffffffffffffffffffffffffffff\n      and\n      dup2\n      mstore\n      0x20\n      add\n      swap1\n      dup2\n      mstore\n      0x20\n      add\n      0x00\n      keccak256\n      0x00\n        /* \"Simple_NFT.sol\":922:948  _balances[msg.sender] += 1 */\n      dup3\n      dup3\n      sload\n      tag_79\n      swap2\n      swap1\n      tag_62\n      jump\t// in\n    tag_79:\n      swap3\n      pop\n      pop\n      dup2\n      swap1\n      sstore\n      pop\n        /* \"Simple_NFT.sol\":649:958  function mint(uint256 _tokenId) external {... */\n      pop\n      jump\t// out\n        /* \"Simple_NFT.sol\":1957:2158  function setApprovalForAll(address _operator, bool _approved) external  {... */\n    tag_36:\n        /* \"Simple_NFT.sol\":2077:2086  _approved */\n      dup1\n        /* \"Simple_NFT.sol\":2040:2050  _operators */\n      0x02\n        /* \"Simple_NFT.sol\":2040:2062  _operators[msg.sender] */\n      0x00\n        /* \"Simple_NFT.sol\":2051:2061  msg.sender */\n      caller\n        /* \"Simple_NFT.sol\":2040:2062  _operators[msg.sender] */\n      0xffffffffffffffffffffffffffffffffffffffff\n      and\n      0xffffffffffffffffffffffffffffffffffffffff\n      and\n      dup2\n      mstore\n      0x20\n      add\n      swap1\n      dup2\n      mstore\n      0x20\n      add\n      0x00\n      keccak256\n        /* \"Simple_NFT.sol\":2040:2074  _operators[msg.sender] [_operator] */\n      0x00\n        /* \"Simple_NFT.sol\":2064:2073  _operator */\n      dup5\n        /* \"Simple_NFT.sol\":2040:2074  _operators[msg.sender] [_operator] */\n      0xffffffffffffffffffffffffffffffffffffffff\n      and\n      0xffffffffffffffffffffffffffffffffffffffff\n      and\n      dup2\n      mstore\n      0x20\n      add\n      swap1\n      dup2\n      mstore\n      0x20\n      add\n      0x00\n      keccak256\n      0x00\n        /* \"Simple_NFT.sol\":2040:2086  _operators[msg.sender] [_operator] = _approved */\n      0x0100\n      exp\n      dup2\n      sload\n      dup2\n      0xff\n      mul\n      not\n      and\n      swap1\n      dup4\n      iszero\n      iszero\n      mul\n      or\n      swap1\n      sstore\n      pop\n        /* \"Simple_NFT.sol\":2129:2138  _operator */\n      dup2\n        /* \"Simple_NFT.sol\":2102:2150  ApprovalForAll(msg.sender, _operator, _approved) */\n      0xffffffffffffffffffffffffffffffffffffffff\n      and\n        /* \"Simple_NFT.sol\":2117:2127  msg.sender */\n      caller\n        /* \"Simple_NFT.sol\":2102:2150  ApprovalForAll(msg.sender, _operator, _approved) */\n      0xffffffffffffffffffffffffffffffffffffffff\n      and\n      0x17307eab39ab6107e8899845ad3d59bd9653f200f220920489ca2b5937696c31\n        /* \"Simple_NFT.sol\":2140:2149  _approved */\n      dup4\n        /* \"Simple_NFT.sol\":2102:2150  ApprovalForAll(msg.sender, _operator, _approved) */\n      mload(0x40)\n      tag_81\n      swap2\n      swap1\n      tag_49\n      jump\t// in\n    tag_81:\n      mload(0x40)\n      dup1\n      swap2\n      sub\n      swap1\n      log3\n        /* \"Simple_NFT.sol\":1957:2158  function setApprovalForAll(address _operator, bool _approved) external  {... */\n      pop\n      pop\n      jump\t// out\n        /* \"Simple_NFT.sol\":1710:1943  function tokenURI(uint256 _tokenId) external view returns (string memory) {... */\n    tag_40:\n        /* \"Simple_NFT.sol\":1769:1782  string memory */\n      0x60\n        /* \"Simple_NFT.sol\":1831:1832  0 */\n      0x00\n        /* \"Simple_NFT.sol\":1803:1833  _owners[_tokenId] !=address(0) */\n      0xffffffffffffffffffffffffffffffffffffffff\n      and\n        /* \"Simple_NFT.sol\":1803:1810  _owners */\n      0x00\n        /* \"Simple_NFT.sol\":1803:1820  _owners[_tokenId] */\n      dup1\n        /* \"Simple_NFT.sol\":1811:1819  _tokenId */\n      dup5\n        /* \"Simple_NFT.sol\":1803:1820  _owners[_tokenId] */\n      dup2\n      mstore\n      0x20\n      add\n      swap1\n      dup2\n      mstore\n      0x20\n      add\n      0x00\n      keccak256\n      0x00\n      swap1\n      sload\n      swap1\n      0x0100\n      exp\n      swap1\n      div\n      0xffffffffffffffffffffffffffffffffffffffff\n      and\n        /* \"Simple_NFT.sol\":1803:1833  _owners[_tokenId] !=address(0) */\n      0xffffffffffffffffffffffffffffffffffffffff\n      and\n      sub\n        /* \"Simple_NFT.sol\":1795:1852  require(_owners[_tokenId] !=address(0), \"Does not exist\") */\n      tag_83\n      jumpi\n      mload(0x40)\n      0x08c379a000000000000000000000000000000000000000000000000000000000\n      dup2\n      mstore\n      0x04\n      add\n      tag_84\n      swap1\n      tag_85\n      jump\t// in\n    tag_84:\n      mload(0x40)\n      dup1\n      swap2\n      sub\n      swap1\n      revert\n    tag_83:\n        /* \"Simple_NFT.sol\":1897:1904  baseURL */\n      0x03\n        /* \"Simple_NFT.sol\":1906:1925  _tokenId.toString() */\n      tag_86\n        /* \"Simple_NFT.sol\":1906:1914  _tokenId */\n      dup4\n        /* \"Simple_NFT.sol\":1906:1923  _tokenId.toString */\n      tag_87\n        /* \"Simple_NFT.sol\":1906:1925  _tokenId.toString() */\n      jump\t// in\n    tag_86:\n        /* \"Simple_NFT.sol\":1880:1934  abi.encodePacked(baseURL, _tokenId.toString(), \".png\") */\n      add(0x20, mload(0x40))\n      tag_88\n      swap3\n      swap2\n      swap1\n      tag_89\n      jump\t// in\n    tag_88:\n      mload(0x40)\n      0x20\n      dup2\n      dup4\n      sub\n      sub\n      dup2\n      mstore\n      swap1\n      0x40\n      mstore\n        /* \"Simple_NFT.sol\":1866:1935  return string(abi.encodePacked(baseURL, _tokenId.toString(), \".png\")) */\n      swap1\n      pop\n        /* \"Simple_NFT.sol\":1710:1943  function tokenURI(uint256 _tokenId) external view returns (string memory) {... */\n      swap2\n      swap1\n      pop\n      jump\t// out\n        /* \"Simple_NFT.sol\":2167:2312  function isApprovalForAll(address _owner, address _operator) external view returns (bool) {... */\n    tag_47:\n        /* \"Simple_NFT.sol\":2251:2255  bool */\n      0x00\n        /* \"Simple_NFT.sol\":2275:2285  _operators */\n      0x02\n        /* \"Simple_NFT.sol\":2275:2293  _operators[_owner] */\n      0x00\n        /* \"Simple_NFT.sol\":2286:2292  _owner */\n      dup5\n        /* \"Simple_NFT.sol\":2275:2293  _operators[_owner] */\n      0xffffffffffffffffffffffffffffffffffffffff\n      and\n      0xffffffffffffffffffffffffffffffffffffffff\n      and\n      dup2\n      mstore\n      0x20\n      add\n      swap1\n      dup2\n      mstore\n      0x20\n      add\n      0x00\n      keccak256\n        /* \"Simple_NFT.sol\":2275:2304  _operators[_owner][_operator] */\n      0x00\n        /* \"Simple_NFT.sol\":2294:2303  _operator */\n      dup4\n        /* \"Simple_NFT.sol\":2275:2304  _operators[_owner][_operator] */\n      0xffffffffffffffffffffffffffffffffffffffff\n      and\n      0xffffffffffffffffffffffffffffffffffffffff\n      and\n      dup2\n      mstore\n      0x20\n      add\n      swap1\n      dup2\n      mstore\n      0x20\n      add\n      0x00\n      keccak256\n      0x00\n      swap1\n      sload\n      swap1\n      0x0100\n      exp\n      swap1\n      div\n      0xff\n      and\n        /* \"Simple_NFT.sol\":2268:2304  return _operators[_owner][_operator] */\n      swap1\n      pop\n        /* \"Simple_NFT.sol\":2167:2312  function isApprovalForAll(address _owner, address _operator) external view returns (bool) {... */\n      swap3\n      swap2\n      pop\n      pop\n      jump\t// out\n        /* \"@openzeppelin/contracts/utils/Strings.sol\":987:1619  function toString(uint256 value) internal pure returns (string memory) {... */\n    tag_87:\n        /* \"@openzeppelin/contracts/utils/Strings.sol\":1043:1056  string memory */\n      0x60\n        /* \"@openzeppelin/contracts/utils/Strings.sol\":1092:1106  uint256 length */\n      0x00\n        /* \"@openzeppelin/contracts/utils/Strings.sol\":1129:1130  1 */\n      0x01\n        /* \"@openzeppelin/contracts/utils/Strings.sol\":1109:1126  Math.log10(value) */\n      tag_92\n        /* \"@openzeppelin/contracts/utils/Strings.sol\":1120:1125  value */\n      dup5\n        /* \"@openzeppelin/contracts/utils/Strings.sol\":1109:1119  Math.log10 */\n      tag_93\n        /* \"@openzeppelin/contracts/utils/Strings.sol\":1109:1126  Math.log10(value) */\n      jump\t// in\n    tag_92:\n        /* \"@openzeppelin/contracts/utils/Strings.sol\":1109:1130  Math.log10(value) + 1 */\n      add\n        /* \"@openzeppelin/contracts/utils/Strings.sol\":1092:1130  uint256 length = Math.log10(value) + 1 */\n      swap1\n      pop\n        /* \"@openzeppelin/contracts/utils/Strings.sol\":1144:1164  string memory buffer */\n      0x00\n        /* \"@openzeppelin/contracts/utils/Strings.sol\":1178:1184  length */\n      dup2\n        /* \"@openzeppelin/contracts/utils/Strings.sol\":1167:1185  new string(length) */\n      0xffffffffffffffff\n      dup2\n      gt\n      iszero\n      tag_94\n      jumpi\n      tag_95\n      tag_96\n      jump\t// in\n    tag_95:\n    tag_94:\n      mload(0x40)\n      swap1\n      dup1\n      dup3\n      mstore\n      dup1\n      0x1f\n      add\n      not(0x1f)\n      and\n      0x20\n      add\n      dup3\n      add\n      0x40\n      mstore\n      dup1\n      iszero\n      tag_97\n      jumpi\n      dup2\n      0x20\n      add\n      0x01\n      dup3\n      mul\n      dup1\n      calldatasize\n      dup4\n      calldatacopy\n      dup1\n      dup3\n      add\n      swap2\n      pop\n      pop\n      swap1\n      pop\n    tag_97:\n      pop\n        /* \"@openzeppelin/contracts/utils/Strings.sol\":1144:1185  string memory buffer = new string(length) */\n      swap1\n      pop\n        /* \"@openzeppelin/contracts/utils/Strings.sol\":1199:1210  uint256 ptr */\n      0x00\n        /* \"@openzeppelin/contracts/utils/Strings.sol\":1294:1300  length */\n      dup3\n        /* \"@openzeppelin/contracts/utils/Strings.sol\":1290:1292  32 */\n      0x20\n        /* \"@openzeppelin/contracts/utils/Strings.sol\":1286:1301  add(32, length) */\n      add\n        /* \"@openzeppelin/contracts/utils/Strings.sol\":1278:1284  buffer */\n      dup3\n        /* \"@openzeppelin/contracts/utils/Strings.sol\":1274:1302  add(buffer, add(32, length)) */\n      add\n        /* \"@openzeppelin/contracts/utils/Strings.sol\":1267:1302  ptr := add(buffer, add(32, length)) */\n      swap1\n      pop\n        /* \"@openzeppelin/contracts/utils/Strings.sol\":1329:1576  while (true) {... */\n    tag_98:\n        /* \"@openzeppelin/contracts/utils/Strings.sol\":1336:1340  true */\n      0x01\n        /* \"@openzeppelin/contracts/utils/Strings.sol\":1329:1576  while (true) {... */\n      iszero\n      tag_99\n      jumpi\n        /* \"@openzeppelin/contracts/utils/Strings.sol\":1360:1365  ptr-- */\n      dup1\n      dup1\n      0x01\n      swap1\n      sub\n      swap2\n      pop\n      pop\n        /* \"@openzeppelin/contracts/utils/Strings.sol\":1464:1474  HEX_DIGITS */\n      0x3031323334353637383961626364656600000000000000000000000000000000\n        /* \"@openzeppelin/contracts/utils/Strings.sol\":1459:1461  10 */\n      0x0a\n        /* \"@openzeppelin/contracts/utils/Strings.sol\":1452:1457  value */\n      dup7\n        /* \"@openzeppelin/contracts/utils/Strings.sol\":1448:1462  mod(value, 10) */\n      mod\n        /* \"@openzeppelin/contracts/utils/Strings.sol\":1443:1475  byte(mod(value, 10), HEX_DIGITS) */\n      byte\n        /* \"@openzeppelin/contracts/utils/Strings.sol\":1438:1441  ptr */\n      dup2\n        /* \"@openzeppelin/contracts/utils/Strings.sol\":1430:1476  mstore8(ptr, byte(mod(value, 10), HEX_DIGITS)) */\n      mstore8\n        /* \"@openzeppelin/contracts/utils/Strings.sol\":1520:1522  10 */\n      0x0a\n        /* \"@openzeppelin/contracts/utils/Strings.sol\":1511:1522  value /= 10 */\n      dup6\n      dup2\n      tag_100\n      jumpi\n      tag_101\n      tag_102\n      jump\t// in\n    tag_101:\n    tag_100:\n      div\n      swap5\n      pop\n        /* \"@openzeppelin/contracts/utils/Strings.sol\":1553:1554  0 */\n      0x00\n        /* \"@openzeppelin/contracts/utils/Strings.sol\":1544:1549  value */\n      dup6\n        /* \"@openzeppelin/contracts/utils/Strings.sol\":1544:1554  value == 0 */\n      sub\n        /* \"@openzeppelin/contracts/utils/Strings.sol\":1329:1576  while (true) {... */\n      tag_98\n        /* \"@openzeppelin/contracts/utils/Strings.sol\":1540:1561  if (value == 0) break */\n      jumpi\n        /* \"@openzeppelin/contracts/utils/Strings.sol\":1329:1576  while (true) {... */\n    tag_99:\n        /* \"@openzeppelin/contracts/utils/Strings.sol\":1596:1602  buffer */\n      dup2\n        /* \"@openzeppelin/contracts/utils/Strings.sol\":1589:1602  return buffer */\n      swap4\n      pop\n      pop\n      pop\n      pop\n        /* \"@openzeppelin/contracts/utils/Strings.sol\":987:1619  function toString(uint256 value) internal pure returns (string memory) {... */\n      swap2\n      swap1\n      pop\n      jump\t// out\n        /* \"@openzeppelin/contracts/utils/math/Math.sol\":25316:26232  function log10(uint256 value) internal pure returns (uint256) {... */\n    tag_93:\n        /* \"@openzeppelin/contracts/utils/math/Math.sol\":25369:25376  uint256 */\n      0x00\n        /* \"@openzeppelin/contracts/utils/math/Math.sol\":25388:25402  uint256 result */\n      dup1\n        /* \"@openzeppelin/contracts/utils/math/Math.sol\":25405:25406  0 */\n      0x00\n        /* \"@openzeppelin/contracts/utils/math/Math.sol\":25388:25406  uint256 result = 0 */\n      swap1\n      pop\n        /* \"@openzeppelin/contracts/utils/math/Math.sol\":25453:25461  10 ** 64 */\n      0x184f03e93ff9f4daa797ed6e38ed64bf6a1f010000000000000000\n        /* \"@openzeppelin/contracts/utils/math/Math.sol\":25444:25449  value */\n      dup4\n        /* \"@openzeppelin/contracts/utils/math/Math.sol\":25444:25461  value >= 10 ** 64 */\n      lt\n        /* \"@openzeppelin/contracts/utils/math/Math.sol\":25440:25543  if (value >= 10 ** 64) {... */\n      tag_105\n      jumpi\n        /* \"@openzeppelin/contracts/utils/math/Math.sol\":25490:25498  10 ** 64 */\n      0x184f03e93ff9f4daa797ed6e38ed64bf6a1f010000000000000000\n        /* \"@openzeppelin/contracts/utils/math/Math.sol\":25481:25498  value /= 10 ** 64 */\n      dup4\n      dup2\n      tag_106\n      jumpi\n      tag_107\n      tag_102\n      jump\t// in\n    tag_107:\n    tag_106:\n      div\n      swap3\n      pop\n        /* \"@openzeppelin/contracts/utils/math/Math.sol\":25526:25528  64 */\n      0x40\n        /* \"@openzeppelin/contracts/utils/math/Math.sol\":25516:25528  result += 64 */\n      dup2\n      add\n      swap1\n      pop\n        /* \"@openzeppelin/contracts/utils/math/Math.sol\":25440:25543  if (value >= 10 ** 64) {... */\n    tag_105:\n        /* \"@openzeppelin/contracts/utils/math/Math.sol\":25569:25577  10 ** 32 */\n      0x04ee2d6d415b85acef8100000000\n        /* \"@openzeppelin/contracts/utils/math/Math.sol\":25560:25565  value */\n      dup4\n        /* \"@openzeppelin/contracts/utils/math/Math.sol\":25560:25577  value >= 10 ** 32 */\n      lt\n        /* \"@openzeppelin/contracts/utils/math/Math.sol\":25556:25659  if (value >= 10 ** 32) {... */\n      tag_108\n      jumpi\n        /* \"@openzeppelin/contracts/utils/math/Math.sol\":25606:25614  10 ** 32 */\n      0x04ee2d6d415b85acef8100000000\n        /* \"@openzeppelin/contracts/utils/math/Math.sol\":25597:25614  value /= 10 ** 32 */\n      dup4\n      dup2\n      tag_109\n      jumpi\n      tag_110\n      tag_102\n      jump\t// in\n    tag_110:\n    tag_109:\n      div\n      swap3\n      pop\n        /* \"@openzeppelin/contracts/utils/math/Math.sol\":25642:25644  32 */\n      0x20\n        /* \"@openzeppelin/contracts/utils/math/Math.sol\":25632:25644  result += 32 */\n      dup2\n      add\n      swap1\n      pop\n        /* \"@openzeppelin/contracts/utils/math/Math.sol\":25556:25659  if (value >= 10 ** 32) {... */\n    tag_108:\n        /* \"@openzeppelin/contracts/utils/math/Math.sol\":25685:25693  10 ** 16 */\n      0x2386f26fc10000\n        /* \"@openzeppelin/contracts/utils/math/Math.sol\":25676:25681  value */\n      dup4\n        /* \"@openzeppelin/contracts/utils/math/Math.sol\":25676:25693  value >= 10 ** 16 */\n      lt\n        /* \"@openzeppelin/contracts/utils/math/Math.sol\":25672:25775  if (value >= 10 ** 16) {... */\n      tag_111\n      jumpi\n        /* \"@openzeppelin/contracts/utils/math/Math.sol\":25722:25730  10 ** 16 */\n      0x2386f26fc10000\n        /* \"@openzeppelin/contracts/utils/math/Math.sol\":25713:25730  value /= 10 ** 16 */\n      dup4\n      dup2\n      tag_112\n      jumpi\n      tag_113\n      tag_102\n      jump\t// in\n    tag_113:\n    tag_112:\n      div\n      swap3\n      pop\n        /* \"@openzeppelin/contracts/utils/math/Math.sol\":25758:25760  16 */\n      0x10\n        /* \"@openzeppelin/contracts/utils/math/Math.sol\":25748:25760  result += 16 */\n      dup2\n      add\n      swap1\n      pop\n        /* \"@openzeppelin/contracts/utils/math/Math.sol\":25672:25775  if (value >= 10 ** 16) {... */\n    tag_111:\n        /* \"@openzeppelin/contracts/utils/math/Math.sol\":25801:25808  10 ** 8 */\n      0x05f5e100\n        /* \"@openzeppelin/contracts/utils/math/Math.sol\":25792:25797  value */\n      dup4\n        /* \"@openzeppelin/contracts/utils/math/Math.sol\":25792:25808  value >= 10 ** 8 */\n      lt\n        /* \"@openzeppelin/contracts/utils/math/Math.sol\":25788:25888  if (value >= 10 ** 8) {... */\n      tag_114\n      jumpi\n        /* \"@openzeppelin/contracts/utils/math/Math.sol\":25837:25844  10 ** 8 */\n      0x05f5e100\n        /* \"@openzeppelin/contracts/utils/math/Math.sol\":25828:25844  value /= 10 ** 8 */\n      dup4\n      dup2\n      tag_115\n      jumpi\n      tag_116\n      tag_102\n      jump\t// in\n    tag_116:\n    tag_115:\n      div\n      swap3\n      pop\n        /* \"@openzeppelin/contracts/utils/math/Math.sol\":25872:25873  8 */\n      0x08\n        /* \"@openzeppelin/contracts/utils/math/Math.sol\":25862:25873  result += 8 */\n      dup2\n      add\n      swap1\n      pop\n        /* \"@openzeppelin/contracts/utils/math/Math.sol\":25788:25888  if (value >= 10 ** 8) {... */\n    tag_114:\n        /* \"@openzeppelin/contracts/utils/math/Math.sol\":25914:25921  10 ** 4 */\n      0x2710\n        /* \"@openzeppelin/contracts/utils/math/Math.sol\":25905:25910  value */\n      dup4\n        /* \"@openzeppelin/contracts/utils/math/Math.sol\":25905:25921  value >= 10 ** 4 */\n      lt\n        /* \"@openzeppelin/contracts/utils/math/Math.sol\":25901:26001  if (value >= 10 ** 4) {... */\n      tag_117\n      jumpi\n        /* \"@openzeppelin/contracts/utils/math/Math.sol\":25950:25957  10 ** 4 */\n      0x2710\n        /* \"@openzeppelin/contracts/utils/math/Math.sol\":25941:25957  value /= 10 ** 4 */\n      dup4\n      dup2\n      tag_118\n      jumpi\n      tag_119\n      tag_102\n      jump\t// in\n    tag_119:\n    tag_118:\n      div\n      swap3\n      pop\n        /* \"@openzeppelin/contracts/utils/math/Math.sol\":25985:25986  4 */\n      0x04\n        /* \"@openzeppelin/contracts/utils/math/Math.sol\":25975:25986  result += 4 */\n      dup2\n      add\n      swap1\n      pop\n        /* \"@openzeppelin/contracts/utils/math/Math.sol\":25901:26001  if (value >= 10 ** 4) {... */\n    tag_117:\n        /* \"@openzeppelin/contracts/utils/math/Math.sol\":26027:26034  10 ** 2 */\n      0x64\n        /* \"@openzeppelin/contracts/utils/math/Math.sol\":26018:26023  value */\n      dup4\n        /* \"@openzeppelin/contracts/utils/math/Math.sol\":26018:26034  value >= 10 ** 2 */\n      lt\n        /* \"@openzeppelin/contracts/utils/math/Math.sol\":26014:26114  if (value >= 10 ** 2) {... */\n      tag_120\n      jumpi\n        /* \"@openzeppelin/contracts/utils/math/Math.sol\":26063:26070  10 ** 2 */\n      0x64\n        /* \"@openzeppelin/contracts/utils/math/Math.sol\":26054:26070  value /= 10 ** 2 */\n      dup4\n      dup2\n      tag_121\n      jumpi\n      tag_122\n      tag_102\n      jump\t// in\n    tag_122:\n    tag_121:\n      div\n      swap3\n      pop\n        /* \"@openzeppelin/contracts/utils/math/Math.sol\":26098:26099  2 */\n      0x02\n        /* \"@openzeppelin/contracts/utils/math/Math.sol\":26088:26099  result += 2 */\n      dup2\n      add\n      swap1\n      pop\n        /* \"@openzeppelin/contracts/utils/math/Math.sol\":26014:26114  if (value >= 10 ** 2) {... */\n    tag_120:\n        /* \"@openzeppelin/contracts/utils/math/Math.sol\":26140:26147  10 ** 1 */\n      0x0a\n        /* \"@openzeppelin/contracts/utils/math/Math.sol\":26131:26136  value */\n      dup4\n        /* \"@openzeppelin/contracts/utils/math/Math.sol\":26131:26147  value >= 10 ** 1 */\n      lt\n        /* \"@openzeppelin/contracts/utils/math/Math.sol\":26127:26193  if (value >= 10 ** 1) {... */\n      tag_123\n      jumpi\n        /* \"@openzeppelin/contracts/utils/math/Math.sol\":26177:26178  1 */\n      0x01\n        /* \"@openzeppelin/contracts/utils/math/Math.sol\":26167:26178  result += 1 */\n      dup2\n      add\n      swap1\n      pop\n        /* \"@openzeppelin/contracts/utils/math/Math.sol\":26127:26193  if (value >= 10 ** 1) {... */\n    tag_123:\n        /* \"@openzeppelin/contracts/utils/math/Math.sol\":26219:26225  result */\n      dup1\n        /* \"@openzeppelin/contracts/utils/math/Math.sol\":26212:26225  return result */\n      swap2\n      pop\n      pop\n        /* \"@openzeppelin/contracts/utils/math/Math.sol\":25316:26232  function log10(uint256 value) internal pure returns (uint256) {... */\n      swap2\n      swap1\n      pop\n      jump\t// out\n        /* \"#utility.yul\":88:205   */\n    tag_125:\n        /* \"#utility.yul\":197:198   */\n      0x00\n        /* \"#utility.yul\":194:195   */\n      dup1\n        /* \"#utility.yul\":187:199   */\n      revert\n        /* \"#utility.yul\":334:460   */\n    tag_127:\n        /* \"#utility.yul\":371:378   */\n      0x00\n        /* \"#utility.yul\":411:453   */\n      0xffffffffffffffffffffffffffffffffffffffff\n        /* \"#utility.yul\":404:409   */\n      dup3\n        /* \"#utility.yul\":400:454   */\n      and\n        /* \"#utility.yul\":389:454   */\n      swap1\n      pop\n        /* \"#utility.yul\":334:460   */\n      swap2\n      swap1\n      pop\n      jump\t// out\n        /* \"#utility.yul\":466:562   */\n    tag_128:\n        /* \"#utility.yul\":503:510   */\n      0x00\n        /* \"#utility.yul\":532:556   */\n      tag_176\n        /* \"#utility.yul\":550:555   */\n      dup3\n        /* \"#utility.yul\":532:556   */\n      tag_127\n      jump\t// in\n    tag_176:\n        /* \"#utility.yul\":521:556   */\n      swap1\n      pop\n        /* \"#utility.yul\":466:562   */\n      swap2\n      swap1\n      pop\n      jump\t// out\n        /* \"#utility.yul\":568:690   */\n    tag_129:\n        /* \"#utility.yul\":641:665   */\n      tag_178\n        /* \"#utility.yul\":659:664   */\n      dup2\n        /* \"#utility.yul\":641:665   */\n      tag_128\n      jump\t// in\n    tag_178:\n        /* \"#utility.yul\":634:639   */\n      dup2\n        /* \"#utility.yul\":631:666   */\n      eq\n        /* \"#utility.yul\":621:684   */\n      tag_179\n      jumpi\n        /* \"#utility.yul\":680:681   */\n      0x00\n        /* \"#utility.yul\":677:678   */\n      dup1\n        /* \"#utility.yul\":670:682   */\n      revert\n        /* \"#utility.yul\":621:684   */\n    tag_179:\n        /* \"#utility.yul\":568:690   */\n      pop\n      jump\t// out\n        /* \"#utility.yul\":696:835   */\n    tag_130:\n        /* \"#utility.yul\":742:747   */\n      0x00\n        /* \"#utility.yul\":780:786   */\n      dup2\n        /* \"#utility.yul\":767:787   */\n      calldataload\n        /* \"#utility.yul\":758:787   */\n      swap1\n      pop\n        /* \"#utility.yul\":796:829   */\n      tag_181\n        /* \"#utility.yul\":823:828   */\n      dup2\n        /* \"#utility.yul\":796:829   */\n      tag_129\n      jump\t// in\n    tag_181:\n        /* \"#utility.yul\":696:835   */\n      swap3\n      swap2\n      pop\n      pop\n      jump\t// out\n        /* \"#utility.yul\":841:918   */\n    tag_131:\n        /* \"#utility.yul\":878:885   */\n      0x00\n        /* \"#utility.yul\":907:912   */\n      dup2\n        /* \"#utility.yul\":896:912   */\n      swap1\n      pop\n        /* \"#utility.yul\":841:918   */\n      swap2\n      swap1\n      pop\n      jump\t// out\n        /* \"#utility.yul\":924:1046   */\n    tag_132:\n        /* \"#utility.yul\":997:1021   */\n      tag_184\n        /* \"#utility.yul\":1015:1020   */\n      dup2\n        /* \"#utility.yul\":997:1021   */\n      tag_131\n      jump\t// in\n    tag_184:\n        /* \"#utility.yul\":990:995   */\n      dup2\n        /* \"#utility.yul\":987:1022   */\n      eq\n        /* \"#utility.yul\":977:1040   */\n      tag_185\n      jumpi\n        /* \"#utility.yul\":1036:1037   */\n      0x00\n        /* \"#utility.yul\":1033:1034   */\n      dup1\n        /* \"#utility.yul\":1026:1038   */\n      revert\n        /* \"#utility.yul\":977:1040   */\n    tag_185:\n        /* \"#utility.yul\":924:1046   */\n      pop\n      jump\t// out\n        /* \"#utility.yul\":1052:1191   */\n    tag_133:\n        /* \"#utility.yul\":1098:1103   */\n      0x00\n        /* \"#utility.yul\":1136:1142   */\n      dup2\n        /* \"#utility.yul\":1123:1143   */\n      calldataload\n        /* \"#utility.yul\":1114:1143   */\n      swap1\n      pop\n        /* \"#utility.yul\":1152:1185   */\n      tag_187\n        /* \"#utility.yul\":1179:1184   */\n      dup2\n        /* \"#utility.yul\":1152:1185   */\n      tag_132\n      jump\t// in\n    tag_187:\n        /* \"#utility.yul\":1052:1191   */\n      swap3\n      swap2\n      pop\n      pop\n      jump\t// out\n        /* \"#utility.yul\":1197:1816   */\n    tag_12:\n        /* \"#utility.yul\":1274:1280   */\n      0x00\n        /* \"#utility.yul\":1282:1288   */\n      dup1\n        /* \"#utility.yul\":1290:1296   */\n      0x00\n        /* \"#utility.yul\":1339:1341   */\n      0x60\n        /* \"#utility.yul\":1327:1336   */\n      dup5\n        /* \"#utility.yul\":1318:1325   */\n      dup7\n        /* \"#utility.yul\":1314:1337   */\n      sub\n        /* \"#utility.yul\":1310:1342   */\n      slt\n        /* \"#utility.yul\":1307:1426   */\n      iszero\n      tag_189\n      jumpi\n        /* \"#utility.yul\":1345:1424   */\n      tag_190\n      tag_125\n      jump\t// in\n    tag_190:\n        /* \"#utility.yul\":1307:1426   */\n    tag_189:\n        /* \"#utility.yul\":1465:1466   */\n      0x00\n        /* \"#utility.yul\":1490:1543   */\n      tag_191\n        /* \"#utility.yul\":1535:1542   */\n      dup7\n        /* \"#utility.yul\":1526:1532   */\n      dup3\n        /* \"#utility.yul\":1515:1524   */\n      dup8\n        /* \"#utility.yul\":1511:1533   */\n      add\n        /* \"#utility.yul\":1490:1543   */\n      tag_130\n      jump\t// in\n    tag_191:\n        /* \"#utility.yul\":1480:1543   */\n      swap4\n      pop\n        /* \"#utility.yul\":1436:1553   */\n      pop\n        /* \"#utility.yul\":1592:1594   */\n      0x20\n        /* \"#utility.yul\":1618:1671   */\n      tag_192\n        /* \"#utility.yul\":1663:1670   */\n      dup7\n        /* \"#utility.yul\":1654:1660   */\n      dup3\n        /* \"#utility.yul\":1643:1652   */\n      dup8\n        /* \"#utility.yul\":1639:1661   */\n      add\n        /* \"#utility.yul\":1618:1671   */\n      tag_130\n      jump\t// in\n    tag_192:\n        /* \"#utility.yul\":1608:1671   */\n      swap3\n      pop\n        /* \"#utility.yul\":1563:1681   */\n      pop\n        /* \"#utility.yul\":1720:1722   */\n      0x40\n        /* \"#utility.yul\":1746:1799   */\n      tag_193\n        /* \"#utility.yul\":1791:1798   */\n      dup7\n        /* \"#utility.yul\":1782:1788   */\n      dup3\n        /* \"#utility.yul\":1771:1780   */\n      dup8\n        /* \"#utility.yul\":1767:1789   */\n      add\n        /* \"#utility.yul\":1746:1799   */\n      tag_133\n      jump\t// in\n    tag_193:\n        /* \"#utility.yul\":1736:1799   */\n      swap2\n      pop\n        /* \"#utility.yul\":1691:1809   */\n      pop\n        /* \"#utility.yul\":1197:1816   */\n      swap3\n      pop\n      swap3\n      pop\n      swap3\n      jump\t// out\n        /* \"#utility.yul\":1822:2151   */\n    tag_17:\n        /* \"#utility.yul\":1881:1887   */\n      0x00\n        /* \"#utility.yul\":1930:1932   */\n      0x20\n        /* \"#utility.yul\":1918:1927   */\n      dup3\n        /* \"#utility.yul\":1909:1916   */\n      dup5\n        /* \"#utility.yul\":1905:1928   */\n      sub\n        /* \"#utility.yul\":1901:1933   */\n      slt\n        /* \"#utility.yul\":1898:2017   */\n      iszero\n      tag_195\n      jumpi\n        /* \"#utility.yul\":1936:2015   */\n      tag_196\n      tag_125\n      jump\t// in\n    tag_196:\n        /* \"#utility.yul\":1898:2017   */\n    tag_195:\n        /* \"#utility.yul\":2056:2057   */\n      0x00\n        /* \"#utility.yul\":2081:2134   */\n      tag_197\n        /* \"#utility.yul\":2126:2133   */\n      dup5\n        /* \"#utility.yul\":2117:2123   */\n      dup3\n        /* \"#utility.yul\":2106:2115   */\n      dup6\n        /* \"#utility.yul\":2102:2124   */\n      add\n        /* \"#utility.yul\":2081:2134   */\n      tag_133\n      jump\t// in\n    tag_197:\n        /* \"#utility.yul\":2071:2134   */\n      swap2\n      pop\n        /* \"#utility.yul\":2027:2144   */\n      pop\n        /* \"#utility.yul\":1822:2151   */\n      swap3\n      swap2\n      pop\n      pop\n      jump\t// out\n        /* \"#utility.yul\":2157:2275   */\n    tag_134:\n        /* \"#utility.yul\":2244:2268   */\n      tag_199\n        /* \"#utility.yul\":2262:2267   */\n      dup2\n        /* \"#utility.yul\":2244:2268   */\n      tag_128\n      jump\t// in\n    tag_199:\n        /* \"#utility.yul\":2239:2242   */\n      dup3\n        /* \"#utility.yul\":2232:2269   */\n      mstore\n        /* \"#utility.yul\":2157:2275   */\n      pop\n      pop\n      jump\t// out\n        /* \"#utility.yul\":2281:2503   */\n    tag_20:\n        /* \"#utility.yul\":2374:2378   */\n      0x00\n        /* \"#utility.yul\":2412:2414   */\n      0x20\n        /* \"#utility.yul\":2401:2410   */\n      dup3\n        /* \"#utility.yul\":2397:2415   */\n      add\n        /* \"#utility.yul\":2389:2415   */\n      swap1\n      pop\n        /* \"#utility.yul\":2425:2496   */\n      tag_201\n        /* \"#utility.yul\":2493:2494   */\n      0x00\n        /* \"#utility.yul\":2482:2491   */\n      dup4\n        /* \"#utility.yul\":2478:2495   */\n      add\n        /* \"#utility.yul\":2469:2475   */\n      dup5\n        /* \"#utility.yul\":2425:2496   */\n      tag_134\n      jump\t// in\n    tag_201:\n        /* \"#utility.yul\":2281:2503   */\n      swap3\n      swap2\n      pop\n      pop\n      jump\t// out\n        /* \"#utility.yul\":2509:2838   */\n    tag_24:\n        /* \"#utility.yul\":2568:2574   */\n      0x00\n        /* \"#utility.yul\":2617:2619   */\n      0x20\n        /* \"#utility.yul\":2605:2614   */\n      dup3\n        /* \"#utility.yul\":2596:2603   */\n      dup5\n        /* \"#utility.yul\":2592:2615   */\n      sub\n        /* \"#utility.yul\":2588:2620   */\n      slt\n        /* \"#utility.yul\":2585:2704   */\n      iszero\n      tag_203\n      jumpi\n        /* \"#utility.yul\":2623:2702   */\n      tag_204\n      tag_125\n      jump\t// in\n    tag_204:\n        /* \"#utility.yul\":2585:2704   */\n    tag_203:\n        /* \"#utility.yul\":2743:2744   */\n      0x00\n        /* \"#utility.yul\":2768:2821   */\n      tag_205\n        /* \"#utility.yul\":2813:2820   */\n      dup5\n        /* \"#utility.yul\":2804:2810   */\n      dup3\n        /* \"#utility.yul\":2793:2802   */\n      dup6\n        /* \"#utility.yul\":2789:2811   */\n      add\n        /* \"#utility.yul\":2768:2821   */\n      tag_130\n      jump\t// in\n    tag_205:\n        /* \"#utility.yul\":2758:2821   */\n      swap2\n      pop\n        /* \"#utility.yul\":2714:2831   */\n      pop\n        /* \"#utility.yul\":2509:2838   */\n      swap3\n      swap2\n      pop\n      pop\n      jump\t// out\n        /* \"#utility.yul\":2844:2962   */\n    tag_135:\n        /* \"#utility.yul\":2931:2955   */\n      tag_207\n        /* \"#utility.yul\":2949:2954   */\n      dup2\n        /* \"#utility.yul\":2931:2955   */\n      tag_131\n      jump\t// in\n    tag_207:\n        /* \"#utility.yul\":2926:2929   */\n      dup3\n        /* \"#utility.yul\":2919:2956   */\n      mstore\n        /* \"#utility.yul\":2844:2962   */\n      pop\n      pop\n      jump\t// out\n        /* \"#utility.yul\":2968:3190   */\n    tag_27:\n        /* \"#utility.yul\":3061:3065   */\n      0x00\n        /* \"#utility.yul\":3099:3101   */\n      0x20\n        /* \"#utility.yul\":3088:3097   */\n      dup3\n        /* \"#utility.yul\":3084:3102   */\n      add\n        /* \"#utility.yul\":3076:3102   */\n      swap1\n      pop\n        /* \"#utility.yul\":3112:3183   */\n      tag_209\n        /* \"#utility.yul\":3180:3181   */\n      0x00\n        /* \"#utility.yul\":3169:3178   */\n      dup4\n        /* \"#utility.yul\":3165:3182   */\n      add\n        /* \"#utility.yul\":3156:3162   */\n      dup5\n        /* \"#utility.yul\":3112:3183   */\n      tag_135\n      jump\t// in\n    tag_209:\n        /* \"#utility.yul\":2968:3190   */\n      swap3\n      swap2\n      pop\n      pop\n      jump\t// out\n        /* \"#utility.yul\":3196:3286   */\n    tag_136:\n        /* \"#utility.yul\":3230:3237   */\n      0x00\n        /* \"#utility.yul\":3273:3278   */\n      dup2\n        /* \"#utility.yul\":3266:3279   */\n      iszero\n        /* \"#utility.yul\":3259:3280   */\n      iszero\n        /* \"#utility.yul\":3248:3280   */\n      swap1\n      pop\n        /* \"#utility.yul\":3196:3286   */\n      swap2\n      swap1\n      pop\n      jump\t// out\n        /* \"#utility.yul\":3292:3408   */\n    tag_137:\n        /* \"#utility.yul\":3362:3383   */\n      tag_212\n        /* \"#utility.yul\":3377:3382   */\n      dup2\n        /* \"#utility.yul\":3362:3383   */\n      tag_136\n      jump\t// in\n    tag_212:\n        /* \"#utility.yul\":3355:3360   */\n      dup2\n        /* \"#utility.yul\":3352:3384   */\n      eq\n        /* \"#utility.yul\":3342:3402   */\n      tag_213\n      jumpi\n        /* \"#utility.yul\":3398:3399   */\n      0x00\n        /* \"#utility.yul\":3395:3396   */\n      dup1\n        /* \"#utility.yul\":3388:3400   */\n      revert\n        /* \"#utility.yul\":3342:3402   */\n    tag_213:\n        /* \"#utility.yul\":3292:3408   */\n      pop\n      jump\t// out\n        /* \"#utility.yul\":3414:3547   */\n    tag_138:\n        /* \"#utility.yul\":3457:3462   */\n      0x00\n        /* \"#utility.yul\":3495:3501   */\n      dup2\n        /* \"#utility.yul\":3482:3502   */\n      calldataload\n        /* \"#utility.yul\":3473:3502   */\n      swap1\n      pop\n        /* \"#utility.yul\":3511:3541   */\n      tag_215\n        /* \"#utility.yul\":3535:3540   */\n      dup2\n        /* \"#utility.yul\":3511:3541   */\n      tag_137\n      jump\t// in\n    tag_215:\n        /* \"#utility.yul\":3414:3547   */\n      swap3\n      swap2\n      pop\n      pop\n      jump\t// out\n        /* \"#utility.yul\":3553:4021   */\n    tag_35:\n        /* \"#utility.yul\":3618:3624   */\n      0x00\n        /* \"#utility.yul\":3626:3632   */\n      dup1\n        /* \"#utility.yul\":3675:3677   */\n      0x40\n        /* \"#utility.yul\":3663:3672   */\n      dup4\n        /* \"#utility.yul\":3654:3661   */\n      dup6\n        /* \"#utility.yul\":3650:3673   */\n      sub\n        /* \"#utility.yul\":3646:3678   */\n      slt\n        /* \"#utility.yul\":3643:3762   */\n      iszero\n      tag_217\n      jumpi\n        /* \"#utility.yul\":3681:3760   */\n      tag_218\n      tag_125\n      jump\t// in\n    tag_218:\n        /* \"#utility.yul\":3643:3762   */\n    tag_217:\n        /* \"#utility.yul\":3801:3802   */\n      0x00\n        /* \"#utility.yul\":3826:3879   */\n      tag_219\n        /* \"#utility.yul\":3871:3878   */\n      dup6\n        /* \"#utility.yul\":3862:3868   */\n      dup3\n        /* \"#utility.yul\":3851:3860   */\n      dup7\n        /* \"#utility.yul\":3847:3869   */\n      add\n        /* \"#utility.yul\":3826:3879   */\n      tag_130\n      jump\t// in\n    tag_219:\n        /* \"#utility.yul\":3816:3879   */\n      swap3\n      pop\n        /* \"#utility.yul\":3772:3889   */\n      pop\n        /* \"#utility.yul\":3928:3930   */\n      0x20\n        /* \"#utility.yul\":3954:4004   */\n      tag_220\n        /* \"#utility.yul\":3996:4003   */\n      dup6\n        /* \"#utility.yul\":3987:3993   */\n      dup3\n        /* \"#utility.yul\":3976:3985   */\n      dup7\n        /* \"#utility.yul\":3972:3994   */\n      add\n        /* \"#utility.yul\":3954:4004   */\n      tag_138\n      jump\t// in\n    tag_220:\n        /* \"#utility.yul\":3944:4004   */\n      swap2\n      pop\n        /* \"#utility.yul\":3899:4014   */\n      pop\n        /* \"#utility.yul\":3553:4021   */\n      swap3\n      pop\n      swap3\n      swap1\n      pop\n      jump\t// out\n        /* \"#utility.yul\":4027:4126   */\n    tag_139:\n        /* \"#utility.yul\":4079:4085   */\n      0x00\n        /* \"#utility.yul\":4113:4118   */\n      dup2\n        /* \"#utility.yul\":4107:4119   */\n      mload\n        /* \"#utility.yul\":4097:4119   */\n      swap1\n      pop\n        /* \"#utility.yul\":4027:4126   */\n      swap2\n      swap1\n      pop\n      jump\t// out\n        /* \"#utility.yul\":4132:4301   */\n    tag_140:\n        /* \"#utility.yul\":4216:4227   */\n      0x00\n        /* \"#utility.yul\":4250:4256   */\n      dup3\n        /* \"#utility.yul\":4245:4248   */\n      dup3\n        /* \"#utility.yul\":4238:4257   */\n      mstore\n        /* \"#utility.yul\":4290:4294   */\n      0x20\n        /* \"#utility.yul\":4285:4288   */\n      dup3\n        /* \"#utility.yul\":4281:4295   */\n      add\n        /* \"#utility.yul\":4266:4295   */\n      swap1\n      pop\n        /* \"#utility.yul\":4132:4301   */\n      swap3\n      swap2\n      pop\n      pop\n      jump\t// out\n        /* \"#utility.yul\":4307:4446   */\n    tag_141:\n        /* \"#utility.yul\":4396:4402   */\n      dup3\n        /* \"#utility.yul\":4391:4394   */\n      dup2\n        /* \"#utility.yul\":4386:4389   */\n      dup4\n        /* \"#utility.yul\":4380:4403   */\n      mcopy\n        /* \"#utility.yul\":4437:4438   */\n      0x00\n        /* \"#utility.yul\":4428:4434   */\n      dup4\n        /* \"#utility.yul\":4423:4426   */\n      dup4\n        /* \"#utility.yul\":4419:4435   */\n      add\n        /* \"#utility.yul\":4412:4439   */\n      mstore\n        /* \"#utility.yul\":4307:4446   */\n      pop\n      pop\n      pop\n      jump\t// out\n        /* \"#utility.yul\":4452:4554   */\n    tag_142:\n        /* \"#utility.yul\":4493:4499   */\n      0x00\n        /* \"#utility.yul\":4544:4546   */\n      0x1f\n        /* \"#utility.yul\":4540:4547   */\n      not\n        /* \"#utility.yul\":4535:4537   */\n      0x1f\n        /* \"#utility.yul\":4528:4533   */\n      dup4\n        /* \"#utility.yul\":4524:4538   */\n      add\n        /* \"#utility.yul\":4520:4548   */\n      and\n        /* \"#utility.yul\":4510:4548   */\n      swap1\n      pop\n        /* \"#utility.yul\":4452:4554   */\n      swap2\n      swap1\n      pop\n      jump\t// out\n        /* \"#utility.yul\":4560:4937   */\n    tag_143:\n        /* \"#utility.yul\":4648:4651   */\n      0x00\n        /* \"#utility.yul\":4676:4715   */\n      tag_226\n        /* \"#utility.yul\":4709:4714   */\n      dup3\n        /* \"#utility.yul\":4676:4715   */\n      tag_139\n      jump\t// in\n    tag_226:\n        /* \"#utility.yul\":4731:4802   */\n      tag_227\n        /* \"#utility.yul\":4795:4801   */\n      dup2\n        /* \"#utility.yul\":4790:4793   */\n      dup6\n        /* \"#utility.yul\":4731:4802   */\n      tag_140\n      jump\t// in\n    tag_227:\n        /* \"#utility.yul\":4724:4802   */\n      swap4\n      pop\n        /* \"#utility.yul\":4811:4876   */\n      tag_228\n        /* \"#utility.yul\":4869:4875   */\n      dup2\n        /* \"#utility.yul\":4864:4867   */\n      dup6\n        /* \"#utility.yul\":4857:4861   */\n      0x20\n        /* \"#utility.yul\":4850:4855   */\n      dup7\n        /* \"#utility.yul\":4846:4862   */\n      add\n        /* \"#utility.yul\":4811:4876   */\n      tag_141\n      jump\t// in\n    tag_228:\n        /* \"#utility.yul\":4901:4930   */\n      tag_229\n        /* \"#utility.yul\":4923:4929   */\n      dup2\n        /* \"#utility.yul\":4901:4930   */\n      tag_142\n      jump\t// in\n    tag_229:\n        /* \"#utility.yul\":4896:4899   */\n      dup5\n        /* \"#utility.yul\":4892:4931   */\n      add\n        /* \"#utility.yul\":4885:4931   */\n      swap2\n      pop\n        /* \"#utility.yul\":4652:4937   */\n      pop\n        /* \"#utility.yul\":4560:4937   */\n      swap3\n      swap2\n      pop\n      pop\n      jump\t// out\n        /* \"#utility.yul\":4943:5256   */\n    tag_42:\n        /* \"#utility.yul\":5056:5060   */\n      0x00\n        /* \"#utility.yul\":5094:5096   */\n      0x20\n        /* \"#utility.yul\":5083:5092   */\n      dup3\n        /* \"#utility.yul\":5079:5097   */\n      add\n        /* \"#utility.yul\":5071:5097   */\n      swap1\n      pop\n        /* \"#utility.yul\":5143:5152   */\n      dup2\n        /* \"#utility.yul\":5137:5141   */\n      dup2\n        /* \"#utility.yul\":5133:5153   */\n      sub\n        /* \"#utility.yul\":5129:5130   */\n      0x00\n        /* \"#utility.yul\":5118:5127   */\n      dup4\n        /* \"#utility.yul\":5114:5131   */\n      add\n        /* \"#utility.yul\":5107:5154   */\n      mstore\n        /* \"#utility.yul\":5171:5249   */\n      tag_231\n        /* \"#utility.yul\":5244:5248   */\n      dup2\n        /* \"#utility.yul\":5235:5241   */\n      dup5\n        /* \"#utility.yul\":5171:5249   */\n      tag_143\n      jump\t// in\n    tag_231:\n        /* \"#utility.yul\":5163:5249   */\n      swap1\n      pop\n        /* \"#utility.yul\":4943:5256   */\n      swap3\n      swap2\n      pop\n      pop\n      jump\t// out\n        /* \"#utility.yul\":5262:5736   */\n    tag_46:\n        /* \"#utility.yul\":5330:5336   */\n      0x00\n        /* \"#utility.yul\":5338:5344   */\n      dup1\n        /* \"#utility.yul\":5387:5389   */\n      0x40\n        /* \"#utility.yul\":5375:5384   */\n      dup4\n        /* \"#utility.yul\":5366:5373   */\n      dup6\n        /* \"#utility.yul\":5362:5385   */\n      sub\n        /* \"#utility.yul\":5358:5390   */\n      slt\n        /* \"#utility.yul\":5355:5474   */\n      iszero\n      tag_233\n      jumpi\n        /* \"#utility.yul\":5393:5472   */\n      tag_234\n      tag_125\n      jump\t// in\n    tag_234:\n        /* \"#utility.yul\":5355:5474   */\n    tag_233:\n        /* \"#utility.yul\":5513:5514   */\n      0x00\n        /* \"#utility.yul\":5538:5591   */\n      tag_235\n        /* \"#utility.yul\":5583:5590   */\n      dup6\n        /* \"#utility.yul\":5574:5580   */\n      dup3\n        /* \"#utility.yul\":5563:5572   */\n      dup7\n        /* \"#utility.yul\":5559:5581   */\n      add\n        /* \"#utility.yul\":5538:5591   */\n      tag_130\n      jump\t// in\n    tag_235:\n        /* \"#utility.yul\":5528:5591   */\n      swap3\n      pop\n        /* \"#utility.yul\":5484:5601   */\n      pop\n        /* \"#utility.yul\":5640:5642   */\n      0x20\n        /* \"#utility.yul\":5666:5719   */\n      tag_236\n        /* \"#utility.yul\":5711:5718   */\n      dup6\n        /* \"#utility.yul\":5702:5708   */\n      dup3\n        /* \"#utility.yul\":5691:5700   */\n      dup7\n        /* \"#utility.yul\":5687:5709   */\n      add\n        /* \"#utility.yul\":5666:5719   */\n      tag_130\n      jump\t// in\n    tag_236:\n        /* \"#utility.yul\":5656:5719   */\n      swap2\n      pop\n        /* \"#utility.yul\":5611:5729   */\n      pop\n        /* \"#utility.yul\":5262:5736   */\n      swap3\n      pop\n      swap3\n      swap1\n      pop\n      jump\t// out\n        /* \"#utility.yul\":5742:5851   */\n    tag_144:\n        /* \"#utility.yul\":5823:5844   */\n      tag_238\n        /* \"#utility.yul\":5838:5843   */\n      dup2\n        /* \"#utility.yul\":5823:5844   */\n      tag_136\n      jump\t// in\n    tag_238:\n        /* \"#utility.yul\":5818:5821   */\n      dup3\n        /* \"#utility.yul\":5811:5845   */\n      mstore\n        /* \"#utility.yul\":5742:5851   */\n      pop\n      pop\n      jump\t// out\n        /* \"#utility.yul\":5857:6067   */\n    tag_49:\n        /* \"#utility.yul\":5944:5948   */\n      0x00\n        /* \"#utility.yul\":5982:5984   */\n      0x20\n        /* \"#utility.yul\":5971:5980   */\n      dup3\n        /* \"#utility.yul\":5967:5985   */\n      add\n        /* \"#utility.yul\":5959:5985   */\n      swap1\n      pop\n        /* \"#utility.yul\":5995:6060   */\n      tag_240\n        /* \"#utility.yul\":6057:6058   */\n      0x00\n        /* \"#utility.yul\":6046:6055   */\n      dup4\n        /* \"#utility.yul\":6042:6059   */\n      add\n        /* \"#utility.yul\":6033:6039   */\n      dup5\n        /* \"#utility.yul\":5995:6060   */\n      tag_144\n      jump\t// in\n    tag_240:\n        /* \"#utility.yul\":5857:6067   */\n      swap3\n      swap2\n      pop\n      pop\n      jump\t// out\n        /* \"#utility.yul\":6073:6244   */\n    tag_145:\n        /* \"#utility.yul\":6213:6236   */\n      0x746f6b656e20646f6573206e6f74206578697374730000000000000000000000\n        /* \"#utility.yul\":6209:6210   */\n      0x00\n        /* \"#utility.yul\":6201:6207   */\n      dup3\n        /* \"#utility.yul\":6197:6211   */\n      add\n        /* \"#utility.yul\":6190:6237   */\n      mstore\n        /* \"#utility.yul\":6073:6244   */\n      pop\n      jump\t// out\n        /* \"#utility.yul\":6250:6616   */\n    tag_146:\n        /* \"#utility.yul\":6392:6395   */\n      0x00\n        /* \"#utility.yul\":6413:6480   */\n      tag_243\n        /* \"#utility.yul\":6477:6479   */\n      0x15\n        /* \"#utility.yul\":6472:6475   */\n      dup4\n        /* \"#utility.yul\":6413:6480   */\n      tag_140\n      jump\t// in\n    tag_243:\n        /* \"#utility.yul\":6406:6480   */\n      swap2\n      pop\n        /* \"#utility.yul\":6489:6582   */\n      tag_244\n        /* \"#utility.yul\":6578:6581   */\n      dup3\n        /* \"#utility.yul\":6489:6582   */\n      tag_145\n      jump\t// in\n    tag_244:\n        /* \"#utility.yul\":6607:6609   */\n      0x20\n        /* \"#utility.yul\":6602:6605   */\n      dup3\n        /* \"#utility.yul\":6598:6610   */\n      add\n        /* \"#utility.yul\":6591:6610   */\n      swap1\n      pop\n        /* \"#utility.yul\":6250:6616   */\n      swap2\n      swap1\n      pop\n      jump\t// out\n        /* \"#utility.yul\":6622:7041   */\n    tag_53:\n        /* \"#utility.yul\":6788:6792   */\n      0x00\n        /* \"#utility.yul\":6826:6828   */\n      0x20\n        /* \"#utility.yul\":6815:6824   */\n      dup3\n        /* \"#utility.yul\":6811:6829   */\n      add\n        /* \"#utility.yul\":6803:6829   */\n      swap1\n      pop\n        /* \"#utility.yul\":6875:6884   */\n      dup2\n        /* \"#utility.yul\":6869:6873   */\n      dup2\n        /* \"#utility.yul\":6865:6885   */\n      sub\n        /* \"#utility.yul\":6861:6862   */\n      0x00\n        /* \"#utility.yul\":6850:6859   */\n      dup4\n        /* \"#utility.yul\":6846:6863   */\n      add\n        /* \"#utility.yul\":6839:6886   */\n      mstore\n        /* \"#utility.yul\":6903:7034   */\n      tag_246\n        /* \"#utility.yul\":7029:7033   */\n      dup2\n        /* \"#utility.yul\":6903:7034   */\n      tag_146\n      jump\t// in\n    tag_246:\n        /* \"#utility.yul\":6895:7034   */\n      swap1\n      pop\n        /* \"#utility.yul\":6622:7041   */\n      swap2\n      swap1\n      pop\n      jump\t// out\n        /* \"#utility.yul\":7047:7218   */\n    tag_147:\n        /* \"#utility.yul\":7187:7210   */\n      0x63616e6e6f74207472616e736665722066726f6d200000000000000000000000\n        /* \"#utility.yul\":7183:7184   */\n      0x00\n        /* \"#utility.yul\":7175:7181   */\n      dup3\n        /* \"#utility.yul\":7171:7185   */\n      add\n        /* \"#utility.yul\":7164:7211   */\n      mstore\n        /* \"#utility.yul\":7047:7218   */\n      pop\n      jump\t// out\n        /* \"#utility.yul\":7224:7590   */\n    tag_148:\n        /* \"#utility.yul\":7366:7369   */\n      0x00\n        /* \"#utility.yul\":7387:7454   */\n      tag_249\n        /* \"#utility.yul\":7451:7453   */\n      0x15\n        /* \"#utility.yul\":7446:7449   */\n      dup4\n        /* \"#utility.yul\":7387:7454   */\n      tag_140\n      jump\t// in\n    tag_249:\n        /* \"#utility.yul\":7380:7454   */\n      swap2\n      pop\n        /* \"#utility.yul\":7463:7556   */\n      tag_250\n        /* \"#utility.yul\":7552:7555   */\n      dup3\n        /* \"#utility.yul\":7463:7556   */\n      tag_147\n      jump\t// in\n    tag_250:\n        /* \"#utility.yul\":7581:7583   */\n      0x20\n        /* \"#utility.yul\":7576:7579   */\n      dup3\n        /* \"#utility.yul\":7572:7584   */\n      add\n        /* \"#utility.yul\":7565:7584   */\n      swap1\n      pop\n        /* \"#utility.yul\":7224:7590   */\n      swap2\n      swap1\n      pop\n      jump\t// out\n        /* \"#utility.yul\":7596:8015   */\n    tag_56:\n        /* \"#utility.yul\":7762:7766   */\n      0x00\n        /* \"#utility.yul\":7800:7802   */\n      0x20\n        /* \"#utility.yul\":7789:7798   */\n      dup3\n        /* \"#utility.yul\":7785:7803   */\n      add\n        /* \"#utility.yul\":7777:7803   */\n      swap1\n      pop\n        /* \"#utility.yul\":7849:7858   */\n      dup2\n        /* \"#utility.yul\":7843:7847   */\n      dup2\n        /* \"#utility.yul\":7839:7859   */\n      sub\n        /* \"#utility.yul\":7835:7836   */\n      0x00\n        /* \"#utility.yul\":7824:7833   */\n      dup4\n        /* \"#utility.yul\":7820:7837   */\n      add\n        /* \"#utility.yul\":7813:7860   */\n      mstore\n        /* \"#utility.yul\":7877:8008   */\n      tag_252\n        /* \"#utility.yul\":8003:8007   */\n      dup2\n        /* \"#utility.yul\":7877:8008   */\n      tag_148\n      jump\t// in\n    tag_252:\n        /* \"#utility.yul\":7869:8008   */\n      swap1\n      pop\n        /* \"#utility.yul\":7596:8015   */\n      swap2\n      swap1\n      pop\n      jump\t// out\n        /* \"#utility.yul\":8021:8191   */\n    tag_149:\n        /* \"#utility.yul\":8161:8183   */\n      0x726571756972656420746f206265206f776e6572000000000000000000000000\n        /* \"#utility.yul\":8157:8158   */\n      0x00\n        /* \"#utility.yul\":8149:8155   */\n      dup3\n        /* \"#utility.yul\":8145:8159   */\n      add\n        /* \"#utility.yul\":8138:8184   */\n      mstore\n        /* \"#utility.yul\":8021:8191   */\n      pop\n      jump\t// out\n        /* \"#utility.yul\":8197:8563   */\n    tag_150:\n        /* \"#utility.yul\":8339:8342   */\n      0x00\n        /* \"#utility.yul\":8360:8427   */\n      tag_255\n        /* \"#utility.yul\":8424:8426   */\n      0x14\n        /* \"#utility.yul\":8419:8422   */\n      dup4\n        /* \"#utility.yul\":8360:8427   */\n      tag_140\n      jump\t// in\n    tag_255:\n        /* \"#utility.yul\":8353:8427   */\n      swap2\n      pop\n        /* \"#utility.yul\":8436:8529   */\n      tag_256\n        /* \"#utility.yul\":8525:8528   */\n      dup3\n        /* \"#utility.yul\":8436:8529   */\n      tag_149\n      jump\t// in\n    tag_256:\n        /* \"#utility.yul\":8554:8556   */\n      0x20\n        /* \"#utility.yul\":8549:8552   */\n      dup3\n        /* \"#utility.yul\":8545:8557   */\n      add\n        /* \"#utility.yul\":8538:8557   */\n      swap1\n      pop\n        /* \"#utility.yul\":8197:8563   */\n      swap2\n      swap1\n      pop\n      jump\t// out\n        /* \"#utility.yul\":8569:8988   */\n    tag_60:\n        /* \"#utility.yul\":8735:8739   */\n      0x00\n        /* \"#utility.yul\":8773:8775   */\n      0x20\n        /* \"#utility.yul\":8762:8771   */\n      dup3\n        /* \"#utility.yul\":8758:8776   */\n      add\n        /* \"#utility.yul\":8750:8776   */\n      swap1\n      pop\n        /* \"#utility.yul\":8822:8831   */\n      dup2\n        /* \"#utility.yul\":8816:8820   */\n      dup2\n        /* \"#utility.yul\":8812:8832   */\n      sub\n        /* \"#utility.yul\":8808:8809   */\n      0x00\n        /* \"#utility.yul\":8797:8806   */\n      dup4\n        /* \"#utility.yul\":8793:8810   */\n      add\n        /* \"#utility.yul\":8786:8833   */\n      mstore\n        /* \"#utility.yul\":8850:8981   */\n      tag_258\n        /* \"#utility.yul\":8976:8980   */\n      dup2\n        /* \"#utility.yul\":8850:8981   */\n      tag_150\n      jump\t// in\n    tag_258:\n        /* \"#utility.yul\":8842:8981   */\n      swap1\n      pop\n        /* \"#utility.yul\":8569:8988   */\n      swap2\n      swap1\n      pop\n      jump\t// out\n        /* \"#utility.yul\":8994:9174   */\n    tag_151:\n        /* \"#utility.yul\":9042:9119   */\n      0x4e487b7100000000000000000000000000000000000000000000000000000000\n        /* \"#utility.yul\":9039:9040   */\n      0x00\n        /* \"#utility.yul\":9032:9120   */\n      mstore\n        /* \"#utility.yul\":9139:9143   */\n      0x11\n        /* \"#utility.yul\":9136:9137   */\n      0x04\n        /* \"#utility.yul\":9129:9144   */\n      mstore\n        /* \"#utility.yul\":9163:9167   */\n      0x24\n        /* \"#utility.yul\":9160:9161   */\n      0x00\n        /* \"#utility.yul\":9153:9168   */\n      revert\n        /* \"#utility.yul\":9180:9371   */\n    tag_62:\n        /* \"#utility.yul\":9220:9223   */\n      0x00\n        /* \"#utility.yul\":9239:9259   */\n      tag_261\n        /* \"#utility.yul\":9257:9258   */\n      dup3\n        /* \"#utility.yul\":9239:9259   */\n      tag_131\n      jump\t// in\n    tag_261:\n        /* \"#utility.yul\":9234:9259   */\n      swap2\n      pop\n        /* \"#utility.yul\":9273:9293   */\n      tag_262\n        /* \"#utility.yul\":9291:9292   */\n      dup4\n        /* \"#utility.yul\":9273:9293   */\n      tag_131\n      jump\t// in\n    tag_262:\n        /* \"#utility.yul\":9268:9293   */\n      swap3\n      pop\n        /* \"#utility.yul\":9316:9317   */\n      dup3\n        /* \"#utility.yul\":9313:9314   */\n      dup3\n        /* \"#utility.yul\":9309:9318   */\n      add\n        /* \"#utility.yul\":9302:9318   */\n      swap1\n      pop\n        /* \"#utility.yul\":9337:9340   */\n      dup1\n        /* \"#utility.yul\":9334:9335   */\n      dup3\n        /* \"#utility.yul\":9331:9341   */\n      gt\n        /* \"#utility.yul\":9328:9364   */\n      iszero\n      tag_263\n      jumpi\n        /* \"#utility.yul\":9344:9362   */\n      tag_264\n      tag_151\n      jump\t// in\n    tag_264:\n        /* \"#utility.yul\":9328:9364   */\n    tag_263:\n        /* \"#utility.yul\":9180:9371   */\n      swap3\n      swap2\n      pop\n      pop\n      jump\t// out\n        /* \"#utility.yul\":9377:9540   */\n    tag_152:\n        /* \"#utility.yul\":9517:9532   */\n      0x6e6f207375636820746f6b656e00000000000000000000000000000000000000\n        /* \"#utility.yul\":9513:9514   */\n      0x00\n        /* \"#utility.yul\":9505:9511   */\n      dup3\n        /* \"#utility.yul\":9501:9515   */\n      add\n        /* \"#utility.yul\":9494:9533   */\n      mstore\n        /* \"#utility.yul\":9377:9540   */\n      pop\n      jump\t// out\n        /* \"#utility.yul\":9546:9912   */\n    tag_153:\n        /* \"#utility.yul\":9688:9691   */\n      0x00\n        /* \"#utility.yul\":9709:9776   */\n      tag_267\n        /* \"#utility.yul\":9773:9775   */\n      0x0d\n        /* \"#utility.yul\":9768:9771   */\n      dup4\n        /* \"#utility.yul\":9709:9776   */\n      tag_140\n      jump\t// in\n    tag_267:\n        /* \"#utility.yul\":9702:9776   */\n      swap2\n      pop\n        /* \"#utility.yul\":9785:9878   */\n      tag_268\n        /* \"#utility.yul\":9874:9877   */\n      dup3\n        /* \"#utility.yul\":9785:9878   */\n      tag_152\n      jump\t// in\n    tag_268:\n        /* \"#utility.yul\":9903:9905   */\n      0x20\n        /* \"#utility.yul\":9898:9901   */\n      dup3\n        /* \"#utility.yul\":9894:9906   */\n      add\n        /* \"#utility.yul\":9887:9906   */\n      swap1\n      pop\n        /* \"#utility.yul\":9546:9912   */\n      swap2\n      swap1\n      pop\n      jump\t// out\n        /* \"#utility.yul\":9918:10337   */\n    tag_67:\n        /* \"#utility.yul\":10084:10088   */\n      0x00\n        /* \"#utility.yul\":10122:10124   */\n      0x20\n        /* \"#utility.yul\":10111:10120   */\n      dup3\n        /* \"#utility.yul\":10107:10125   */\n      add\n        /* \"#utility.yul\":10099:10125   */\n      swap1\n      pop\n        /* \"#utility.yul\":10171:10180   */\n      dup2\n        /* \"#utility.yul\":10165:10169   */\n      dup2\n        /* \"#utility.yul\":10161:10181   */\n      sub\n        /* \"#utility.yul\":10157:10158   */\n      0x00\n        /* \"#utility.yul\":10146:10155   */\n      dup4\n        /* \"#utility.yul\":10142:10159   */\n      add\n        /* \"#utility.yul\":10135:10182   */\n      mstore\n        /* \"#utility.yul\":10199:10330   */\n      tag_270\n        /* \"#utility.yul\":10325:10329   */\n      dup2\n        /* \"#utility.yul\":10199:10330   */\n      tag_153\n      jump\t// in\n    tag_270:\n        /* \"#utility.yul\":10191:10330   */\n      swap1\n      pop\n        /* \"#utility.yul\":9918:10337   */\n      swap2\n      swap1\n      pop\n      jump\t// out\n        /* \"#utility.yul\":10343:10505   */\n    tag_154:\n        /* \"#utility.yul\":10483:10497   */\n      0x7a65726f20616464726573730000000000000000000000000000000000000000\n        /* \"#utility.yul\":10479:10480   */\n      0x00\n        /* \"#utility.yul\":10471:10477   */\n      dup3\n        /* \"#utility.yul\":10467:10481   */\n      add\n        /* \"#utility.yul\":10460:10498   */\n      mstore\n        /* \"#utility.yul\":10343:10505   */\n      pop\n      jump\t// out\n        /* \"#utility.yul\":10511:10877   */\n    tag_155:\n        /* \"#utility.yul\":10653:10656   */\n      0x00\n        /* \"#utility.yul\":10674:10741   */\n      tag_273\n        /* \"#utility.yul\":10738:10740   */\n      0x0c\n        /* \"#utility.yul\":10733:10736   */\n      dup4\n        /* \"#utility.yul\":10674:10741   */\n      tag_140\n      jump\t// in\n    tag_273:\n        /* \"#utility.yul\":10667:10741   */\n      swap2\n      pop\n        /* \"#utility.yul\":10750:10843   */\n      tag_274\n        /* \"#utility.yul\":10839:10842   */\n      dup3\n        /* \"#utility.yul\":10750:10843   */\n      tag_154\n      jump\t// in\n    tag_274:\n        /* \"#utility.yul\":10868:10870   */\n      0x20\n        /* \"#utility.yul\":10863:10866   */\n      dup3\n        /* \"#utility.yul\":10859:10871   */\n      add\n        /* \"#utility.yul\":10852:10871   */\n      swap1\n      pop\n        /* \"#utility.yul\":10511:10877   */\n      swap2\n      swap1\n      pop\n      jump\t// out\n        /* \"#utility.yul\":10883:11302   */\n    tag_71:\n        /* \"#utility.yul\":11049:11053   */\n      0x00\n        /* \"#utility.yul\":11087:11089   */\n      0x20\n        /* \"#utility.yul\":11076:11085   */\n      dup3\n        /* \"#utility.yul\":11072:11090   */\n      add\n        /* \"#utility.yul\":11064:11090   */\n      swap1\n      pop\n        /* \"#utility.yul\":11136:11145   */\n      dup2\n        /* \"#utility.yul\":11130:11134   */\n      dup2\n        /* \"#utility.yul\":11126:11146   */\n      sub\n        /* \"#utility.yul\":11122:11123   */\n      0x00\n        /* \"#utility.yul\":11111:11120   */\n      dup4\n        /* \"#utility.yul\":11107:11124   */\n      add\n        /* \"#utility.yul\":11100:11147   */\n      mstore\n        /* \"#utility.yul\":11164:11295   */\n      tag_276\n        /* \"#utility.yul\":11290:11294   */\n      dup2\n        /* \"#utility.yul\":11164:11295   */\n      tag_155\n      jump\t// in\n    tag_276:\n        /* \"#utility.yul\":11156:11295   */\n      swap1\n      pop\n        /* \"#utility.yul\":10883:11302   */\n      swap2\n      swap1\n      pop\n      jump\t// out\n        /* \"#utility.yul\":11308:11472   */\n    tag_156:\n        /* \"#utility.yul\":11448:11464   */\n      0x616c7265616479206d696e746564000000000000000000000000000000000000\n        /* \"#utility.yul\":11444:11445   */\n      0x00\n        /* \"#utility.yul\":11436:11442   */\n      dup3\n        /* \"#utility.yul\":11432:11446   */\n      add\n        /* \"#utility.yul\":11425:11465   */\n      mstore\n        /* \"#utility.yul\":11308:11472   */\n      pop\n      jump\t// out\n        /* \"#utility.yul\":11478:11844   */\n    tag_157:\n        /* \"#utility.yul\":11620:11623   */\n      0x00\n        /* \"#utility.yul\":11641:11708   */\n      tag_279\n        /* \"#utility.yul\":11705:11707   */\n      0x0e\n        /* \"#utility.yul\":11700:11703   */\n      dup4\n        /* \"#utility.yul\":11641:11708   */\n      tag_140\n      jump\t// in\n    tag_279:\n        /* \"#utility.yul\":11634:11708   */\n      swap2\n      pop\n        /* \"#utility.yul\":11717:11810   */\n      tag_280\n        /* \"#utility.yul\":11806:11809   */\n      dup3\n        /* \"#utility.yul\":11717:11810   */\n      tag_156\n      jump\t// in\n    tag_280:\n        /* \"#utility.yul\":11835:11837   */\n      0x20\n        /* \"#utility.yul\":11830:11833   */\n      dup3\n        /* \"#utility.yul\":11826:11838   */\n      add\n        /* \"#utility.yul\":11819:11838   */\n      swap1\n      pop\n        /* \"#utility.yul\":11478:11844   */\n      swap2\n      swap1\n      pop\n      jump\t// out\n        /* \"#utility.yul\":11850:12269   */\n    tag_75:\n        /* \"#utility.yul\":12016:12020   */\n      0x00\n        /* \"#utility.yul\":12054:12056   */\n      0x20\n        /* \"#utility.yul\":12043:12052   */\n      dup3\n        /* \"#utility.yul\":12039:12057   */\n      add\n        /* \"#utility.yul\":12031:12057   */\n      swap1\n      pop\n        /* \"#utility.yul\":12103:12112   */\n      dup2\n        /* \"#utility.yul\":12097:12101   */\n      dup2\n        /* \"#utility.yul\":12093:12113   */\n      sub\n        /* \"#utility.yul\":12089:12090   */\n      0x00\n        /* \"#utility.yul\":12078:12087   */\n      dup4\n        /* \"#utility.yul\":12074:12091   */\n      add\n        /* \"#utility.yul\":12067:12114   */\n      mstore\n        /* \"#utility.yul\":12131:12262   */\n      tag_282\n        /* \"#utility.yul\":12257:12261   */\n      dup2\n        /* \"#utility.yul\":12131:12262   */\n      tag_157\n      jump\t// in\n    tag_282:\n        /* \"#utility.yul\":12123:12262   */\n      swap1\n      pop\n        /* \"#utility.yul\":11850:12269   */\n      swap2\n      swap1\n      pop\n      jump\t// out\n        /* \"#utility.yul\":12275:12443   */\n    tag_158:\n        /* \"#utility.yul\":12415:12435   */\n      0x5f746f6b656e496420746f6f206c617267650000000000000000000000000000\n        /* \"#utility.yul\":12411:12412   */\n      0x00\n        /* \"#utility.yul\":12403:12409   */\n      dup3\n        /* \"#utility.yul\":12399:12413   */\n      add\n        /* \"#utility.yul\":12392:12436   */\n      mstore\n        /* \"#utility.yul\":12275:12443   */\n      pop\n      jump\t// out\n        /* \"#utility.yul\":12449:12815   */\n    tag_159:\n        /* \"#utility.yul\":12591:12594   */\n      0x00\n        /* \"#utility.yul\":12612:12679   */\n      tag_285\n        /* \"#utility.yul\":12676:12678   */\n      0x12\n        /* \"#utility.yul\":12671:12674   */\n      dup4\n        /* \"#utility.yul\":12612:12679   */\n      tag_140\n      jump\t// in\n    tag_285:\n        /* \"#utility.yul\":12605:12679   */\n      swap2\n      pop\n        /* \"#utility.yul\":12688:12781   */\n      tag_286\n        /* \"#utility.yul\":12777:12780   */\n      dup3\n        /* \"#utility.yul\":12688:12781   */\n      tag_158\n      jump\t// in\n    tag_286:\n        /* \"#utility.yul\":12806:12808   */\n      0x20\n        /* \"#utility.yul\":12801:12804   */\n      dup3\n        /* \"#utility.yul\":12797:12809   */\n      add\n        /* \"#utility.yul\":12790:12809   */\n      swap1\n      pop\n        /* \"#utility.yul\":12449:12815   */\n      swap2\n      swap1\n      pop\n      jump\t// out\n        /* \"#utility.yul\":12821:13240   */\n    tag_78:\n        /* \"#utility.yul\":12987:12991   */\n      0x00\n        /* \"#utility.yul\":13025:13027   */\n      0x20\n        /* \"#utility.yul\":13014:13023   */\n      dup3\n        /* \"#utility.yul\":13010:13028   */\n      add\n        /* \"#utility.yul\":13002:13028   */\n      swap1\n      pop\n        /* \"#utility.yul\":13074:13083   */\n      dup2\n        /* \"#utility.yul\":13068:13072   */\n      dup2\n        /* \"#utility.yul\":13064:13084   */\n      sub\n        /* \"#utility.yul\":13060:13061   */\n      0x00\n        /* \"#utility.yul\":13049:13058   */\n      dup4\n        /* \"#utility.yul\":13045:13062   */\n      add\n        /* \"#utility.yul\":13038:13085   */\n      mstore\n        /* \"#utility.yul\":13102:13233   */\n      tag_288\n        /* \"#utility.yul\":13228:13232   */\n      dup2\n        /* \"#utility.yul\":13102:13233   */\n      tag_159\n      jump\t// in\n    tag_288:\n        /* \"#utility.yul\":13094:13233   */\n      swap1\n      pop\n        /* \"#utility.yul\":12821:13240   */\n      swap2\n      swap1\n      pop\n      jump\t// out\n        /* \"#utility.yul\":13246:13410   */\n    tag_160:\n        /* \"#utility.yul\":13386:13402   */\n      0x446f6573206e6f74206578697374000000000000000000000000000000000000\n        /* \"#utility.yul\":13382:13383   */\n      0x00\n        /* \"#utility.yul\":13374:13380   */\n      dup3\n        /* \"#utility.yul\":13370:13384   */\n      add\n        /* \"#utility.yul\":13363:13403   */\n      mstore\n        /* \"#utility.yul\":13246:13410   */\n      pop\n      jump\t// out\n        /* \"#utility.yul\":13416:13782   */\n    tag_161:\n        /* \"#utility.yul\":13558:13561   */\n      0x00\n        /* \"#utility.yul\":13579:13646   */\n      tag_291\n        /* \"#utility.yul\":13643:13645   */\n      0x0e\n        /* \"#utility.yul\":13638:13641   */\n      dup4\n        /* \"#utility.yul\":13579:13646   */\n      tag_140\n      jump\t// in\n    tag_291:\n        /* \"#utility.yul\":13572:13646   */\n      swap2\n      pop\n        /* \"#utility.yul\":13655:13748   */\n      tag_292\n        /* \"#utility.yul\":13744:13747   */\n      dup3\n        /* \"#utility.yul\":13655:13748   */\n      tag_160\n      jump\t// in\n    tag_292:\n        /* \"#utility.yul\":13773:13775   */\n      0x20\n        /* \"#utility.yul\":13768:13771   */\n      dup3\n        /* \"#utility.yul\":13764:13776   */\n      add\n        /* \"#utility.yul\":13757:13776   */\n      swap1\n      pop\n        /* \"#utility.yul\":13416:13782   */\n      swap2\n      swap1\n      pop\n      jump\t// out\n        /* \"#utility.yul\":13788:14207   */\n    tag_85:\n        /* \"#utility.yul\":13954:13958   */\n      0x00\n        /* \"#utility.yul\":13992:13994   */\n      0x20\n        /* \"#utility.yul\":13981:13990   */\n      dup3\n        /* \"#utility.yul\":13977:13995   */\n      add\n        /* \"#utility.yul\":13969:13995   */\n      swap1\n      pop\n        /* \"#utility.yul\":14041:14050   */\n      dup2\n        /* \"#utility.yul\":14035:14039   */\n      dup2\n        /* \"#utility.yul\":14031:14051   */\n      sub\n        /* \"#utility.yul\":14027:14028   */\n      0x00\n        /* \"#utility.yul\":14016:14025   */\n      dup4\n        /* \"#utility.yul\":14012:14029   */\n      add\n        /* \"#utility.yul\":14005:14052   */\n      mstore\n        /* \"#utility.yul\":14069:14200   */\n      tag_294\n        /* \"#utility.yul\":14195:14199   */\n      dup2\n        /* \"#utility.yul\":14069:14200   */\n      tag_161\n      jump\t// in\n    tag_294:\n        /* \"#utility.yul\":14061:14200   */\n      swap1\n      pop\n        /* \"#utility.yul\":13788:14207   */\n      swap2\n      swap1\n      pop\n      jump\t// out\n        /* \"#utility.yul\":14213:14393   */\n    tag_162:\n        /* \"#utility.yul\":14261:14338   */\n      0x4e487b7100000000000000000000000000000000000000000000000000000000\n        /* \"#utility.yul\":14258:14259   */\n      0x00\n        /* \"#utility.yul\":14251:14339   */\n      mstore\n        /* \"#utility.yul\":14358:14362   */\n      0x22\n        /* \"#utility.yul\":14355:14356   */\n      0x04\n        /* \"#utility.yul\":14348:14363   */\n      mstore\n        /* \"#utility.yul\":14382:14386   */\n      0x24\n        /* \"#utility.yul\":14379:14380   */\n      0x00\n        /* \"#utility.yul\":14372:14387   */\n      revert\n        /* \"#utility.yul\":14399:14719   */\n    tag_163:\n        /* \"#utility.yul\":14443:14449   */\n      0x00\n        /* \"#utility.yul\":14480:14481   */\n      0x02\n        /* \"#utility.yul\":14474:14478   */\n      dup3\n        /* \"#utility.yul\":14470:14482   */\n      div\n        /* \"#utility.yul\":14460:14482   */\n      swap1\n      pop\n        /* \"#utility.yul\":14527:14528   */\n      0x01\n        /* \"#utility.yul\":14521:14525   */\n      dup3\n        /* \"#utility.yul\":14517:14529   */\n      and\n        /* \"#utility.yul\":14548:14566   */\n      dup1\n        /* \"#utility.yul\":14538:14619   */\n      tag_297\n      jumpi\n        /* \"#utility.yul\":14604:14608   */\n      0x7f\n        /* \"#utility.yul\":14596:14602   */\n      dup3\n        /* \"#utility.yul\":14592:14609   */\n      and\n        /* \"#utility.yul\":14582:14609   */\n      swap2\n      pop\n        /* \"#utility.yul\":14538:14619   */\n    tag_297:\n        /* \"#utility.yul\":14666:14668   */\n      0x20\n        /* \"#utility.yul\":14658:14664   */\n      dup3\n        /* \"#utility.yul\":14655:14669   */\n      lt\n        /* \"#utility.yul\":14635:14653   */\n      dup2\n        /* \"#utility.yul\":14632:14670   */\n      sub\n        /* \"#utility.yul\":14629:14713   */\n      tag_298\n      jumpi\n        /* \"#utility.yul\":14685:14703   */\n      tag_299\n      tag_162\n      jump\t// in\n    tag_299:\n        /* \"#utility.yul\":14629:14713   */\n    tag_298:\n        /* \"#utility.yul\":14450:14719   */\n      pop\n        /* \"#utility.yul\":14399:14719   */\n      swap2\n      swap1\n      pop\n      jump\t// out\n        /* \"#utility.yul\":14725:14873   */\n    tag_164:\n        /* \"#utility.yul\":14827:14838   */\n      0x00\n        /* \"#utility.yul\":14864:14867   */\n      dup2\n        /* \"#utility.yul\":14849:14867   */\n      swap1\n      pop\n        /* \"#utility.yul\":14725:14873   */\n      swap3\n      swap2\n      pop\n      pop\n      jump\t// out\n        /* \"#utility.yul\":14879:15020   */\n    tag_165:\n        /* \"#utility.yul\":14928:14932   */\n      0x00\n        /* \"#utility.yul\":14951:14954   */\n      dup2\n        /* \"#utility.yul\":14943:14954   */\n      swap1\n      pop\n        /* \"#utility.yul\":14974:14977   */\n      dup2\n        /* \"#utility.yul\":14971:14972   */\n      0x00\n        /* \"#utility.yul\":14964:14978   */\n      mstore\n        /* \"#utility.yul\":15008:15012   */\n      0x20\n        /* \"#utility.yul\":15005:15006   */\n      0x00\n        /* \"#utility.yul\":14995:15013   */\n      keccak256\n        /* \"#utility.yul\":14987:15013   */\n      swap1\n      pop\n        /* \"#utility.yul\":14879:15020   */\n      swap2\n      swap1\n      pop\n      jump\t// out\n        /* \"#utility.yul\":15050:15924   */\n    tag_166:\n        /* \"#utility.yul\":15153:15156   */\n      0x00\n        /* \"#utility.yul\":15190:15195   */\n      dup2\n        /* \"#utility.yul\":15184:15196   */\n      sload\n        /* \"#utility.yul\":15219:15255   */\n      tag_303\n        /* \"#utility.yul\":15245:15254   */\n      dup2\n        /* \"#utility.yul\":15219:15255   */\n      tag_163\n      jump\t// in\n    tag_303:\n        /* \"#utility.yul\":15271:15360   */\n      tag_304\n        /* \"#utility.yul\":15353:15359   */\n      dup2\n        /* \"#utility.yul\":15348:15351   */\n      dup7\n        /* \"#utility.yul\":15271:15360   */\n      tag_164\n      jump\t// in\n    tag_304:\n        /* \"#utility.yul\":15264:15360   */\n      swap5\n      pop\n        /* \"#utility.yul\":15391:15392   */\n      0x01\n        /* \"#utility.yul\":15380:15389   */\n      dup3\n        /* \"#utility.yul\":15376:15393   */\n      and\n        /* \"#utility.yul\":15407:15408   */\n      0x00\n        /* \"#utility.yul\":15402:15568   */\n      dup2\n      eq\n      tag_306\n      jumpi\n        /* \"#utility.yul\":15582:15583   */\n      0x01\n        /* \"#utility.yul\":15577:15918   */\n      dup2\n      eq\n      tag_307\n      jumpi\n        /* \"#utility.yul\":15369:15918   */\n      jump(tag_305)\n        /* \"#utility.yul\":15402:15568   */\n    tag_306:\n        /* \"#utility.yul\":15486:15490   */\n      0xff\n        /* \"#utility.yul\":15482:15491   */\n      not\n        /* \"#utility.yul\":15471:15480   */\n      dup4\n        /* \"#utility.yul\":15467:15492   */\n      and\n        /* \"#utility.yul\":15462:15465   */\n      dup7\n        /* \"#utility.yul\":15455:15493   */\n      mstore\n        /* \"#utility.yul\":15548:15554   */\n      dup2\n        /* \"#utility.yul\":15541:15555   */\n      iszero\n        /* \"#utility.yul\":15534:15556   */\n      iszero\n        /* \"#utility.yul\":15526:15532   */\n      dup3\n        /* \"#utility.yul\":15522:15557   */\n      mul\n        /* \"#utility.yul\":15517:15520   */\n      dup7\n        /* \"#utility.yul\":15513:15558   */\n      add\n        /* \"#utility.yul\":15506:15558   */\n      swap4\n      pop\n        /* \"#utility.yul\":15402:15568   */\n      jump(tag_305)\n        /* \"#utility.yul\":15577:15918   */\n    tag_307:\n        /* \"#utility.yul\":15644:15682   */\n      tag_308\n        /* \"#utility.yul\":15676:15681   */\n      dup6\n        /* \"#utility.yul\":15644:15682   */\n      tag_165\n      jump\t// in\n    tag_308:\n        /* \"#utility.yul\":15704:15705   */\n      0x00\n        /* \"#utility.yul\":15718:15872   */\n    tag_309:\n        /* \"#utility.yul\":15732:15738   */\n      dup4\n        /* \"#utility.yul\":15729:15730   */\n      dup2\n        /* \"#utility.yul\":15726:15739   */\n      lt\n        /* \"#utility.yul\":15718:15872   */\n      iszero\n      tag_311\n      jumpi\n        /* \"#utility.yul\":15806:15813   */\n      dup2\n        /* \"#utility.yul\":15800:15814   */\n      sload\n        /* \"#utility.yul\":15796:15797   */\n      dup2\n        /* \"#utility.yul\":15791:15794   */\n      dup10\n        /* \"#utility.yul\":15787:15798   */\n      add\n        /* \"#utility.yul\":15780:15815   */\n      mstore\n        /* \"#utility.yul\":15856:15857   */\n      0x01\n        /* \"#utility.yul\":15847:15854   */\n      dup3\n        /* \"#utility.yul\":15843:15858   */\n      add\n        /* \"#utility.yul\":15832:15858   */\n      swap2\n      pop\n        /* \"#utility.yul\":15754:15758   */\n      0x20\n        /* \"#utility.yul\":15751:15752   */\n      dup2\n        /* \"#utility.yul\":15747:15759   */\n      add\n        /* \"#utility.yul\":15742:15759   */\n      swap1\n      pop\n        /* \"#utility.yul\":15718:15872   */\n      jump(tag_309)\n    tag_311:\n        /* \"#utility.yul\":15901:15907   */\n      dup4\n        /* \"#utility.yul\":15896:15899   */\n      dup9\n        /* \"#utility.yul\":15892:15908   */\n      add\n        /* \"#utility.yul\":15885:15908   */\n      swap6\n      pop\n        /* \"#utility.yul\":15584:15918   */\n      pop\n      pop\n        /* \"#utility.yul\":15369:15918   */\n    tag_305:\n      pop\n        /* \"#utility.yul\":15157:15924   */\n      pop\n      pop\n        /* \"#utility.yul\":15050:15924   */\n      swap3\n      swap2\n      pop\n      pop\n      jump\t// out\n        /* \"#utility.yul\":15930:16320   */\n    tag_167:\n        /* \"#utility.yul\":16036:16039   */\n      0x00\n        /* \"#utility.yul\":16064:16103   */\n      tag_313\n        /* \"#utility.yul\":16097:16102   */\n      dup3\n        /* \"#utility.yul\":16064:16103   */\n      tag_139\n      jump\t// in\n    tag_313:\n        /* \"#utility.yul\":16119:16208   */\n      tag_314\n        /* \"#utility.yul\":16201:16207   */\n      dup2\n        /* \"#utility.yul\":16196:16199   */\n      dup6\n        /* \"#utility.yul\":16119:16208   */\n      tag_164\n      jump\t// in\n    tag_314:\n        /* \"#utility.yul\":16112:16208   */\n      swap4\n      pop\n        /* \"#utility.yul\":16217:16282   */\n      tag_315\n        /* \"#utility.yul\":16275:16281   */\n      dup2\n        /* \"#utility.yul\":16270:16273   */\n      dup6\n        /* \"#utility.yul\":16263:16267   */\n      0x20\n        /* \"#utility.yul\":16256:16261   */\n      dup7\n        /* \"#utility.yul\":16252:16268   */\n      add\n        /* \"#utility.yul\":16217:16282   */\n      tag_141\n      jump\t// in\n    tag_315:\n        /* \"#utility.yul\":16307:16313   */\n      dup1\n        /* \"#utility.yul\":16302:16305   */\n      dup5\n        /* \"#utility.yul\":16298:16314   */\n      add\n        /* \"#utility.yul\":16291:16314   */\n      swap2\n      pop\n        /* \"#utility.yul\":16040:16320   */\n      pop\n        /* \"#utility.yul\":15930:16320   */\n      swap3\n      swap2\n      pop\n      pop\n      jump\t// out\n        /* \"#utility.yul\":16326:16480   */\n    tag_168:\n        /* \"#utility.yul\":16466:16472   */\n      0x2e706e6700000000000000000000000000000000000000000000000000000000\n        /* \"#utility.yul\":16462:16463   */\n      0x00\n        /* \"#utility.yul\":16454:16460   */\n      dup3\n        /* \"#utility.yul\":16450:16464   */\n      add\n        /* \"#utility.yul\":16443:16473   */\n      mstore\n        /* \"#utility.yul\":16326:16480   */\n      pop\n      jump\t// out\n        /* \"#utility.yul\":16486:16886   */\n    tag_169:\n        /* \"#utility.yul\":16646:16649   */\n      0x00\n        /* \"#utility.yul\":16667:16751   */\n      tag_318\n        /* \"#utility.yul\":16749:16750   */\n      0x04\n        /* \"#utility.yul\":16744:16747   */\n      dup4\n        /* \"#utility.yul\":16667:16751   */\n      tag_164\n      jump\t// in\n    tag_318:\n        /* \"#utility.yul\":16660:16751   */\n      swap2\n      pop\n        /* \"#utility.yul\":16760:16853   */\n      tag_319\n        /* \"#utility.yul\":16849:16852   */\n      dup3\n        /* \"#utility.yul\":16760:16853   */\n      tag_168\n      jump\t// in\n    tag_319:\n        /* \"#utility.yul\":16878:16879   */\n      0x04\n        /* \"#utility.yul\":16873:16876   */\n      dup3\n        /* \"#utility.yul\":16869:16880   */\n      add\n        /* \"#utility.yul\":16862:16880   */\n      swap1\n      pop\n        /* \"#utility.yul\":16486:16886   */\n      swap2\n      swap1\n      pop\n      jump\t// out\n        /* \"#utility.yul\":16892:17587   */\n    tag_89:\n        /* \"#utility.yul\":17170:17173   */\n      0x00\n        /* \"#utility.yul\":17192:17284   */\n      tag_321\n        /* \"#utility.yul\":17280:17283   */\n      dup3\n        /* \"#utility.yul\":17271:17277   */\n      dup6\n        /* \"#utility.yul\":17192:17284   */\n      tag_166\n      jump\t// in\n    tag_321:\n        /* \"#utility.yul\":17185:17284   */\n      swap2\n      pop\n        /* \"#utility.yul\":17301:17396   */\n      tag_322\n        /* \"#utility.yul\":17392:17395   */\n      dup3\n        /* \"#utility.yul\":17383:17389   */\n      dup5\n        /* \"#utility.yul\":17301:17396   */\n      tag_167\n      jump\t// in\n    tag_322:\n        /* \"#utility.yul\":17294:17396   */\n      swap2\n      pop\n        /* \"#utility.yul\":17413:17561   */\n      tag_323\n        /* \"#utility.yul\":17557:17560   */\n      dup3\n        /* \"#utility.yul\":17413:17561   */\n      tag_169\n      jump\t// in\n    tag_323:\n        /* \"#utility.yul\":17406:17561   */\n      swap2\n      pop\n        /* \"#utility.yul\":17578:17581   */\n      dup2\n        /* \"#utility.yul\":17571:17581   */\n      swap1\n      pop\n        /* \"#utility.yul\":16892:17587   */\n      swap4\n      swap3\n      pop\n      pop\n      pop\n      jump\t// out\n        /* \"#utility.yul\":17593:17773   */\n    tag_96:\n        /* \"#utility.yul\":17641:17718   */\n      0x4e487b7100000000000000000000000000000000000000000000000000000000\n        /* \"#utility.yul\":17638:17639   */\n      0x00\n        /* \"#utility.yul\":17631:17719   */\n      mstore\n        /* \"#utility.yul\":17738:17742   */\n      0x41\n        /* \"#utility.yul\":17735:17736   */\n      0x04\n        /* \"#utility.yul\":17728:17743   */\n      mstore\n        /* \"#utility.yul\":17762:17766   */\n      0x24\n        /* \"#utility.yul\":17759:17760   */\n      0x00\n        /* \"#utility.yul\":17752:17767   */\n      revert\n        /* \"#utility.yul\":17779:17959   */\n    tag_102:\n        /* \"#utility.yul\":17827:17904   */\n      0x4e487b7100000000000000000000000000000000000000000000000000000000\n        /* \"#utility.yul\":17824:17825   */\n      0x00\n        /* \"#utility.yul\":17817:17905   */\n      mstore\n        /* \"#utility.yul\":17924:17928   */\n      0x12\n        /* \"#utility.yul\":17921:17922   */\n      0x04\n        /* \"#utility.yul\":17914:17929   */\n      mstore\n        /* \"#utility.yul\":17948:17952   */\n      0x24\n        /* \"#utility.yul\":17945:17946   */\n      0x00\n        /* \"#utility.yul\":17938:17953   */\n      revert\n\n    auxdata: 0xa2646970667358221220f09c5e82d3b766225276b02ac2b6bd54d5d9d6084b1f0b3703357ff0de73dd0264736f6c634300081a0033\n}\n",
				"bytecode": {
					"linkReferences": {},
					"object": "60806040526040518060800160405280604981526020016119d4604991396003908161002b9190610277565b50348015610037575f80fd5b50610346565b5f81519050919050565b7f4e487b71000000000000000000000000000000000000000000000000000000005f52604160045260245ffd5b7f4e487b71000000000000000000000000000000000000000000000000000000005f52602260045260245ffd5b5f60028204905060018216806100b857607f821691505b6020821081036100cb576100ca610074565b5b50919050565b5f819050815f5260205f209050919050565b5f6020601f8301049050919050565b5f82821b905092915050565b5f6008830261012d7fffffffffffffffffffffffffffffffffffffffffffffffffffffffffffffffff826100f2565b61013786836100f2565b95508019841693508086168417925050509392505050565b5f819050919050565b5f819050919050565b5f61017b6101766101718461014f565b610158565b61014f565b9050919050565b5f819050919050565b61019483610161565b6101a86101a082610182565b8484546100fe565b825550505050565b5f90565b6101bc6101b0565b6101c781848461018b565b505050565b5b818110156101ea576101df5f826101b4565b6001810190506101cd565b5050565b601f82111561022f57610200816100d1565b610209846100e3565b81016020851015610218578190505b61022c610224856100e3565b8301826101cc565b50505b505050565b5f82821c905092915050565b5f61024f5f1984600802610234565b1980831691505092915050565b5f6102678383610240565b9150826002028217905092915050565b6102808261003d565b67ffffffffffffffff81111561029957610298610047565b5b6102a382546100a1565b6102ae8282856101ee565b5f60209050601f8311600181146102df575f84156102cd578287015190505b6102d7858261025c565b86555061033e565b601f1984166102ed866100d1565b5f5b82811015610314578489015182556001820191506020850194506020810190506102ef565b86831015610331578489015161032d601f891682610240565b8355505b6001600288020188555050505b505050505050565b611681806103535f395ff3fe60806040526004361061006f575f3560e01c8063a0712d681161004d578063a0712d6814610107578063a22cb4651461012f578063c87b56dd14610157578063ebd1d359146101935761006f565b806323b872dd146100735780636352211e1461008f57806370a08231146100cb575b5f80fd5b61008d60048036038101906100889190610e51565b6101cf565b005b34801561009a575f80fd5b506100b560048036038101906100b09190610ea1565b6105e6565b6040516100c29190610edb565b60405180910390f35b3480156100d6575f80fd5b506100f160048036038101906100ec9190610ef4565b6106bb565b6040516100fe9190610f2e565b60405180910390f35b348015610112575f80fd5b5061012d60048036038101906101289190610ea1565b61076f565b005b34801561013a575f80fd5b5061015560048036038101906101509190610f7c565b61094e565b005b348015610162575f80fd5b5061017d60048036038101906101789190610ea1565b610a46565b60405161018a919061102a565b60405180910390f35b34801561019e575f80fd5b506101b960048036038101906101b4919061104a565b610b17565b6040516101c69190611097565b60405180910390f35b5f73ffffffffffffffffffffffffffffffffffffffff165f808381526020019081526020015f205f9054906101000a900473ffffffffffffffffffffffffffffffffffffffff1673ffffffffffffffffffffffffffffffffffffffff160361026c576040517f08c379a0000000000000000000000000000000000000000000000000000000008152600401610263906110fa565b60405180910390fd5b8273ffffffffffffffffffffffffffffffffffffffff165f808381526020019081526020015f205f9054906101000a900473ffffffffffffffffffffffffffffffffffffffff1673ffffffffffffffffffffffffffffffffffffffff1614610309576040517f08c379a000000000000000000000000000000000000000000000000000000000815260040161030090611162565b60405180910390fd5b8273ffffffffffffffffffffffffffffffffffffffff163373ffffffffffffffffffffffffffffffffffffffff1614806103c4575060025f8473ffffffffffffffffffffffffffffffffffffffff1673ffffffffffffffffffffffffffffffffffffffff1681526020019081526020015f205f3373ffffffffffffffffffffffffffffffffffffffff1673ffffffffffffffffffffffffffffffffffffffff1681526020019081526020015f205f9054906101000a900460ff165b610403576040517f08c379a00000000000000000000000000000000000000000000000000000000081526004016103fa906111ca565b60405180910390fd5b808273ffffffffffffffffffffffffffffffffffffffff168473ffffffffffffffffffffffffffffffffffffffff167fddf252ad1be2c89b69c2b068fc378daa952ba7f163c4a11628f55a4df523b3ef60405160405180910390a45f60025f8573ffffffffffffffffffffffffffffffffffffffff1673ffffffffffffffffffffffffffffffffffffffff1681526020019081526020015f205f3373ffffffffffffffffffffffffffffffffffffffff1673ffffffffffffffffffffffffffffffffffffffff1681526020019081526020015f205f6101000a81548160ff021916908315150217905550815f808381526020019081526020015f205f6101000a81548173ffffffffffffffffffffffffffffffffffffffff021916908373ffffffffffffffffffffffffffffffffffffffff1602179055506001805f8573ffffffffffffffffffffffffffffffffffffffff1673ffffffffffffffffffffffffffffffffffffffff1681526020019081526020015f205f8282546105879190611215565b925050819055506001805f8473ffffffffffffffffffffffffffffffffffffffff1673ffffffffffffffffffffffffffffffffffffffff1681526020019081526020015f205f8282546105da9190611215565b92505081905550505050565b5f8073ffffffffffffffffffffffffffffffffffffffff165f808481526020019081526020015f205f9054906101000a900473ffffffffffffffffffffffffffffffffffffffff1673ffffffffffffffffffffffffffffffffffffffff1603610684576040517f08c379a000000000000000000000000000000000000000000000000000000000815260040161067b90611292565b60405180910390fd5b5f808381526020019081526020015f205f9054906101000a900473ffffffffffffffffffffffffffffffffffffffff169050919050565b5f8073ffffffffffffffffffffffffffffffffffffffff168273ffffffffffffffffffffffffffffffffffffffff160361072a576040517f08c379a0000000000000000000000000000000000000000000000000000000008152600401610721906112fa565b60405180910390fd5b60015f8373ffffffffffffffffffffffffffffffffffffffff1673ffffffffffffffffffffffffffffffffffffffff1681526020019081526020015f20549050919050565b5f73ffffffffffffffffffffffffffffffffffffffff165f808381526020019081526020015f205f9054906101000a900473ffffffffffffffffffffffffffffffffffffffff1673ffffffffffffffffffffffffffffffffffffffff160361080c576040517f08c379a000000000000000000000000000000000000000000000000000000000815260040161080390611362565b60405180910390fd5b6064811061084f576040517f08c379a0000000000000000000000000000000000000000000000000000000008152600401610846906113ca565b60405180910390fd5b803373ffffffffffffffffffffffffffffffffffffffff165f73ffffffffffffffffffffffffffffffffffffffff167fddf252ad1be2c89b69c2b068fc378daa952ba7f163c4a11628f55a4df523b3ef60405160405180910390a4335f808381526020019081526020015f205f6101000a81548173ffffffffffffffffffffffffffffffffffffffff021916908373ffffffffffffffffffffffffffffffffffffffff1602179055506001805f3373ffffffffffffffffffffffffffffffffffffffff1673ffffffffffffffffffffffffffffffffffffffff1681526020019081526020015f205f8282546109449190611215565b9250508190555050565b8060025f3373ffffffffffffffffffffffffffffffffffffffff1673ffffffffffffffffffffffffffffffffffffffff1681526020019081526020015f205f8473ffffffffffffffffffffffffffffffffffffffff1673ffffffffffffffffffffffffffffffffffffffff1681526020019081526020015f205f6101000a81548160ff0219169083151502179055508173ffffffffffffffffffffffffffffffffffffffff163373ffffffffffffffffffffffffffffffffffffffff167f17307eab39ab6107e8899845ad3d59bd9653f200f220920489ca2b5937696c3183604051610a3a9190611097565b60405180910390a35050565b60605f73ffffffffffffffffffffffffffffffffffffffff165f808481526020019081526020015f205f9054906101000a900473ffffffffffffffffffffffffffffffffffffffff1673ffffffffffffffffffffffffffffffffffffffff1603610ae5576040517f08c379a0000000000000000000000000000000000000000000000000000000008152600401610adc90611432565b60405180910390fd5b6003610af083610ba5565b604051602001610b019291906115c3565b6040516020818303038152906040529050919050565b5f60025f8473ffffffffffffffffffffffffffffffffffffffff1673ffffffffffffffffffffffffffffffffffffffff1681526020019081526020015f205f8373ffffffffffffffffffffffffffffffffffffffff1673ffffffffffffffffffffffffffffffffffffffff1681526020019081526020015f205f9054906101000a900460ff16905092915050565b60605f6001610bb384610c6f565b0190505f8167ffffffffffffffff811115610bd157610bd06115f1565b5b6040519080825280601f01601f191660200182016040528015610c035781602001600182028036833780820191505090505b5090505f82602001820190505b600115610c64578080600190039150507f3031323334353637383961626364656600000000000000000000000000000000600a86061a8153600a8581610c5957610c5861161e565b5b0494505f8503610c10575b819350505050919050565b5f805f90507a184f03e93ff9f4daa797ed6e38ed64bf6a1f0100000000000000008310610ccb577a184f03e93ff9f4daa797ed6e38ed64bf6a1f0100000000000000008381610cc157610cc061161e565b5b0492506040810190505b6d04ee2d6d415b85acef81000000008310610d08576d04ee2d6d415b85acef81000000008381610cfe57610cfd61161e565b5b0492506020810190505b662386f26fc100008310610d3757662386f26fc100008381610d2d57610d2c61161e565b5b0492506010810190505b6305f5e1008310610d60576305f5e1008381610d5657610d5561161e565b5b0492506008810190505b6127108310610d85576127108381610d7b57610d7a61161e565b5b0492506004810190505b60648310610da85760648381610d9e57610d9d61161e565b5b0492506002810190505b600a8310610db7576001810190505b80915050919050565b5f80fd5b5f73ffffffffffffffffffffffffffffffffffffffff82169050919050565b5f610ded82610dc4565b9050919050565b610dfd81610de3565b8114610e07575f80fd5b50565b5f81359050610e1881610df4565b92915050565b5f819050919050565b610e3081610e1e565b8114610e3a575f80fd5b50565b5f81359050610e4b81610e27565b92915050565b5f805f60608486031215610e6857610e67610dc0565b5b5f610e7586828701610e0a565b9350506020610e8686828701610e0a565b9250506040610e9786828701610e3d565b9150509250925092565b5f60208284031215610eb657610eb5610dc0565b5b5f610ec384828501610e3d565b91505092915050565b610ed581610de3565b82525050565b5f602082019050610eee5f830184610ecc565b92915050565b5f60208284031215610f0957610f08610dc0565b5b5f610f1684828501610e0a565b91505092915050565b610f2881610e1e565b82525050565b5f602082019050610f415f830184610f1f565b92915050565b5f8115159050919050565b610f5b81610f47565b8114610f65575f80fd5b50565b5f81359050610f7681610f52565b92915050565b5f8060408385031215610f9257610f91610dc0565b5b5f610f9f85828601610e0a565b9250506020610fb085828601610f68565b9150509250929050565b5f81519050919050565b5f82825260208201905092915050565b8281835e5f83830152505050565b5f601f19601f8301169050919050565b5f610ffc82610fba565b6110068185610fc4565b9350611016818560208601610fd4565b61101f81610fe2565b840191505092915050565b5f6020820190508181035f8301526110428184610ff2565b905092915050565b5f80604083850312156110605761105f610dc0565b5b5f61106d85828601610e0a565b925050602061107e85828601610e0a565b9150509250929050565b61109181610f47565b82525050565b5f6020820190506110aa5f830184611088565b92915050565b7f746f6b656e20646f6573206e6f742065786973747300000000000000000000005f82015250565b5f6110e4601583610fc4565b91506110ef826110b0565b602082019050919050565b5f6020820190508181035f830152611111816110d8565b9050919050565b7f63616e6e6f74207472616e736665722066726f6d2000000000000000000000005f82015250565b5f61114c601583610fc4565b915061115782611118565b602082019050919050565b5f6020820190508181035f83015261117981611140565b9050919050565b7f726571756972656420746f206265206f776e65720000000000000000000000005f82015250565b5f6111b4601483610fc4565b91506111bf82611180565b602082019050919050565b5f6020820190508181035f8301526111e1816111a8565b9050919050565b7f4e487b71000000000000000000000000000000000000000000000000000000005f52601160045260245ffd5b5f61121f82610e1e565b915061122a83610e1e565b9250828201905080821115611242576112416111e8565b5b92915050565b7f6e6f207375636820746f6b656e000000000000000000000000000000000000005f82015250565b5f61127c600d83610fc4565b915061128782611248565b602082019050919050565b5f6020820190508181035f8301526112a981611270565b9050919050565b7f7a65726f206164647265737300000000000000000000000000000000000000005f82015250565b5f6112e4600c83610fc4565b91506112ef826112b0565b602082019050919050565b5f6020820190508181035f830152611311816112d8565b9050919050565b7f616c7265616479206d696e7465640000000000000000000000000000000000005f82015250565b5f61134c600e83610fc4565b915061135782611318565b602082019050919050565b5f6020820190508181035f83015261137981611340565b9050919050565b7f5f746f6b656e496420746f6f206c6172676500000000000000000000000000005f82015250565b5f6113b4601283610fc4565b91506113bf82611380565b602082019050919050565b5f6020820190508181035f8301526113e1816113a8565b9050919050565b7f446f6573206e6f742065786973740000000000000000000000000000000000005f82015250565b5f61141c600e83610fc4565b9150611427826113e8565b602082019050919050565b5f6020820190508181035f83015261144981611410565b9050919050565b7f4e487b71000000000000000000000000000000000000000000000000000000005f52602260045260245ffd5b5f600282049050600182168061149457607f821691505b6020821081036114a7576114a6611450565b5b50919050565b5f81905092915050565b5f819050815f5260205f209050919050565b5f81546114d58161147d565b6114df81866114ad565b9450600182165f81146114f9576001811461150e57611540565b60ff1983168652811515820286019350611540565b611517856114b7565b5f5b8381101561153857815481890152600182019150602081019050611519565b838801955050505b50505092915050565b5f61155382610fba565b61155d81856114ad565b935061156d818560208601610fd4565b80840191505092915050565b7f2e706e67000000000000000000000000000000000000000000000000000000005f82015250565b5f6115ad6004836114ad565b91506115b882611579565b600482019050919050565b5f6115ce82856114c9565b91506115da8284611549565b91506115e5826115a1565b91508190509392505050565b7f4e487b71000000000000000000000000000000000000000000000000000000005f52604160045260245ffd5b7f4e487b71000000000000000000000000000000000000000000000000000000005f52601260045260245ffdfea2646970667358221220f09c5e82d3b766225276b02ac2b6bd54d5d9d6084b1f0b3703357ff0de73dd0264736f6c634300081a0033697066732e696f2f697066732f6261667962656968367675326a7067646a6f66633475636e6f656d7173356a766136327168643562663435323669643733346736636f34616479752f",
					"opcodes": "PUSH1 0x80 PUSH1 0x40 MSTORE PUSH1 0x40 MLOAD DUP1 PUSH1 0x80 ADD PUSH1 0x40 MSTORE DUP1 PUSH1 0x49 DUP2 MSTORE PUSH1 0x20 ADD PUSH2 0x19D4 PUSH1 0x49 SWAP2 CODECOPY PUSH1 0x3 SWAP1 DUP2 PUSH2 0x2B SWAP2 SWAP1 PUSH2 0x277 JUMP JUMPDEST POP CALLVALUE DUP1 ISZERO PUSH2 0x37 JUMPI PUSH0 DUP1 REVERT JUMPDEST POP PUSH2 0x346 JUMP JUMPDEST PUSH0 DUP2 MLOAD SWAP1 POP SWAP2 SWAP1 POP JUMP JUMPDEST PUSH32 0x4E487B7100000000000000000000000000000000000000000000000000000000 PUSH0 MSTORE PUSH1 0x41 PUSH1 0x4 MSTORE PUSH1 0x24 PUSH0 REVERT JUMPDEST PUSH32 0x4E487B7100000000000000000000000000000000000000000000000000000000 PUSH0 MSTORE PUSH1 0x22 PUSH1 0x4 MSTORE PUSH1 0x24 PUSH0 REVERT JUMPDEST PUSH0 PUSH1 0x2 DUP3 DIV SWAP1 POP PUSH1 0x1 DUP3 AND DUP1 PUSH2 0xB8 JUMPI PUSH1 0x7F DUP3 AND SWAP2 POP JUMPDEST PUSH1 0x20 DUP3 LT DUP2 SUB PUSH2 0xCB JUMPI PUSH2 0xCA PUSH2 0x74 JUMP JUMPDEST JUMPDEST POP SWAP2 SWAP1 POP JUMP JUMPDEST PUSH0 DUP2 SWAP1 POP DUP2 PUSH0 MSTORE PUSH1 0x20 PUSH0 KECCAK256 SWAP1 POP SWAP2 SWAP1 POP JUMP JUMPDEST PUSH0 PUSH1 0x20 PUSH1 0x1F DUP4 ADD DIV SWAP1 POP SWAP2 SWAP1 POP JUMP JUMPDEST PUSH0 DUP3 DUP3 SHL SWAP1 POP SWAP3 SWAP2 POP POP JUMP JUMPDEST PUSH0 PUSH1 0x8 DUP4 MUL PUSH2 0x12D PUSH32 0xFFFFFFFFFFFFFFFFFFFFFFFFFFFFFFFFFFFFFFFFFFFFFFFFFFFFFFFFFFFFFFFF DUP3 PUSH2 0xF2 JUMP JUMPDEST PUSH2 0x137 DUP7 DUP4 PUSH2 0xF2 JUMP JUMPDEST SWAP6 POP DUP1 NOT DUP5 AND SWAP4 POP DUP1 DUP7 AND DUP5 OR SWAP3 POP POP POP SWAP4 SWAP3 POP POP POP JUMP JUMPDEST PUSH0 DUP2 SWAP1 POP SWAP2 SWAP1 POP JUMP JUMPDEST PUSH0 DUP2 SWAP1 POP SWAP2 SWAP1 POP JUMP JUMPDEST PUSH0 PUSH2 0x17B PUSH2 0x176 PUSH2 0x171 DUP5 PUSH2 0x14F JUMP JUMPDEST PUSH2 0x158 JUMP JUMPDEST PUSH2 0x14F JUMP JUMPDEST SWAP1 POP SWAP2 SWAP1 POP JUMP JUMPDEST PUSH0 DUP2 SWAP1 POP SWAP2 SWAP1 POP JUMP JUMPDEST PUSH2 0x194 DUP4 PUSH2 0x161 JUMP JUMPDEST PUSH2 0x1A8 PUSH2 0x1A0 DUP3 PUSH2 0x182 JUMP JUMPDEST DUP5 DUP5 SLOAD PUSH2 0xFE JUMP JUMPDEST DUP3 SSTORE POP POP POP POP JUMP JUMPDEST PUSH0 SWAP1 JUMP JUMPDEST PUSH2 0x1BC PUSH2 0x1B0 JUMP JUMPDEST PUSH2 0x1C7 DUP2 DUP5 DUP5 PUSH2 0x18B JUMP JUMPDEST POP POP POP JUMP JUMPDEST JUMPDEST DUP2 DUP2 LT ISZERO PUSH2 0x1EA JUMPI PUSH2 0x1DF PUSH0 DUP3 PUSH2 0x1B4 JUMP JUMPDEST PUSH1 0x1 DUP2 ADD SWAP1 POP PUSH2 0x1CD JUMP JUMPDEST POP POP JUMP JUMPDEST PUSH1 0x1F DUP3 GT ISZERO PUSH2 0x22F JUMPI PUSH2 0x200 DUP2 PUSH2 0xD1 JUMP JUMPDEST PUSH2 0x209 DUP5 PUSH2 0xE3 JUMP JUMPDEST DUP2 ADD PUSH1 0x20 DUP6 LT ISZERO PUSH2 0x218 JUMPI DUP2 SWAP1 POP JUMPDEST PUSH2 0x22C PUSH2 0x224 DUP6 PUSH2 0xE3 JUMP JUMPDEST DUP4 ADD DUP3 PUSH2 0x1CC JUMP JUMPDEST POP POP JUMPDEST POP POP POP JUMP JUMPDEST PUSH0 DUP3 DUP3 SHR SWAP1 POP SWAP3 SWAP2 POP POP JUMP JUMPDEST PUSH0 PUSH2 0x24F PUSH0 NOT DUP5 PUSH1 0x8 MUL PUSH2 0x234 JUMP JUMPDEST NOT DUP1 DUP4 AND SWAP2 POP POP SWAP3 SWAP2 POP POP JUMP JUMPDEST PUSH0 PUSH2 0x267 DUP4 DUP4 PUSH2 0x240 JUMP JUMPDEST SWAP2 POP DUP3 PUSH1 0x2 MUL DUP3 OR SWAP1 POP SWAP3 SWAP2 POP POP JUMP JUMPDEST PUSH2 0x280 DUP3 PUSH2 0x3D JUMP JUMPDEST PUSH8 0xFFFFFFFFFFFFFFFF DUP2 GT ISZERO PUSH2 0x299 JUMPI PUSH2 0x298 PUSH2 0x47 JUMP JUMPDEST JUMPDEST PUSH2 0x2A3 DUP3 SLOAD PUSH2 0xA1 JUMP JUMPDEST PUSH2 0x2AE DUP3 DUP3 DUP6 PUSH2 0x1EE JUMP JUMPDEST PUSH0 PUSH1 0x20 SWAP1 POP PUSH1 0x1F DUP4 GT PUSH1 0x1 DUP2 EQ PUSH2 0x2DF JUMPI PUSH0 DUP5 ISZERO PUSH2 0x2CD JUMPI DUP3 DUP8 ADD MLOAD SWAP1 POP JUMPDEST PUSH2 0x2D7 DUP6 DUP3 PUSH2 0x25C JUMP JUMPDEST DUP7 SSTORE POP PUSH2 0x33E JUMP JUMPDEST PUSH1 0x1F NOT DUP5 AND PUSH2 0x2ED DUP7 PUSH2 0xD1 JUMP JUMPDEST PUSH0 JUMPDEST DUP3 DUP2 LT ISZERO PUSH2 0x314 JUMPI DUP5 DUP10 ADD MLOAD DUP3 SSTORE PUSH1 0x1 DUP3 ADD SWAP2 POP PUSH1 0x20 DUP6 ADD SWAP5 POP PUSH1 0x20 DUP2 ADD SWAP1 POP PUSH2 0x2EF JUMP JUMPDEST DUP7 DUP4 LT ISZERO PUSH2 0x331 JUMPI DUP5 DUP10 ADD MLOAD PUSH2 0x32D PUSH1 0x1F DUP10 AND DUP3 PUSH2 0x240 JUMP JUMPDEST DUP4 SSTORE POP JUMPDEST PUSH1 0x1 PUSH1 0x2 DUP9 MUL ADD DUP9 SSTORE POP POP POP JUMPDEST POP POP POP POP POP POP JUMP JUMPDEST PUSH2 0x1681 DUP1 PUSH2 0x353 PUSH0 CODECOPY PUSH0 RETURN INVALID PUSH1 0x80 PUSH1 0x40 MSTORE PUSH1 0x4 CALLDATASIZE LT PUSH2 0x6F JUMPI PUSH0 CALLDATALOAD PUSH1 0xE0 SHR DUP1 PUSH4 0xA0712D68 GT PUSH2 0x4D JUMPI DUP1 PUSH4 0xA0712D68 EQ PUSH2 0x107 JUMPI DUP1 PUSH4 0xA22CB465 EQ PUSH2 0x12F JUMPI DUP1 PUSH4 0xC87B56DD EQ PUSH2 0x157 JUMPI DUP1 PUSH4 0xEBD1D359 EQ PUSH2 0x193 JUMPI PUSH2 0x6F JUMP JUMPDEST DUP1 PUSH4 0x23B872DD EQ PUSH2 0x73 JUMPI DUP1 PUSH4 0x6352211E EQ PUSH2 0x8F JUMPI DUP1 PUSH4 0x70A08231 EQ PUSH2 0xCB JUMPI JUMPDEST PUSH0 DUP1 REVERT JUMPDEST PUSH2 0x8D PUSH1 0x4 DUP1 CALLDATASIZE SUB DUP2 ADD SWAP1 PUSH2 0x88 SWAP2 SWAP1 PUSH2 0xE51 JUMP JUMPDEST PUSH2 0x1CF JUMP JUMPDEST STOP JUMPDEST CALLVALUE DUP1 ISZERO PUSH2 0x9A JUMPI PUSH0 DUP1 REVERT JUMPDEST POP PUSH2 0xB5 PUSH1 0x4 DUP1 CALLDATASIZE SUB DUP2 ADD SWAP1 PUSH2 0xB0 SWAP2 SWAP1 PUSH2 0xEA1 JUMP JUMPDEST PUSH2 0x5E6 JUMP JUMPDEST PUSH1 0x40 MLOAD PUSH2 0xC2 SWAP2 SWAP1 PUSH2 0xEDB JUMP JUMPDEST PUSH1 0x40 MLOAD DUP1 SWAP2 SUB SWAP1 RETURN JUMPDEST CALLVALUE DUP1 ISZERO PUSH2 0xD6 JUMPI PUSH0 DUP1 REVERT JUMPDEST POP PUSH2 0xF1 PUSH1 0x4 DUP1 CALLDATASIZE SUB DUP2 ADD SWAP1 PUSH2 0xEC SWAP2 SWAP1 PUSH2 0xEF4 JUMP JUMPDEST PUSH2 0x6BB JUMP JUMPDEST PUSH1 0x40 MLOAD PUSH2 0xFE SWAP2 SWAP1 PUSH2 0xF2E JUMP JUMPDEST PUSH1 0x40 MLOAD DUP1 SWAP2 SUB SWAP1 RETURN JUMPDEST CALLVALUE DUP1 ISZERO PUSH2 0x112 JUMPI PUSH0 DUP1 REVERT JUMPDEST POP PUSH2 0x12D PUSH1 0x4 DUP1 CALLDATASIZE SUB DUP2 ADD SWAP1 PUSH2 0x128 SWAP2 SWAP1 PUSH2 0xEA1 JUMP JUMPDEST PUSH2 0x76F JUMP JUMPDEST STOP JUMPDEST CALLVALUE DUP1 ISZERO PUSH2 0x13A JUMPI PUSH0 DUP1 REVERT JUMPDEST POP PUSH2 0x155 PUSH1 0x4 DUP1 CALLDATASIZE SUB DUP2 ADD SWAP1 PUSH2 0x150 SWAP2 SWAP1 PUSH2 0xF7C JUMP JUMPDEST PUSH2 0x94E JUMP JUMPDEST STOP JUMPDEST CALLVALUE DUP1 ISZERO PUSH2 0x162 JUMPI PUSH0 DUP1 REVERT JUMPDEST POP PUSH2 0x17D PUSH1 0x4 DUP1 CALLDATASIZE SUB DUP2 ADD SWAP1 PUSH2 0x178 SWAP2 SWAP1 PUSH2 0xEA1 JUMP JUMPDEST PUSH2 0xA46 JUMP JUMPDEST PUSH1 0x40 MLOAD PUSH2 0x18A SWAP2 SWAP1 PUSH2 0x102A JUMP JUMPDEST PUSH1 0x40 MLOAD DUP1 SWAP2 SUB SWAP1 RETURN JUMPDEST CALLVALUE DUP1 ISZERO PUSH2 0x19E JUMPI PUSH0 DUP1 REVERT JUMPDEST POP PUSH2 0x1B9 PUSH1 0x4 DUP1 CALLDATASIZE SUB DUP2 ADD SWAP1 PUSH2 0x1B4 SWAP2 SWAP1 PUSH2 0x104A JUMP JUMPDEST PUSH2 0xB17 JUMP JUMPDEST PUSH1 0x40 MLOAD PUSH2 0x1C6 SWAP2 SWAP1 PUSH2 0x1097 JUMP JUMPDEST PUSH1 0x40 MLOAD DUP1 SWAP2 SUB SWAP1 RETURN JUMPDEST PUSH0 PUSH20 0xFFFFFFFFFFFFFFFFFFFFFFFFFFFFFFFFFFFFFFFF AND PUSH0 DUP1 DUP4 DUP2 MSTORE PUSH1 0x20 ADD SWAP1 DUP2 MSTORE PUSH1 0x20 ADD PUSH0 KECCAK256 PUSH0 SWAP1 SLOAD SWAP1 PUSH2 0x100 EXP SWAP1 DIV PUSH20 0xFFFFFFFFFFFFFFFFFFFFFFFFFFFFFFFFFFFFFFFF AND PUSH20 0xFFFFFFFFFFFFFFFFFFFFFFFFFFFFFFFFFFFFFFFF AND SUB PUSH2 0x26C JUMPI PUSH1 0x40 MLOAD PUSH32 0x8C379A000000000000000000000000000000000000000000000000000000000 DUP2 MSTORE PUSH1 0x4 ADD PUSH2 0x263 SWAP1 PUSH2 0x10FA JUMP JUMPDEST PUSH1 0x40 MLOAD DUP1 SWAP2 SUB SWAP1 REVERT JUMPDEST DUP3 PUSH20 0xFFFFFFFFFFFFFFFFFFFFFFFFFFFFFFFFFFFFFFFF AND PUSH0 DUP1 DUP4 DUP2 MSTORE PUSH1 0x20 ADD SWAP1 DUP2 MSTORE PUSH1 0x20 ADD PUSH0 KECCAK256 PUSH0 SWAP1 SLOAD SWAP1 PUSH2 0x100 EXP SWAP1 DIV PUSH20 0xFFFFFFFFFFFFFFFFFFFFFFFFFFFFFFFFFFFFFFFF AND PUSH20 0xFFFFFFFFFFFFFFFFFFFFFFFFFFFFFFFFFFFFFFFF AND EQ PUSH2 0x309 JUMPI PUSH1 0x40 MLOAD PUSH32 0x8C379A000000000000000000000000000000000000000000000000000000000 DUP2 MSTORE PUSH1 0x4 ADD PUSH2 0x300 SWAP1 PUSH2 0x1162 JUMP JUMPDEST PUSH1 0x40 MLOAD DUP1 SWAP2 SUB SWAP1 REVERT JUMPDEST DUP3 PUSH20 0xFFFFFFFFFFFFFFFFFFFFFFFFFFFFFFFFFFFFFFFF AND CALLER PUSH20 0xFFFFFFFFFFFFFFFFFFFFFFFFFFFFFFFFFFFFFFFF AND EQ DUP1 PUSH2 0x3C4 JUMPI POP PUSH1 0x2 PUSH0 DUP5 PUSH20 0xFFFFFFFFFFFFFFFFFFFFFFFFFFFFFFFFFFFFFFFF AND PUSH20 0xFFFFFFFFFFFFFFFFFFFFFFFFFFFFFFFFFFFFFFFF AND DUP2 MSTORE PUSH1 0x20 ADD SWAP1 DUP2 MSTORE PUSH1 0x20 ADD PUSH0 KECCAK256 PUSH0 CALLER PUSH20 0xFFFFFFFFFFFFFFFFFFFFFFFFFFFFFFFFFFFFFFFF AND PUSH20 0xFFFFFFFFFFFFFFFFFFFFFFFFFFFFFFFFFFFFFFFF AND DUP2 MSTORE PUSH1 0x20 ADD SWAP1 DUP2 MSTORE PUSH1 0x20 ADD PUSH0 KECCAK256 PUSH0 SWAP1 SLOAD SWAP1 PUSH2 0x100 EXP SWAP1 DIV PUSH1 0xFF AND JUMPDEST PUSH2 0x403 JUMPI PUSH1 0x40 MLOAD PUSH32 0x8C379A000000000000000000000000000000000000000000000000000000000 DUP2 MSTORE PUSH1 0x4 ADD PUSH2 0x3FA SWAP1 PUSH2 0x11CA JUMP JUMPDEST PUSH1 0x40 MLOAD DUP1 SWAP2 SUB SWAP1 REVERT JUMPDEST DUP1 DUP3 PUSH20 0xFFFFFFFFFFFFFFFFFFFFFFFFFFFFFFFFFFFFFFFF AND DUP5 PUSH20 0xFFFFFFFFFFFFFFFFFFFFFFFFFFFFFFFFFFFFFFFF AND PUSH32 0xDDF252AD1BE2C89B69C2B068FC378DAA952BA7F163C4A11628F55A4DF523B3EF PUSH1 0x40 MLOAD PUSH1 0x40 MLOAD DUP1 SWAP2 SUB SWAP1 LOG4 PUSH0 PUSH1 0x2 PUSH0 DUP6 PUSH20 0xFFFFFFFFFFFFFFFFFFFFFFFFFFFFFFFFFFFFFFFF AND PUSH20 0xFFFFFFFFFFFFFFFFFFFFFFFFFFFFFFFFFFFFFFFF AND DUP2 MSTORE PUSH1 0x20 ADD SWAP1 DUP2 MSTORE PUSH1 0x20 ADD PUSH0 KECCAK256 PUSH0 CALLER PUSH20 0xFFFFFFFFFFFFFFFFFFFFFFFFFFFFFFFFFFFFFFFF AND PUSH20 0xFFFFFFFFFFFFFFFFFFFFFFFFFFFFFFFFFFFFFFFF AND DUP2 MSTORE PUSH1 0x20 ADD SWAP1 DUP2 MSTORE PUSH1 0x20 ADD PUSH0 KECCAK256 PUSH0 PUSH2 0x100 EXP DUP2 SLOAD DUP2 PUSH1 0xFF MUL NOT AND SWAP1 DUP4 ISZERO ISZERO MUL OR SWAP1 SSTORE POP DUP2 PUSH0 DUP1 DUP4 DUP2 MSTORE PUSH1 0x20 ADD SWAP1 DUP2 MSTORE PUSH1 0x20 ADD PUSH0 KECCAK256 PUSH0 PUSH2 0x100 EXP DUP2 SLOAD DUP2 PUSH20 0xFFFFFFFFFFFFFFFFFFFFFFFFFFFFFFFFFFFFFFFF MUL NOT AND SWAP1 DUP4 PUSH20 0xFFFFFFFFFFFFFFFFFFFFFFFFFFFFFFFFFFFFFFFF AND MUL OR SWAP1 SSTORE POP PUSH1 0x1 DUP1 PUSH0 DUP6 PUSH20 0xFFFFFFFFFFFFFFFFFFFFFFFFFFFFFFFFFFFFFFFF AND PUSH20 0xFFFFFFFFFFFFFFFFFFFFFFFFFFFFFFFFFFFFFFFF AND DUP2 MSTORE PUSH1 0x20 ADD SWAP1 DUP2 MSTORE PUSH1 0x20 ADD PUSH0 KECCAK256 PUSH0 DUP3 DUP3 SLOAD PUSH2 0x587 SWAP2 SWAP1 PUSH2 0x1215 JUMP JUMPDEST SWAP3 POP POP DUP2 SWAP1 SSTORE POP PUSH1 0x1 DUP1 PUSH0 DUP5 PUSH20 0xFFFFFFFFFFFFFFFFFFFFFFFFFFFFFFFFFFFFFFFF AND PUSH20 0xFFFFFFFFFFFFFFFFFFFFFFFFFFFFFFFFFFFFFFFF AND DUP2 MSTORE PUSH1 0x20 ADD SWAP1 DUP2 MSTORE PUSH1 0x20 ADD PUSH0 KECCAK256 PUSH0 DUP3 DUP3 SLOAD PUSH2 0x5DA SWAP2 SWAP1 PUSH2 0x1215 JUMP JUMPDEST SWAP3 POP POP DUP2 SWAP1 SSTORE POP POP POP POP JUMP JUMPDEST PUSH0 DUP1 PUSH20 0xFFFFFFFFFFFFFFFFFFFFFFFFFFFFFFFFFFFFFFFF AND PUSH0 DUP1 DUP5 DUP2 MSTORE PUSH1 0x20 ADD SWAP1 DUP2 MSTORE PUSH1 0x20 ADD PUSH0 KECCAK256 PUSH0 SWAP1 SLOAD SWAP1 PUSH2 0x100 EXP SWAP1 DIV PUSH20 0xFFFFFFFFFFFFFFFFFFFFFFFFFFFFFFFFFFFFFFFF AND PUSH20 0xFFFFFFFFFFFFFFFFFFFFFFFFFFFFFFFFFFFFFFFF AND SUB PUSH2 0x684 JUMPI PUSH1 0x40 MLOAD PUSH32 0x8C379A000000000000000000000000000000000000000000000000000000000 DUP2 MSTORE PUSH1 0x4 ADD PUSH2 0x67B SWAP1 PUSH2 0x1292 JUMP JUMPDEST PUSH1 0x40 MLOAD DUP1 SWAP2 SUB SWAP1 REVERT JUMPDEST PUSH0 DUP1 DUP4 DUP2 MSTORE PUSH1 0x20 ADD SWAP1 DUP2 MSTORE PUSH1 0x20 ADD PUSH0 KECCAK256 PUSH0 SWAP1 SLOAD SWAP1 PUSH2 0x100 EXP SWAP1 DIV PUSH20 0xFFFFFFFFFFFFFFFFFFFFFFFFFFFFFFFFFFFFFFFF AND SWAP1 POP SWAP2 SWAP1 POP JUMP JUMPDEST PUSH0 DUP1 PUSH20 0xFFFFFFFFFFFFFFFFFFFFFFFFFFFFFFFFFFFFFFFF AND DUP3 PUSH20 0xFFFFFFFFFFFFFFFFFFFFFFFFFFFFFFFFFFFFFFFF AND SUB PUSH2 0x72A JUMPI PUSH1 0x40 MLOAD PUSH32 0x8C379A000000000000000000000000000000000000000000000000000000000 DUP2 MSTORE PUSH1 0x4 ADD PUSH2 0x721 SWAP1 PUSH2 0x12FA JUMP JUMPDEST PUSH1 0x40 MLOAD DUP1 SWAP2 SUB SWAP1 REVERT JUMPDEST PUSH1 0x1 PUSH0 DUP4 PUSH20 0xFFFFFFFFFFFFFFFFFFFFFFFFFFFFFFFFFFFFFFFF AND PUSH20 0xFFFFFFFFFFFFFFFFFFFFFFFFFFFFFFFFFFFFFFFF AND DUP2 MSTORE PUSH1 0x20 ADD SWAP1 DUP2 MSTORE PUSH1 0x20 ADD PUSH0 KECCAK256 SLOAD SWAP1 POP SWAP2 SWAP1 POP JUMP JUMPDEST PUSH0 PUSH20 0xFFFFFFFFFFFFFFFFFFFFFFFFFFFFFFFFFFFFFFFF AND PUSH0 DUP1 DUP4 DUP2 MSTORE PUSH1 0x20 ADD SWAP1 DUP2 MSTORE PUSH1 0x20 ADD PUSH0 KECCAK256 PUSH0 SWAP1 SLOAD SWAP1 PUSH2 0x100 EXP SWAP1 DIV PUSH20 0xFFFFFFFFFFFFFFFFFFFFFFFFFFFFFFFFFFFFFFFF AND PUSH20 0xFFFFFFFFFFFFFFFFFFFFFFFFFFFFFFFFFFFFFFFF AND SUB PUSH2 0x80C JUMPI PUSH1 0x40 MLOAD PUSH32 0x8C379A000000000000000000000000000000000000000000000000000000000 DUP2 MSTORE PUSH1 0x4 ADD PUSH2 0x803 SWAP1 PUSH2 0x1362 JUMP JUMPDEST PUSH1 0x40 MLOAD DUP1 SWAP2 SUB SWAP1 REVERT JUMPDEST PUSH1 0x64 DUP2 LT PUSH2 0x84F JUMPI PUSH1 0x40 MLOAD PUSH32 0x8C379A000000000000000000000000000000000000000000000000000000000 DUP2 MSTORE PUSH1 0x4 ADD PUSH2 0x846 SWAP1 PUSH2 0x13CA JUMP JUMPDEST PUSH1 0x40 MLOAD DUP1 SWAP2 SUB SWAP1 REVERT JUMPDEST DUP1 CALLER PUSH20 0xFFFFFFFFFFFFFFFFFFFFFFFFFFFFFFFFFFFFFFFF AND PUSH0 PUSH20 0xFFFFFFFFFFFFFFFFFFFFFFFFFFFFFFFFFFFFFFFF AND PUSH32 0xDDF252AD1BE2C89B69C2B068FC378DAA952BA7F163C4A11628F55A4DF523B3EF PUSH1 0x40 MLOAD PUSH1 0x40 MLOAD DUP1 SWAP2 SUB SWAP1 LOG4 CALLER PUSH0 DUP1 DUP4 DUP2 MSTORE PUSH1 0x20 ADD SWAP1 DUP2 MSTORE PUSH1 0x20 ADD PUSH0 KECCAK256 PUSH0 PUSH2 0x100 EXP DUP2 SLOAD DUP2 PUSH20 0xFFFFFFFFFFFFFFFFFFFFFFFFFFFFFFFFFFFFFFFF MUL NOT AND SWAP1 DUP4 PUSH20 0xFFFFFFFFFFFFFFFFFFFFFFFFFFFFFFFFFFFFFFFF AND MUL OR SWAP1 SSTORE POP PUSH1 0x1 DUP1 PUSH0 CALLER PUSH20 0xFFFFFFFFFFFFFFFFFFFFFFFFFFFFFFFFFFFFFFFF AND PUSH20 0xFFFFFFFFFFFFFFFFFFFFFFFFFFFFFFFFFFFFFFFF AND DUP2 MSTORE PUSH1 0x20 ADD SWAP1 DUP2 MSTORE PUSH1 0x20 ADD PUSH0 KECCAK256 PUSH0 DUP3 DUP3 SLOAD PUSH2 0x944 SWAP2 SWAP1 PUSH2 0x1215 JUMP JUMPDEST SWAP3 POP POP DUP2 SWAP1 SSTORE POP POP JUMP JUMPDEST DUP1 PUSH1 0x2 PUSH0 CALLER PUSH20 0xFFFFFFFFFFFFFFFFFFFFFFFFFFFFFFFFFFFFFFFF AND PUSH20 0xFFFFFFFFFFFFFFFFFFFFFFFFFFFFFFFFFFFFFFFF AND DUP2 MSTORE PUSH1 0x20 ADD SWAP1 DUP2 MSTORE PUSH1 0x20 ADD PUSH0 KECCAK256 PUSH0 DUP5 PUSH20 0xFFFFFFFFFFFFFFFFFFFFFFFFFFFFFFFFFFFFFFFF AND PUSH20 0xFFFFFFFFFFFFFFFFFFFFFFFFFFFFFFFFFFFFFFFF AND DUP2 MSTORE PUSH1 0x20 ADD SWAP1 DUP2 MSTORE PUSH1 0x20 ADD PUSH0 KECCAK256 PUSH0 PUSH2 0x100 EXP DUP2 SLOAD DUP2 PUSH1 0xFF MUL NOT AND SWAP1 DUP4 ISZERO ISZERO MUL OR SWAP1 SSTORE POP DUP2 PUSH20 0xFFFFFFFFFFFFFFFFFFFFFFFFFFFFFFFFFFFFFFFF AND CALLER PUSH20 0xFFFFFFFFFFFFFFFFFFFFFFFFFFFFFFFFFFFFFFFF AND PUSH32 0x17307EAB39AB6107E8899845AD3D59BD9653F200F220920489CA2B5937696C31 DUP4 PUSH1 0x40 MLOAD PUSH2 0xA3A SWAP2 SWAP1 PUSH2 0x1097 JUMP JUMPDEST PUSH1 0x40 MLOAD DUP1 SWAP2 SUB SWAP1 LOG3 POP POP JUMP JUMPDEST PUSH1 0x60 PUSH0 PUSH20 0xFFFFFFFFFFFFFFFFFFFFFFFFFFFFFFFFFFFFFFFF AND PUSH0 DUP1 DUP5 DUP2 MSTORE PUSH1 0x20 ADD SWAP1 DUP2 MSTORE PUSH1 0x20 ADD PUSH0 KECCAK256 PUSH0 SWAP1 SLOAD SWAP1 PUSH2 0x100 EXP SWAP1 DIV PUSH20 0xFFFFFFFFFFFFFFFFFFFFFFFFFFFFFFFFFFFFFFFF AND PUSH20 0xFFFFFFFFFFFFFFFFFFFFFFFFFFFFFFFFFFFFFFFF AND SUB PUSH2 0xAE5 JUMPI PUSH1 0x40 MLOAD PUSH32 0x8C379A000000000000000000000000000000000000000000000000000000000 DUP2 MSTORE PUSH1 0x4 ADD PUSH2 0xADC SWAP1 PUSH2 0x1432 JUMP JUMPDEST PUSH1 0x40 MLOAD DUP1 SWAP2 SUB SWAP1 REVERT JUMPDEST PUSH1 0x3 PUSH2 0xAF0 DUP4 PUSH2 0xBA5 JUMP JUMPDEST PUSH1 0x40 MLOAD PUSH1 0x20 ADD PUSH2 0xB01 SWAP3 SWAP2 SWAP1 PUSH2 0x15C3 JUMP JUMPDEST PUSH1 0x40 MLOAD PUSH1 0x20 DUP2 DUP4 SUB SUB DUP2 MSTORE SWAP1 PUSH1 0x40 MSTORE SWAP1 POP SWAP2 SWAP1 POP JUMP JUMPDEST PUSH0 PUSH1 0x2 PUSH0 DUP5 PUSH20 0xFFFFFFFFFFFFFFFFFFFFFFFFFFFFFFFFFFFFFFFF AND PUSH20 0xFFFFFFFFFFFFFFFFFFFFFFFFFFFFFFFFFFFFFFFF AND DUP2 MSTORE PUSH1 0x20 ADD SWAP1 DUP2 MSTORE PUSH1 0x20 ADD PUSH0 KECCAK256 PUSH0 DUP4 PUSH20 0xFFFFFFFFFFFFFFFFFFFFFFFFFFFFFFFFFFFFFFFF AND PUSH20 0xFFFFFFFFFFFFFFFFFFFFFFFFFFFFFFFFFFFFFFFF AND DUP2 MSTORE PUSH1 0x20 ADD SWAP1 DUP2 MSTORE PUSH1 0x20 ADD PUSH0 KECCAK256 PUSH0 SWAP1 SLOAD SWAP1 PUSH2 0x100 EXP SWAP1 DIV PUSH1 0xFF AND SWAP1 POP SWAP3 SWAP2 POP POP JUMP JUMPDEST PUSH1 0x60 PUSH0 PUSH1 0x1 PUSH2 0xBB3 DUP5 PUSH2 0xC6F JUMP JUMPDEST ADD SWAP1 POP PUSH0 DUP2 PUSH8 0xFFFFFFFFFFFFFFFF DUP2 GT ISZERO PUSH2 0xBD1 JUMPI PUSH2 0xBD0 PUSH2 0x15F1 JUMP JUMPDEST JUMPDEST PUSH1 0x40 MLOAD SWAP1 DUP1 DUP3 MSTORE DUP1 PUSH1 0x1F ADD PUSH1 0x1F NOT AND PUSH1 0x20 ADD DUP3 ADD PUSH1 0x40 MSTORE DUP1 ISZERO PUSH2 0xC03 JUMPI DUP2 PUSH1 0x20 ADD PUSH1 0x1 DUP3 MUL DUP1 CALLDATASIZE DUP4 CALLDATACOPY DUP1 DUP3 ADD SWAP2 POP POP SWAP1 POP JUMPDEST POP SWAP1 POP PUSH0 DUP3 PUSH1 0x20 ADD DUP3 ADD SWAP1 POP JUMPDEST PUSH1 0x1 ISZERO PUSH2 0xC64 JUMPI DUP1 DUP1 PUSH1 0x1 SWAP1 SUB SWAP2 POP POP PUSH32 0x3031323334353637383961626364656600000000000000000000000000000000 PUSH1 0xA DUP7 MOD BYTE DUP2 MSTORE8 PUSH1 0xA DUP6 DUP2 PUSH2 0xC59 JUMPI PUSH2 0xC58 PUSH2 0x161E JUMP JUMPDEST JUMPDEST DIV SWAP5 POP PUSH0 DUP6 SUB PUSH2 0xC10 JUMPI JUMPDEST DUP2 SWAP4 POP POP POP POP SWAP2 SWAP1 POP JUMP JUMPDEST PUSH0 DUP1 PUSH0 SWAP1 POP PUSH27 0x184F03E93FF9F4DAA797ED6E38ED64BF6A1F010000000000000000 DUP4 LT PUSH2 0xCCB JUMPI PUSH27 0x184F03E93FF9F4DAA797ED6E38ED64BF6A1F010000000000000000 DUP4 DUP2 PUSH2 0xCC1 JUMPI PUSH2 0xCC0 PUSH2 0x161E JUMP JUMPDEST JUMPDEST DIV SWAP3 POP PUSH1 0x40 DUP2 ADD SWAP1 POP JUMPDEST PUSH14 0x4EE2D6D415B85ACEF8100000000 DUP4 LT PUSH2 0xD08 JUMPI PUSH14 0x4EE2D6D415B85ACEF8100000000 DUP4 DUP2 PUSH2 0xCFE JUMPI PUSH2 0xCFD PUSH2 0x161E JUMP JUMPDEST JUMPDEST DIV SWAP3 POP PUSH1 0x20 DUP2 ADD SWAP1 POP JUMPDEST PUSH7 0x2386F26FC10000 DUP4 LT PUSH2 0xD37 JUMPI PUSH7 0x2386F26FC10000 DUP4 DUP2 PUSH2 0xD2D JUMPI PUSH2 0xD2C PUSH2 0x161E JUMP JUMPDEST JUMPDEST DIV SWAP3 POP PUSH1 0x10 DUP2 ADD SWAP1 POP JUMPDEST PUSH4 0x5F5E100 DUP4 LT PUSH2 0xD60 JUMPI PUSH4 0x5F5E100 DUP4 DUP2 PUSH2 0xD56 JUMPI PUSH2 0xD55 PUSH2 0x161E JUMP JUMPDEST JUMPDEST DIV SWAP3 POP PUSH1 0x8 DUP2 ADD SWAP1 POP JUMPDEST PUSH2 0x2710 DUP4 LT PUSH2 0xD85 JUMPI PUSH2 0x2710 DUP4 DUP2 PUSH2 0xD7B JUMPI PUSH2 0xD7A PUSH2 0x161E JUMP JUMPDEST JUMPDEST DIV SWAP3 POP PUSH1 0x4 DUP2 ADD SWAP1 POP JUMPDEST PUSH1 0x64 DUP4 LT PUSH2 0xDA8 JUMPI PUSH1 0x64 DUP4 DUP2 PUSH2 0xD9E JUMPI PUSH2 0xD9D PUSH2 0x161E JUMP JUMPDEST JUMPDEST DIV SWAP3 POP PUSH1 0x2 DUP2 ADD SWAP1 POP JUMPDEST PUSH1 0xA DUP4 LT PUSH2 0xDB7 JUMPI PUSH1 0x1 DUP2 ADD SWAP1 POP JUMPDEST DUP1 SWAP2 POP POP SWAP2 SWAP1 POP JUMP JUMPDEST PUSH0 DUP1 REVERT JUMPDEST PUSH0 PUSH20 0xFFFFFFFFFFFFFFFFFFFFFFFFFFFFFFFFFFFFFFFF DUP3 AND SWAP1 POP SWAP2 SWAP1 POP JUMP JUMPDEST PUSH0 PUSH2 0xDED DUP3 PUSH2 0xDC4 JUMP JUMPDEST SWAP1 POP SWAP2 SWAP1 POP JUMP JUMPDEST PUSH2 0xDFD DUP2 PUSH2 0xDE3 JUMP JUMPDEST DUP2 EQ PUSH2 0xE07 JUMPI PUSH0 DUP1 REVERT JUMPDEST POP JUMP JUMPDEST PUSH0 DUP2 CALLDATALOAD SWAP1 POP PUSH2 0xE18 DUP2 PUSH2 0xDF4 JUMP JUMPDEST SWAP3 SWAP2 POP POP JUMP JUMPDEST PUSH0 DUP2 SWAP1 POP SWAP2 SWAP1 POP JUMP JUMPDEST PUSH2 0xE30 DUP2 PUSH2 0xE1E JUMP JUMPDEST DUP2 EQ PUSH2 0xE3A JUMPI PUSH0 DUP1 REVERT JUMPDEST POP JUMP JUMPDEST PUSH0 DUP2 CALLDATALOAD SWAP1 POP PUSH2 0xE4B DUP2 PUSH2 0xE27 JUMP JUMPDEST SWAP3 SWAP2 POP POP JUMP JUMPDEST PUSH0 DUP1 PUSH0 PUSH1 0x60 DUP5 DUP7 SUB SLT ISZERO PUSH2 0xE68 JUMPI PUSH2 0xE67 PUSH2 0xDC0 JUMP JUMPDEST JUMPDEST PUSH0 PUSH2 0xE75 DUP7 DUP3 DUP8 ADD PUSH2 0xE0A JUMP JUMPDEST SWAP4 POP POP PUSH1 0x20 PUSH2 0xE86 DUP7 DUP3 DUP8 ADD PUSH2 0xE0A JUMP JUMPDEST SWAP3 POP POP PUSH1 0x40 PUSH2 0xE97 DUP7 DUP3 DUP8 ADD PUSH2 0xE3D JUMP JUMPDEST SWAP2 POP POP SWAP3 POP SWAP3 POP SWAP3 JUMP JUMPDEST PUSH0 PUSH1 0x20 DUP3 DUP5 SUB SLT ISZERO PUSH2 0xEB6 JUMPI PUSH2 0xEB5 PUSH2 0xDC0 JUMP JUMPDEST JUMPDEST PUSH0 PUSH2 0xEC3 DUP5 DUP3 DUP6 ADD PUSH2 0xE3D JUMP JUMPDEST SWAP2 POP POP SWAP3 SWAP2 POP POP JUMP JUMPDEST PUSH2 0xED5 DUP2 PUSH2 0xDE3 JUMP JUMPDEST DUP3 MSTORE POP POP JUMP JUMPDEST PUSH0 PUSH1 0x20 DUP3 ADD SWAP1 POP PUSH2 0xEEE PUSH0 DUP4 ADD DUP5 PUSH2 0xECC JUMP JUMPDEST SWAP3 SWAP2 POP POP JUMP JUMPDEST PUSH0 PUSH1 0x20 DUP3 DUP5 SUB SLT ISZERO PUSH2 0xF09 JUMPI PUSH2 0xF08 PUSH2 0xDC0 JUMP JUMPDEST JUMPDEST PUSH0 PUSH2 0xF16 DUP5 DUP3 DUP6 ADD PUSH2 0xE0A JUMP JUMPDEST SWAP2 POP POP SWAP3 SWAP2 POP POP JUMP JUMPDEST PUSH2 0xF28 DUP2 PUSH2 0xE1E JUMP JUMPDEST DUP3 MSTORE POP POP JUMP JUMPDEST PUSH0 PUSH1 0x20 DUP3 ADD SWAP1 POP PUSH2 0xF41 PUSH0 DUP4 ADD DUP5 PUSH2 0xF1F JUMP JUMPDEST SWAP3 SWAP2 POP POP JUMP JUMPDEST PUSH0 DUP2 ISZERO ISZERO SWAP1 POP SWAP2 SWAP1 POP JUMP JUMPDEST PUSH2 0xF5B DUP2 PUSH2 0xF47 JUMP JUMPDEST DUP2 EQ PUSH2 0xF65 JUMPI PUSH0 DUP1 REVERT JUMPDEST POP JUMP JUMPDEST PUSH0 DUP2 CALLDATALOAD SWAP1 POP PUSH2 0xF76 DUP2 PUSH2 0xF52 JUMP JUMPDEST SWAP3 SWAP2 POP POP JUMP JUMPDEST PUSH0 DUP1 PUSH1 0x40 DUP4 DUP6 SUB SLT ISZERO PUSH2 0xF92 JUMPI PUSH2 0xF91 PUSH2 0xDC0 JUMP JUMPDEST JUMPDEST PUSH0 PUSH2 0xF9F DUP6 DUP3 DUP7 ADD PUSH2 0xE0A JUMP JUMPDEST SWAP3 POP POP PUSH1 0x20 PUSH2 0xFB0 DUP6 DUP3 DUP7 ADD PUSH2 0xF68 JUMP JUMPDEST SWAP2 POP POP SWAP3 POP SWAP3 SWAP1 POP JUMP JUMPDEST PUSH0 DUP2 MLOAD SWAP1 POP SWAP2 SWAP1 POP JUMP JUMPDEST PUSH0 DUP3 DUP3 MSTORE PUSH1 0x20 DUP3 ADD SWAP1 POP SWAP3 SWAP2 POP POP JUMP JUMPDEST DUP3 DUP2 DUP4 MCOPY PUSH0 DUP4 DUP4 ADD MSTORE POP POP POP JUMP JUMPDEST PUSH0 PUSH1 0x1F NOT PUSH1 0x1F DUP4 ADD AND SWAP1 POP SWAP2 SWAP1 POP JUMP JUMPDEST PUSH0 PUSH2 0xFFC DUP3 PUSH2 0xFBA JUMP JUMPDEST PUSH2 0x1006 DUP2 DUP6 PUSH2 0xFC4 JUMP JUMPDEST SWAP4 POP PUSH2 0x1016 DUP2 DUP6 PUSH1 0x20 DUP7 ADD PUSH2 0xFD4 JUMP JUMPDEST PUSH2 0x101F DUP2 PUSH2 0xFE2 JUMP JUMPDEST DUP5 ADD SWAP2 POP POP SWAP3 SWAP2 POP POP JUMP JUMPDEST PUSH0 PUSH1 0x20 DUP3 ADD SWAP1 POP DUP2 DUP2 SUB PUSH0 DUP4 ADD MSTORE PUSH2 0x1042 DUP2 DUP5 PUSH2 0xFF2 JUMP JUMPDEST SWAP1 POP SWAP3 SWAP2 POP POP JUMP JUMPDEST PUSH0 DUP1 PUSH1 0x40 DUP4 DUP6 SUB SLT ISZERO PUSH2 0x1060 JUMPI PUSH2 0x105F PUSH2 0xDC0 JUMP JUMPDEST JUMPDEST PUSH0 PUSH2 0x106D DUP6 DUP3 DUP7 ADD PUSH2 0xE0A JUMP JUMPDEST SWAP3 POP POP PUSH1 0x20 PUSH2 0x107E DUP6 DUP3 DUP7 ADD PUSH2 0xE0A JUMP JUMPDEST SWAP2 POP POP SWAP3 POP SWAP3 SWAP1 POP JUMP JUMPDEST PUSH2 0x1091 DUP2 PUSH2 0xF47 JUMP JUMPDEST DUP3 MSTORE POP POP JUMP JUMPDEST PUSH0 PUSH1 0x20 DUP3 ADD SWAP1 POP PUSH2 0x10AA PUSH0 DUP4 ADD DUP5 PUSH2 0x1088 JUMP JUMPDEST SWAP3 SWAP2 POP POP JUMP JUMPDEST PUSH32 0x746F6B656E20646F6573206E6F74206578697374730000000000000000000000 PUSH0 DUP3 ADD MSTORE POP JUMP JUMPDEST PUSH0 PUSH2 0x10E4 PUSH1 0x15 DUP4 PUSH2 0xFC4 JUMP JUMPDEST SWAP2 POP PUSH2 0x10EF DUP3 PUSH2 0x10B0 JUMP JUMPDEST PUSH1 0x20 DUP3 ADD SWAP1 POP SWAP2 SWAP1 POP JUMP JUMPDEST PUSH0 PUSH1 0x20 DUP3 ADD SWAP1 POP DUP2 DUP2 SUB PUSH0 DUP4 ADD MSTORE PUSH2 0x1111 DUP2 PUSH2 0x10D8 JUMP JUMPDEST SWAP1 POP SWAP2 SWAP1 POP JUMP JUMPDEST PUSH32 0x63616E6E6F74207472616E736665722066726F6D200000000000000000000000 PUSH0 DUP3 ADD MSTORE POP JUMP JUMPDEST PUSH0 PUSH2 0x114C PUSH1 0x15 DUP4 PUSH2 0xFC4 JUMP JUMPDEST SWAP2 POP PUSH2 0x1157 DUP3 PUSH2 0x1118 JUMP JUMPDEST PUSH1 0x20 DUP3 ADD SWAP1 POP SWAP2 SWAP1 POP JUMP JUMPDEST PUSH0 PUSH1 0x20 DUP3 ADD SWAP1 POP DUP2 DUP2 SUB PUSH0 DUP4 ADD MSTORE PUSH2 0x1179 DUP2 PUSH2 0x1140 JUMP JUMPDEST SWAP1 POP SWAP2 SWAP1 POP JUMP JUMPDEST PUSH32 0x726571756972656420746F206265206F776E6572000000000000000000000000 PUSH0 DUP3 ADD MSTORE POP JUMP JUMPDEST PUSH0 PUSH2 0x11B4 PUSH1 0x14 DUP4 PUSH2 0xFC4 JUMP JUMPDEST SWAP2 POP PUSH2 0x11BF DUP3 PUSH2 0x1180 JUMP JUMPDEST PUSH1 0x20 DUP3 ADD SWAP1 POP SWAP2 SWAP1 POP JUMP JUMPDEST PUSH0 PUSH1 0x20 DUP3 ADD SWAP1 POP DUP2 DUP2 SUB PUSH0 DUP4 ADD MSTORE PUSH2 0x11E1 DUP2 PUSH2 0x11A8 JUMP JUMPDEST SWAP1 POP SWAP2 SWAP1 POP JUMP JUMPDEST PUSH32 0x4E487B7100000000000000000000000000000000000000000000000000000000 PUSH0 MSTORE PUSH1 0x11 PUSH1 0x4 MSTORE PUSH1 0x24 PUSH0 REVERT JUMPDEST PUSH0 PUSH2 0x121F DUP3 PUSH2 0xE1E JUMP JUMPDEST SWAP2 POP PUSH2 0x122A DUP4 PUSH2 0xE1E JUMP JUMPDEST SWAP3 POP DUP3 DUP3 ADD SWAP1 POP DUP1 DUP3 GT ISZERO PUSH2 0x1242 JUMPI PUSH2 0x1241 PUSH2 0x11E8 JUMP JUMPDEST JUMPDEST SWAP3 SWAP2 POP POP JUMP JUMPDEST PUSH32 0x6E6F207375636820746F6B656E00000000000000000000000000000000000000 PUSH0 DUP3 ADD MSTORE POP JUMP JUMPDEST PUSH0 PUSH2 0x127C PUSH1 0xD DUP4 PUSH2 0xFC4 JUMP JUMPDEST SWAP2 POP PUSH2 0x1287 DUP3 PUSH2 0x1248 JUMP JUMPDEST PUSH1 0x20 DUP3 ADD SWAP1 POP SWAP2 SWAP1 POP JUMP JUMPDEST PUSH0 PUSH1 0x20 DUP3 ADD SWAP1 POP DUP2 DUP2 SUB PUSH0 DUP4 ADD MSTORE PUSH2 0x12A9 DUP2 PUSH2 0x1270 JUMP JUMPDEST SWAP1 POP SWAP2 SWAP1 POP JUMP JUMPDEST PUSH32 0x7A65726F20616464726573730000000000000000000000000000000000000000 PUSH0 DUP3 ADD MSTORE POP JUMP JUMPDEST PUSH0 PUSH2 0x12E4 PUSH1 0xC DUP4 PUSH2 0xFC4 JUMP JUMPDEST SWAP2 POP PUSH2 0x12EF DUP3 PUSH2 0x12B0 JUMP JUMPDEST PUSH1 0x20 DUP3 ADD SWAP1 POP SWAP2 SWAP1 POP JUMP JUMPDEST PUSH0 PUSH1 0x20 DUP3 ADD SWAP1 POP DUP2 DUP2 SUB PUSH0 DUP4 ADD MSTORE PUSH2 0x1311 DUP2 PUSH2 0x12D8 JUMP JUMPDEST SWAP1 POP SWAP2 SWAP1 POP JUMP JUMPDEST PUSH32 0x616C7265616479206D696E746564000000000000000000000000000000000000 PUSH0 DUP3 ADD MSTORE POP JUMP JUMPDEST PUSH0 PUSH2 0x134C PUSH1 0xE DUP4 PUSH2 0xFC4 JUMP JUMPDEST SWAP2 POP PUSH2 0x1357 DUP3 PUSH2 0x1318 JUMP JUMPDEST PUSH1 0x20 DUP3 ADD SWAP1 POP SWAP2 SWAP1 POP JUMP JUMPDEST PUSH0 PUSH1 0x20 DUP3 ADD SWAP1 POP DUP2 DUP2 SUB PUSH0 DUP4 ADD MSTORE PUSH2 0x1379 DUP2 PUSH2 0x1340 JUMP JUMPDEST SWAP1 POP SWAP2 SWAP1 POP JUMP JUMPDEST PUSH32 0x5F746F6B656E496420746F6F206C617267650000000000000000000000000000 PUSH0 DUP3 ADD MSTORE POP JUMP JUMPDEST PUSH0 PUSH2 0x13B4 PUSH1 0x12 DUP4 PUSH2 0xFC4 JUMP JUMPDEST SWAP2 POP PUSH2 0x13BF DUP3 PUSH2 0x1380 JUMP JUMPDEST PUSH1 0x20 DUP3 ADD SWAP1 POP SWAP2 SWAP1 POP JUMP JUMPDEST PUSH0 PUSH1 0x20 DUP3 ADD SWAP1 POP DUP2 DUP2 SUB PUSH0 DUP4 ADD MSTORE PUSH2 0x13E1 DUP2 PUSH2 0x13A8 JUMP JUMPDEST SWAP1 POP SWAP2 SWAP1 POP JUMP JUMPDEST PUSH32 0x446F6573206E6F74206578697374000000000000000000000000000000000000 PUSH0 DUP3 ADD MSTORE POP JUMP JUMPDEST PUSH0 PUSH2 0x141C PUSH1 0xE DUP4 PUSH2 0xFC4 JUMP JUMPDEST SWAP2 POP PUSH2 0x1427 DUP3 PUSH2 0x13E8 JUMP JUMPDEST PUSH1 0x20 DUP3 ADD SWAP1 POP SWAP2 SWAP1 POP JUMP JUMPDEST PUSH0 PUSH1 0x20 DUP3 ADD SWAP1 POP DUP2 DUP2 SUB PUSH0 DUP4 ADD MSTORE PUSH2 0x1449 DUP2 PUSH2 0x1410 JUMP JUMPDEST SWAP1 POP SWAP2 SWAP1 POP JUMP JUMPDEST PUSH32 0x4E487B7100000000000000000000000000000000000000000000000000000000 PUSH0 MSTORE PUSH1 0x22 PUSH1 0x4 MSTORE PUSH1 0x24 PUSH0 REVERT JUMPDEST PUSH0 PUSH1 0x2 DUP3 DIV SWAP1 POP PUSH1 0x1 DUP3 AND DUP1 PUSH2 0x1494 JUMPI PUSH1 0x7F DUP3 AND SWAP2 POP JUMPDEST PUSH1 0x20 DUP3 LT DUP2 SUB PUSH2 0x14A7 JUMPI PUSH2 0x14A6 PUSH2 0x1450 JUMP JUMPDEST JUMPDEST POP SWAP2 SWAP1 POP JUMP JUMPDEST PUSH0 DUP2 SWAP1 POP SWAP3 SWAP2 POP POP JUMP JUMPDEST PUSH0 DUP2 SWAP1 POP DUP2 PUSH0 MSTORE PUSH1 0x20 PUSH0 KECCAK256 SWAP1 POP SWAP2 SWAP1 POP JUMP JUMPDEST PUSH0 DUP2 SLOAD PUSH2 0x14D5 DUP2 PUSH2 0x147D JUMP JUMPDEST PUSH2 0x14DF DUP2 DUP7 PUSH2 0x14AD JUMP JUMPDEST SWAP5 POP PUSH1 0x1 DUP3 AND PUSH0 DUP2 EQ PUSH2 0x14F9 JUMPI PUSH1 0x1 DUP2 EQ PUSH2 0x150E JUMPI PUSH2 0x1540 JUMP JUMPDEST PUSH1 0xFF NOT DUP4 AND DUP7 MSTORE DUP2 ISZERO ISZERO DUP3 MUL DUP7 ADD SWAP4 POP PUSH2 0x1540 JUMP JUMPDEST PUSH2 0x1517 DUP6 PUSH2 0x14B7 JUMP JUMPDEST PUSH0 JUMPDEST DUP4 DUP2 LT ISZERO PUSH2 0x1538 JUMPI DUP2 SLOAD DUP2 DUP10 ADD MSTORE PUSH1 0x1 DUP3 ADD SWAP2 POP PUSH1 0x20 DUP2 ADD SWAP1 POP PUSH2 0x1519 JUMP JUMPDEST DUP4 DUP9 ADD SWAP6 POP POP POP JUMPDEST POP POP POP SWAP3 SWAP2 POP POP JUMP JUMPDEST PUSH0 PUSH2 0x1553 DUP3 PUSH2 0xFBA JUMP JUMPDEST PUSH2 0x155D DUP2 DUP6 PUSH2 0x14AD JUMP JUMPDEST SWAP4 POP PUSH2 0x156D DUP2 DUP6 PUSH1 0x20 DUP7 ADD PUSH2 0xFD4 JUMP JUMPDEST DUP1 DUP5 ADD SWAP2 POP POP SWAP3 SWAP2 POP POP JUMP JUMPDEST PUSH32 0x2E706E6700000000000000000000000000000000000000000000000000000000 PUSH0 DUP3 ADD MSTORE POP JUMP JUMPDEST PUSH0 PUSH2 0x15AD PUSH1 0x4 DUP4 PUSH2 0x14AD JUMP JUMPDEST SWAP2 POP PUSH2 0x15B8 DUP3 PUSH2 0x1579 JUMP JUMPDEST PUSH1 0x4 DUP3 ADD SWAP1 POP SWAP2 SWAP1 POP JUMP JUMPDEST PUSH0 PUSH2 0x15CE DUP3 DUP6 PUSH2 0x14C9 JUMP JUMPDEST SWAP2 POP PUSH2 0x15DA DUP3 DUP5 PUSH2 0x1549 JUMP JUMPDEST SWAP2 POP PUSH2 0x15E5 DUP3 PUSH2 0x15A1 JUMP JUMPDEST SWAP2 POP DUP2 SWAP1 POP SWAP4 SWAP3 POP POP POP JUMP JUMPDEST PUSH32 0x4E487B7100000000000000000000000000000000000000000000000000000000 PUSH0 MSTORE PUSH1 0x41 PUSH1 0x4 MSTORE PUSH1 0x24 PUSH0 REVERT JUMPDEST PUSH32 0x4E487B7100000000000000000000000000000000000000000000000000000000 PUSH0 MSTORE PUSH1 0x12 PUSH1 0x4 MSTORE PUSH1 0x24 PUSH0 REVERT INVALID LOG2 PUSH5 0x6970667358 0x22 SLT KECCAK256 CREATE SWAP13 MCOPY DUP3 0xD3 0xB7 PUSH7 0x225276B02AC2B6 0xBD SLOAD 0xD5 0xD9 0xD6 ADDMOD 0x4B 0x1F SIGNEXTEND CALLDATACOPY SUB CALLDATALOAD PUSH32 0xF0DE73DD0264736F6C634300081A0033697066732E696F2F697066732F626166 PUSH26 0x62656968367675326A7067646A6F66633475636E6F656D717335 PUSH11 0x7661363271686435626634 CALLDATALOAD ORIGIN CALLDATASIZE PUSH10 0x643733346736636F3461 PUSH5 0x79752F0000 "
				},
				"gasEstimates": {
					"creation": {
						"codeDepositCost": "1152200",
						"executionCost": "infinite",
						"totalCost": "infinite"
					},
					"external": {
						"balanceOf(address)": "2909",
						"isApprovalForAll(address,address)": "infinite",
						"mint(uint256)": "infinite",
						"ownerOf(uint256)": "5121",
						"setApprovalForAll(address,bool)": "infinite",
						"tokenURI(uint256)": "infinite",
						"transferFrom(address,address,uint256)": "infinite"
					}
				},
				"methodIdentifiers": {
					"balanceOf(address)": "70a08231",
					"isApprovalForAll(address,address)": "ebd1d359",
					"mint(uint256)": "a0712d68",
					"ownerOf(uint256)": "6352211e",
					"setApprovalForAll(address,bool)": "a22cb465",
					"tokenURI(uint256)": "c87b56dd",
					"transferFrom(address,address,uint256)": "23b872dd"
				}
			},
			"storageLayout": {
				"storage": [
					{
						"astId": 4792,
						"contract": "Simple_NFT.sol:SimpleNFT",
						"label": "_owners",
						"offset": 0,
						"slot": "0",
						"type": "t_mapping(t_uint256,t_address)"
					},
					{
						"astId": 4796,
						"contract": "Simple_NFT.sol:SimpleNFT",
						"label": "_balances",
						"offset": 0,
						"slot": "1",
						"type": "t_mapping(t_address,t_uint256)"
					},
					{
						"astId": 4802,
						"contract": "Simple_NFT.sol:SimpleNFT",
						"label": "_operators",
						"offset": 0,
						"slot": "2",
						"type": "t_mapping(t_address,t_mapping(t_address,t_bool))"
					},
					{
						"astId": 4805,
						"contract": "Simple_NFT.sol:SimpleNFT",
						"label": "baseURL",
						"offset": 0,
						"slot": "3",
						"type": "t_string_storage"
					}
				],
				"types": {
					"t_address": {
						"encoding": "inplace",
						"label": "address",
						"numberOfBytes": "20"
					},
					"t_bool": {
						"encoding": "inplace",
						"label": "bool",
						"numberOfBytes": "1"
					},
					"t_mapping(t_address,t_bool)": {
						"encoding": "mapping",
						"key": "t_address",
						"label": "mapping(address => bool)",
						"numberOfBytes": "32",
						"value": "t_bool"
					},
					"t_mapping(t_address,t_mapping(t_address,t_bool))": {
						"encoding": "mapping",
						"key": "t_address",
						"label": "mapping(address => mapping(address => bool))",
						"numberOfBytes": "32",
						"value": "t_mapping(t_address,t_bool)"
					},
					"t_mapping(t_address,t_uint256)": {
						"encoding": "mapping",
						"key": "t_address",
						"label": "mapping(address => uint256)",
						"numberOfBytes": "32",
						"value": "t_uint256"
					},
					"t_mapping(t_uint256,t_address)": {
						"encoding": "mapping",
						"key": "t_uint256",
						"label": "mapping(uint256 => address)",
						"numberOfBytes": "32",
						"value": "t_address"
					},
					"t_string_storage": {
						"encoding": "bytes",
						"label": "string",
						"numberOfBytes": "32"
					},
					"t_uint256": {
						"encoding": "inplace",
						"label": "uint256",
						"numberOfBytes": "32"
					}
				}
			},
			"userdoc": {
				"kind": "user",
				"methods": {},
				"version": 1
			}
		}
	}
}