{
	"NFTStaking.sol": {
		"NFTStaking": {
			"abi": [
				{
					"inputs": [
						{
							"internalType": "contract IERC20",
							"name": "_token",
							"type": "address"
						},
						{
							"internalType": "contract IERC721",
							"name": "_nft",
							"type": "address"
						}
					],
					"stateMutability": "nonpayable",
					"type": "constructor"
				},
				{
					"inputs": [
						{
							"internalType": "uint256",
							"name": "tokenId",
							"type": "uint256"
						}
					],
					"name": "claimRewards",
					"outputs": [],
					"stateMutability": "nonpayable",
					"type": "function"
				},
				{
					"inputs": [
						{
							"internalType": "uint256",
							"name": "",
							"type": "uint256"
						}
					],
					"name": "lastClaim",
					"outputs": [
						{
							"internalType": "uint256",
							"name": "",
							"type": "uint256"
						}
					],
					"stateMutability": "view",
					"type": "function"
				},
				{
					"inputs": [],
					"name": "nft",
					"outputs": [
						{
							"internalType": "contract IERC721",
							"name": "",
							"type": "address"
						}
					],
					"stateMutability": "view",
					"type": "function"
				},
				{
					"inputs": [],
					"name": "rewardPerDay",
					"outputs": [
						{
							"internalType": "uint256",
							"name": "",
							"type": "uint256"
						}
					],
					"stateMutability": "view",
					"type": "function"
				},
				{
					"inputs": [
						{
							"internalType": "uint256",
							"name": "tokenId",
							"type": "uint256"
						}
					],
					"name": "stakeNFT",
					"outputs": [],
					"stateMutability": "nonpayable",
					"type": "function"
				},
				{
					"inputs": [
						{
							"internalType": "uint256",
							"name": "",
							"type": "uint256"
						}
					],
					"name": "stakedBy",
					"outputs": [
						{
							"internalType": "address",
							"name": "",
							"type": "address"
						}
					],
					"stateMutability": "view",
					"type": "function"
				},
				{
					"inputs": [],
					"name": "stakingTime",
					"outputs": [
						{
							"internalType": "uint256",
							"name": "",
							"type": "uint256"
						}
					],
					"stateMutability": "view",
					"type": "function"
				},
				{
					"inputs": [],
					"name": "token",
					"outputs": [
						{
							"internalType": "contract IERC20",
							"name": "",
							"type": "address"
						}
					],
					"stateMutability": "view",
					"type": "function"
				},
				{
					"inputs": [
						{
							"internalType": "uint256",
							"name": "tokenId",
							"type": "uint256"
						}
					],
					"name": "unstakeNFT",
					"outputs": [],
					"stateMutability": "nonpayable",
					"type": "function"
				}
			],
			"devdoc": {
				"kind": "dev",
				"methods": {},
				"version": 1
			},
			"evm": {
				"assembly": "    /* \"NFTStaking.sol\":235:1570  contract NFTStaking {... */\n  mstore(0x40, 0x80)\n    /* \"NFTStaking.sol\":444:457  10 * 10 ** 18 */\n  0x8ac7230489e80000\n    /* \"NFTStaking.sol\":414:457  uint256 public rewardPerDay = 10 * 10 ** 18 */\n  0x04\n  sstore\n    /* \"NFTStaking.sol\":493:499  1 days */\n  0x015180\n    /* \"NFTStaking.sol\":464:499  uint256 public stakingTime = 1 days */\n  0x05\n  sstore\n    /* \"NFTStaking.sol\":533:628  constructor(IERC20 _token, IERC721 _nft) {... */\n  callvalue\n  dup1\n  iszero\n  tag_1\n  jumpi\n  0x00\n  dup1\n  revert\ntag_1:\n  pop\n  mload(0x40)\n  sub(codesize, bytecodeSize)\n  dup1\n  bytecodeSize\n  dup4\n  codecopy\n  dup2\n  dup2\n  add\n  0x40\n  mstore\n  dup2\n  add\n  swap1\n  tag_2\n  swap2\n  swap1\n  tag_3\n  jump\t// in\ntag_2:\n    /* \"NFTStaking.sol\":593:599  _token */\n  dup2\n    /* \"NFTStaking.sol\":585:590  token */\n  0x00\n  dup1\n    /* \"NFTStaking.sol\":585:599  token = _token */\n  0x0100\n  exp\n  dup2\n  sload\n  dup2\n  0xffffffffffffffffffffffffffffffffffffffff\n  mul\n  not\n  and\n  swap1\n  dup4\n  0xffffffffffffffffffffffffffffffffffffffff\n  and\n  mul\n  or\n  swap1\n  sstore\n  pop\n    /* \"NFTStaking.sol\":616:620  _nft */\n  dup1\n    /* \"NFTStaking.sol\":610:613  nft */\n  0x01\n  0x00\n    /* \"NFTStaking.sol\":610:620  nft = _nft */\n  0x0100\n  exp\n  dup2\n  sload\n  dup2\n  0xffffffffffffffffffffffffffffffffffffffff\n  mul\n  not\n  and\n  swap1\n  dup4\n  0xffffffffffffffffffffffffffffffffffffffff\n  and\n  mul\n  or\n  swap1\n  sstore\n  pop\n    /* \"NFTStaking.sol\":533:628  constructor(IERC20 _token, IERC721 _nft) {... */\n  pop\n  pop\n    /* \"NFTStaking.sol\":235:1570  contract NFTStaking {... */\n  jump(tag_6)\n    /* \"#utility.yul\":88:205   */\ntag_8:\n    /* \"#utility.yul\":197:198   */\n  0x00\n    /* \"#utility.yul\":194:195   */\n  dup1\n    /* \"#utility.yul\":187:199   */\n  revert\n    /* \"#utility.yul\":334:460   */\ntag_10:\n    /* \"#utility.yul\":371:378   */\n  0x00\n    /* \"#utility.yul\":411:453   */\n  0xffffffffffffffffffffffffffffffffffffffff\n    /* \"#utility.yul\":404:409   */\n  dup3\n    /* \"#utility.yul\":400:454   */\n  and\n    /* \"#utility.yul\":389:454   */\n  swap1\n  pop\n    /* \"#utility.yul\":334:460   */\n  swap2\n  swap1\n  pop\n  jump\t// out\n    /* \"#utility.yul\":466:562   */\ntag_11:\n    /* \"#utility.yul\":503:510   */\n  0x00\n    /* \"#utility.yul\":532:556   */\n  tag_24\n    /* \"#utility.yul\":550:555   */\n  dup3\n    /* \"#utility.yul\":532:556   */\n  tag_10\n  jump\t// in\ntag_24:\n    /* \"#utility.yul\":521:556   */\n  swap1\n  pop\n    /* \"#utility.yul\":466:562   */\n  swap2\n  swap1\n  pop\n  jump\t// out\n    /* \"#utility.yul\":568:678   */\ntag_12:\n    /* \"#utility.yul\":619:626   */\n  0x00\n    /* \"#utility.yul\":648:672   */\n  tag_26\n    /* \"#utility.yul\":666:671   */\n  dup3\n    /* \"#utility.yul\":648:672   */\n  tag_11\n  jump\t// in\ntag_26:\n    /* \"#utility.yul\":637:672   */\n  swap1\n  pop\n    /* \"#utility.yul\":568:678   */\n  swap2\n  swap1\n  pop\n  jump\t// out\n    /* \"#utility.yul\":684:834   */\ntag_13:\n    /* \"#utility.yul\":771:809   */\n  tag_28\n    /* \"#utility.yul\":803:808   */\n  dup2\n    /* \"#utility.yul\":771:809   */\n  tag_12\n  jump\t// in\ntag_28:\n    /* \"#utility.yul\":764:769   */\n  dup2\n    /* \"#utility.yul\":761:810   */\n  eq\n    /* \"#utility.yul\":751:828   */\n  tag_29\n  jumpi\n    /* \"#utility.yul\":824:825   */\n  0x00\n    /* \"#utility.yul\":821:822   */\n  dup1\n    /* \"#utility.yul\":814:826   */\n  revert\n    /* \"#utility.yul\":751:828   */\ntag_29:\n    /* \"#utility.yul\":684:834   */\n  pop\n  jump\t// out\n    /* \"#utility.yul\":840:1011   */\ntag_14:\n    /* \"#utility.yul\":911:916   */\n  0x00\n    /* \"#utility.yul\":942:948   */\n  dup2\n    /* \"#utility.yul\":936:949   */\n  mload\n    /* \"#utility.yul\":927:949   */\n  swap1\n  pop\n    /* \"#utility.yul\":958:1005   */\n  tag_31\n    /* \"#utility.yul\":999:1004   */\n  dup2\n    /* \"#utility.yul\":958:1005   */\n  tag_13\n  jump\t// in\ntag_31:\n    /* \"#utility.yul\":840:1011   */\n  swap3\n  swap2\n  pop\n  pop\n  jump\t// out\n    /* \"#utility.yul\":1017:1128   */\ntag_15:\n    /* \"#utility.yul\":1069:1076   */\n  0x00\n    /* \"#utility.yul\":1098:1122   */\n  tag_33\n    /* \"#utility.yul\":1116:1121   */\n  dup3\n    /* \"#utility.yul\":1098:1122   */\n  tag_11\n  jump\t// in\ntag_33:\n    /* \"#utility.yul\":1087:1122   */\n  swap1\n  pop\n    /* \"#utility.yul\":1017:1128   */\n  swap2\n  swap1\n  pop\n  jump\t// out\n    /* \"#utility.yul\":1134:1286   */\ntag_16:\n    /* \"#utility.yul\":1222:1261   */\n  tag_35\n    /* \"#utility.yul\":1255:1260   */\n  dup2\n    /* \"#utility.yul\":1222:1261   */\n  tag_15\n  jump\t// in\ntag_35:\n    /* \"#utility.yul\":1215:1220   */\n  dup2\n    /* \"#utility.yul\":1212:1262   */\n  eq\n    /* \"#utility.yul\":1202:1280   */\n  tag_36\n  jumpi\n    /* \"#utility.yul\":1276:1277   */\n  0x00\n    /* \"#utility.yul\":1273:1274   */\n  dup1\n    /* \"#utility.yul\":1266:1278   */\n  revert\n    /* \"#utility.yul\":1202:1280   */\ntag_36:\n    /* \"#utility.yul\":1134:1286   */\n  pop\n  jump\t// out\n    /* \"#utility.yul\":1292:1465   */\ntag_17:\n    /* \"#utility.yul\":1364:1369   */\n  0x00\n    /* \"#utility.yul\":1395:1401   */\n  dup2\n    /* \"#utility.yul\":1389:1402   */\n  mload\n    /* \"#utility.yul\":1380:1402   */\n  swap1\n  pop\n    /* \"#utility.yul\":1411:1459   */\n  tag_38\n    /* \"#utility.yul\":1453:1458   */\n  dup2\n    /* \"#utility.yul\":1411:1459   */\n  tag_16\n  jump\t// in\ntag_38:\n    /* \"#utility.yul\":1292:1465   */\n  swap3\n  swap2\n  pop\n  pop\n  jump\t// out\n    /* \"#utility.yul\":1471:2036   */\ntag_3:\n    /* \"#utility.yul\":1579:1585   */\n  0x00\n    /* \"#utility.yul\":1587:1593   */\n  dup1\n    /* \"#utility.yul\":1636:1638   */\n  0x40\n    /* \"#utility.yul\":1624:1633   */\n  dup4\n    /* \"#utility.yul\":1615:1622   */\n  dup6\n    /* \"#utility.yul\":1611:1634   */\n  sub\n    /* \"#utility.yul\":1607:1639   */\n  slt\n    /* \"#utility.yul\":1604:1723   */\n  iszero\n  tag_40\n  jumpi\n    /* \"#utility.yul\":1642:1721   */\n  tag_41\n  tag_8\n  jump\t// in\ntag_41:\n    /* \"#utility.yul\":1604:1723   */\ntag_40:\n    /* \"#utility.yul\":1762:1763   */\n  0x00\n    /* \"#utility.yul\":1787:1865   */\n  tag_42\n    /* \"#utility.yul\":1857:1864   */\n  dup6\n    /* \"#utility.yul\":1848:1854   */\n  dup3\n    /* \"#utility.yul\":1837:1846   */\n  dup7\n    /* \"#utility.yul\":1833:1855   */\n  add\n    /* \"#utility.yul\":1787:1865   */\n  tag_14\n  jump\t// in\ntag_42:\n    /* \"#utility.yul\":1777:1865   */\n  swap3\n  pop\n    /* \"#utility.yul\":1733:1875   */\n  pop\n    /* \"#utility.yul\":1914:1916   */\n  0x20\n    /* \"#utility.yul\":1940:2019   */\n  tag_43\n    /* \"#utility.yul\":2011:2018   */\n  dup6\n    /* \"#utility.yul\":2002:2008   */\n  dup3\n    /* \"#utility.yul\":1991:2000   */\n  dup7\n    /* \"#utility.yul\":1987:2009   */\n  add\n    /* \"#utility.yul\":1940:2019   */\n  tag_17\n  jump\t// in\ntag_43:\n    /* \"#utility.yul\":1930:2019   */\n  swap2\n  pop\n    /* \"#utility.yul\":1885:2029   */\n  pop\n    /* \"#utility.yul\":1471:2036   */\n  swap3\n  pop\n  swap3\n  swap1\n  pop\n  jump\t// out\n    /* \"NFTStaking.sol\":235:1570  contract NFTStaking {... */\ntag_6:\n  dataSize(sub_0)\n  dup1\n  dataOffset(sub_0)\n  0x00\n  codecopy\n  0x00\n  return\nstop\n\nsub_0: assembly {\n        /* \"NFTStaking.sol\":235:1570  contract NFTStaking {... */\n      mstore(0x40, 0x80)\n      callvalue\n      dup1\n      iszero\n      tag_1\n      jumpi\n      0x00\n      dup1\n      revert\n    tag_1:\n      pop\n      jumpi(tag_2, lt(calldatasize, 0x04))\n      shr(0xe0, calldataload(0x00))\n      dup1\n      0x6eb604e0\n      gt\n      tag_12\n      jumpi\n      dup1\n      0x6eb604e0\n      eq\n      tag_7\n      jumpi\n      dup1\n      0x9ee4af10\n      eq\n      tag_8\n      jumpi\n      dup1\n      0xaf8f42b8\n      eq\n      tag_9\n      jumpi\n      dup1\n      0xc1dfa0bb\n      eq\n      tag_10\n      jumpi\n      dup1\n      0xfc0c546a\n      eq\n      tag_11\n      jumpi\n      jump(tag_2)\n    tag_12:\n      dup1\n      0x0962ef79\n      eq\n      tag_3\n      jumpi\n      dup1\n      0x146d4574\n      eq\n      tag_4\n      jumpi\n      dup1\n      0x3d3728b5\n      eq\n      tag_5\n      jumpi\n      dup1\n      0x47ccca02\n      eq\n      tag_6\n      jumpi\n    tag_2:\n      0x00\n      dup1\n      revert\n        /* \"NFTStaking.sol\":985:1301  function claimRewards(uint256 tokenId) public {... */\n    tag_3:\n      tag_13\n      0x04\n      dup1\n      calldatasize\n      sub\n      dup2\n      add\n      swap1\n      tag_14\n      swap2\n      swap1\n      tag_15\n      jump\t// in\n    tag_14:\n      tag_16\n      jump\t// in\n    tag_13:\n      stop\n        /* \"NFTStaking.sol\":464:499  uint256 public stakingTime = 1 days */\n    tag_4:\n      tag_17\n      tag_18\n      jump\t// in\n    tag_17:\n      mload(0x40)\n      tag_19\n      swap2\n      swap1\n      tag_20\n      jump\t// in\n    tag_19:\n      mload(0x40)\n      dup1\n      swap2\n      sub\n      swap1\n      return\n        /* \"NFTStaking.sol\":363:407  mapping(uint256 => uint256) public lastClaim */\n    tag_5:\n      tag_21\n      0x04\n      dup1\n      calldatasize\n      sub\n      dup2\n      add\n      swap1\n      tag_22\n      swap2\n      swap1\n      tag_15\n      jump\t// in\n    tag_22:\n      tag_23\n      jump\t// in\n    tag_21:\n      mload(0x40)\n      tag_24\n      swap2\n      swap1\n      tag_20\n      jump\t// in\n    tag_24:\n      mload(0x40)\n      dup1\n      swap2\n      sub\n      swap1\n      return\n        /* \"NFTStaking.sol\":288:306  IERC721 public nft */\n    tag_6:\n      tag_25\n      tag_26\n      jump\t// in\n    tag_25:\n      mload(0x40)\n      tag_27\n      swap2\n      swap1\n      tag_28\n      jump\t// in\n    tag_27:\n      mload(0x40)\n      dup1\n      swap2\n      sub\n      swap1\n      return\n        /* \"NFTStaking.sol\":636:977  function stakeNFT(uint256 tokenId) public {... */\n    tag_7:\n      tag_29\n      0x04\n      dup1\n      calldatasize\n      sub\n      dup2\n      add\n      swap1\n      tag_30\n      swap2\n      swap1\n      tag_15\n      jump\t// in\n    tag_30:\n      tag_31\n      jump\t// in\n    tag_29:\n      stop\n        /* \"NFTStaking.sol\":313:356  mapping(uint256 => address) public stakedBy */\n    tag_8:\n      tag_32\n      0x04\n      dup1\n      calldatasize\n      sub\n      dup2\n      add\n      swap1\n      tag_33\n      swap2\n      swap1\n      tag_15\n      jump\t// in\n    tag_33:\n      tag_34\n      jump\t// in\n    tag_32:\n      mload(0x40)\n      tag_35\n      swap2\n      swap1\n      tag_36\n      jump\t// in\n    tag_35:\n      mload(0x40)\n      dup1\n      swap2\n      sub\n      swap1\n      return\n        /* \"NFTStaking.sol\":414:457  uint256 public rewardPerDay = 10 * 10 ** 18 */\n    tag_9:\n      tag_37\n      tag_38\n      jump\t// in\n    tag_37:\n      mload(0x40)\n      tag_39\n      swap2\n      swap1\n      tag_20\n      jump\t// in\n    tag_39:\n      mload(0x40)\n      dup1\n      swap2\n      sub\n      swap1\n      return\n        /* \"NFTStaking.sol\":1309:1567  function unstakeNFT(uint256 tokenId) public {... */\n    tag_10:\n      tag_40\n      0x04\n      dup1\n      calldatasize\n      sub\n      dup2\n      add\n      swap1\n      tag_41\n      swap2\n      swap1\n      tag_15\n      jump\t// in\n    tag_41:\n      tag_42\n      jump\t// in\n    tag_40:\n      stop\n        /* \"NFTStaking.sol\":262:281  IERC20 public token */\n    tag_11:\n      tag_43\n      tag_44\n      jump\t// in\n    tag_43:\n      mload(0x40)\n      tag_45\n      swap2\n      swap1\n      tag_46\n      jump\t// in\n    tag_45:\n      mload(0x40)\n      dup1\n      swap2\n      sub\n      swap1\n      return\n        /* \"NFTStaking.sol\":985:1301  function claimRewards(uint256 tokenId) public {... */\n    tag_16:\n        /* \"NFTStaking.sol\":1071:1081  msg.sender */\n      caller\n        /* \"NFTStaking.sol\":1050:1081  stakedBy[tokenId] == msg.sender */\n      0xffffffffffffffffffffffffffffffffffffffff\n      and\n        /* \"NFTStaking.sol\":1050:1058  stakedBy */\n      0x02\n        /* \"NFTStaking.sol\":1050:1067  stakedBy[tokenId] */\n      0x00\n        /* \"NFTStaking.sol\":1059:1066  tokenId */\n      dup4\n        /* \"NFTStaking.sol\":1050:1067  stakedBy[tokenId] */\n      dup2\n      mstore\n      0x20\n      add\n      swap1\n      dup2\n      mstore\n      0x20\n      add\n      0x00\n      keccak256\n      0x00\n      swap1\n      sload\n      swap1\n      0x0100\n      exp\n      swap1\n      div\n      0xffffffffffffffffffffffffffffffffffffffff\n      and\n        /* \"NFTStaking.sol\":1050:1081  stakedBy[tokenId] == msg.sender */\n      0xffffffffffffffffffffffffffffffffffffffff\n      and\n      eq\n        /* \"NFTStaking.sol\":1042:1103  require(stakedBy[tokenId] == msg.sender, \"Not staked by you\") */\n      tag_48\n      jumpi\n      mload(0x40)\n      0x08c379a000000000000000000000000000000000000000000000000000000000\n      dup2\n      mstore\n      0x04\n      add\n      tag_49\n      swap1\n      tag_50\n      jump\t// in\n    tag_49:\n      mload(0x40)\n      dup1\n      swap2\n      sub\n      swap1\n      revert\n    tag_48:\n        /* \"NFTStaking.sol\":1162:1173  stakingTime */\n      sload(0x05)\n        /* \"NFTStaking.sol\":1141:1150  lastClaim */\n      0x03\n        /* \"NFTStaking.sol\":1141:1159  lastClaim[tokenId] */\n      0x00\n        /* \"NFTStaking.sol\":1151:1158  tokenId */\n      dup4\n        /* \"NFTStaking.sol\":1141:1159  lastClaim[tokenId] */\n      dup2\n      mstore\n      0x20\n      add\n      swap1\n      dup2\n      mstore\n      0x20\n      add\n      0x00\n      keccak256\n      sload\n        /* \"NFTStaking.sol\":1141:1173  lastClaim[tokenId] + stakingTime */\n      tag_51\n      swap2\n      swap1\n      tag_52\n      jump\t// in\n    tag_51:\n        /* \"NFTStaking.sol\":1122:1137  block.timestamp */\n      timestamp\n        /* \"NFTStaking.sol\":1122:1173  block.timestamp >= lastClaim[tokenId] + stakingTime */\n      lt\n      iszero\n        /* \"NFTStaking.sol\":1114:1195  require(block.timestamp >= lastClaim[tokenId] + stakingTime, \"Too soon to claim\") */\n      tag_53\n      jumpi\n      mload(0x40)\n      0x08c379a000000000000000000000000000000000000000000000000000000000\n      dup2\n      mstore\n      0x04\n      add\n      tag_54\n      swap1\n      tag_55\n      jump\t// in\n    tag_54:\n      mload(0x40)\n      dup1\n      swap2\n      sub\n      swap1\n      revert\n    tag_53:\n        /* \"NFTStaking.sol\":1206:1211  token */\n      0x00\n      dup1\n      sload\n      swap1\n      0x0100\n      exp\n      swap1\n      div\n      0xffffffffffffffffffffffffffffffffffffffff\n      and\n        /* \"NFTStaking.sol\":1206:1220  token.transfer */\n      0xffffffffffffffffffffffffffffffffffffffff\n      and\n      0xa9059cbb\n        /* \"NFTStaking.sol\":1221:1231  msg.sender */\n      caller\n        /* \"NFTStaking.sol\":1233:1245  rewardPerDay */\n      sload(0x04)\n        /* \"NFTStaking.sol\":1206:1246  token.transfer(msg.sender, rewardPerDay) */\n      mload(0x40)\n      dup4\n      0xffffffff\n      and\n      0xe0\n      shl\n      dup2\n      mstore\n      0x04\n      add\n      tag_56\n      swap3\n      swap2\n      swap1\n      tag_57\n      jump\t// in\n    tag_56:\n      0x20\n      mload(0x40)\n      dup1\n      dup4\n      sub\n      dup2\n      0x00\n      dup8\n      gas\n      call\n      iszero\n      dup1\n      iszero\n      tag_59\n      jumpi\n      returndatasize\n      0x00\n      dup1\n      returndatacopy\n      revert(0x00, returndatasize)\n    tag_59:\n      pop\n      pop\n      pop\n      pop\n      mload(0x40)\n      returndatasize\n      not(0x1f)\n      0x1f\n      dup3\n      add\n      and\n      dup3\n      add\n      dup1\n      0x40\n      mstore\n      pop\n      dup2\n      add\n      swap1\n      tag_60\n      swap2\n      swap1\n      tag_61\n      jump\t// in\n    tag_60:\n      pop\n        /* \"NFTStaking.sol\":1278:1293  block.timestamp */\n      timestamp\n        /* \"NFTStaking.sol\":1257:1266  lastClaim */\n      0x03\n        /* \"NFTStaking.sol\":1257:1275  lastClaim[tokenId] */\n      0x00\n        /* \"NFTStaking.sol\":1267:1274  tokenId */\n      dup4\n        /* \"NFTStaking.sol\":1257:1275  lastClaim[tokenId] */\n      dup2\n      mstore\n      0x20\n      add\n      swap1\n      dup2\n      mstore\n      0x20\n      add\n      0x00\n      keccak256\n        /* \"NFTStaking.sol\":1257:1293  lastClaim[tokenId] = block.timestamp */\n      dup2\n      swap1\n      sstore\n      pop\n        /* \"NFTStaking.sol\":985:1301  function claimRewards(uint256 tokenId) public {... */\n      pop\n      jump\t// out\n        /* \"NFTStaking.sol\":464:499  uint256 public stakingTime = 1 days */\n    tag_18:\n      sload(0x05)\n      dup2\n      jump\t// out\n        /* \"NFTStaking.sol\":363:407  mapping(uint256 => uint256) public lastClaim */\n    tag_23:\n      mstore(0x20, 0x03)\n      dup1\n      0x00\n      mstore\n      keccak256(0x00, 0x40)\n      0x00\n      swap2\n      pop\n      swap1\n      pop\n      sload\n      dup2\n      jump\t// out\n        /* \"NFTStaking.sol\":288:306  IERC721 public nft */\n    tag_26:\n      0x01\n      0x00\n      swap1\n      sload\n      swap1\n      0x0100\n      exp\n      swap1\n      div\n      0xffffffffffffffffffffffffffffffffffffffff\n      and\n      dup2\n      jump\t// out\n        /* \"NFTStaking.sol\":636:977  function stakeNFT(uint256 tokenId) public {... */\n    tag_31:\n        /* \"NFTStaking.sol\":721:731  msg.sender */\n      caller\n        /* \"NFTStaking.sol\":697:731  nft.ownerOf(tokenId) == msg.sender */\n      0xffffffffffffffffffffffffffffffffffffffff\n      and\n        /* \"NFTStaking.sol\":697:700  nft */\n      0x01\n      0x00\n      swap1\n      sload\n      swap1\n      0x0100\n      exp\n      swap1\n      div\n      0xffffffffffffffffffffffffffffffffffffffff\n      and\n        /* \"NFTStaking.sol\":697:708  nft.ownerOf */\n      0xffffffffffffffffffffffffffffffffffffffff\n      and\n      0x6352211e\n        /* \"NFTStaking.sol\":709:716  tokenId */\n      dup4\n        /* \"NFTStaking.sol\":697:717  nft.ownerOf(tokenId) */\n      mload(0x40)\n      dup3\n      0xffffffff\n      and\n      0xe0\n      shl\n      dup2\n      mstore\n      0x04\n      add\n      tag_63\n      swap2\n      swap1\n      tag_20\n      jump\t// in\n    tag_63:\n      0x20\n      mload(0x40)\n      dup1\n      dup4\n      sub\n      dup2\n      dup7\n      gas\n      staticcall\n      iszero\n      dup1\n      iszero\n      tag_65\n      jumpi\n      returndatasize\n      0x00\n      dup1\n      returndatacopy\n      revert(0x00, returndatasize)\n    tag_65:\n      pop\n      pop\n      pop\n      pop\n      mload(0x40)\n      returndatasize\n      not(0x1f)\n      0x1f\n      dup3\n      add\n      and\n      dup3\n      add\n      dup1\n      0x40\n      mstore\n      pop\n      dup2\n      add\n      swap1\n      tag_66\n      swap2\n      swap1\n      tag_67\n      jump\t// in\n    tag_66:\n        /* \"NFTStaking.sol\":697:731  nft.ownerOf(tokenId) == msg.sender */\n      0xffffffffffffffffffffffffffffffffffffffff\n      and\n      eq\n        /* \"NFTStaking.sol\":689:749  require(nft.ownerOf(tokenId) == msg.sender, \"Not the owner\") */\n      tag_68\n      jumpi\n      mload(0x40)\n      0x08c379a000000000000000000000000000000000000000000000000000000000\n      dup2\n      mstore\n      0x04\n      add\n      tag_69\n      swap1\n      tag_70\n      jump\t// in\n    tag_69:\n      mload(0x40)\n      dup1\n      swap2\n      sub\n      swap1\n      revert\n    tag_68:\n        /* \"NFTStaking.sol\":797:798  0 */\n      0x00\n        /* \"NFTStaking.sol\":768:799  stakedBy[tokenId] == address(0) */\n      0xffffffffffffffffffffffffffffffffffffffff\n      and\n        /* \"NFTStaking.sol\":768:776  stakedBy */\n      0x02\n        /* \"NFTStaking.sol\":768:785  stakedBy[tokenId] */\n      0x00\n        /* \"NFTStaking.sol\":777:784  tokenId */\n      dup4\n        /* \"NFTStaking.sol\":768:785  stakedBy[tokenId] */\n      dup2\n      mstore\n      0x20\n      add\n      swap1\n      dup2\n      mstore\n      0x20\n      add\n      0x00\n      keccak256\n      0x00\n      swap1\n      sload\n      swap1\n      0x0100\n      exp\n      swap1\n      div\n      0xffffffffffffffffffffffffffffffffffffffff\n      and\n        /* \"NFTStaking.sol\":768:799  stakedBy[tokenId] == address(0) */\n      0xffffffffffffffffffffffffffffffffffffffff\n      and\n      eq\n        /* \"NFTStaking.sol\":760:818  require(stakedBy[tokenId] == address(0), \"Already staked\") */\n      tag_71\n      jumpi\n      mload(0x40)\n      0x08c379a000000000000000000000000000000000000000000000000000000000\n      dup2\n      mstore\n      0x04\n      add\n      tag_72\n      swap1\n      tag_73\n      jump\t// in\n    tag_72:\n      mload(0x40)\n      dup1\n      swap2\n      sub\n      swap1\n      revert\n    tag_71:\n        /* \"NFTStaking.sol\":829:832  nft */\n      0x01\n      0x00\n      swap1\n      sload\n      swap1\n      0x0100\n      exp\n      swap1\n      div\n      0xffffffffffffffffffffffffffffffffffffffff\n      and\n        /* \"NFTStaking.sol\":829:845  nft.transferFrom */\n      0xffffffffffffffffffffffffffffffffffffffff\n      and\n      0x23b872dd\n        /* \"NFTStaking.sol\":846:856  msg.sender */\n      caller\n        /* \"NFTStaking.sol\":866:870  this */\n      address\n        /* \"NFTStaking.sol\":873:880  tokenId */\n      dup5\n        /* \"NFTStaking.sol\":829:881  nft.transferFrom(msg.sender, address(this), tokenId) */\n      mload(0x40)\n      dup5\n      0xffffffff\n      and\n      0xe0\n      shl\n      dup2\n      mstore\n      0x04\n      add\n      tag_74\n      swap4\n      swap3\n      swap2\n      swap1\n      tag_75\n      jump\t// in\n    tag_74:\n      0x00\n      mload(0x40)\n      dup1\n      dup4\n      sub\n      dup2\n      0x00\n      dup8\n      dup1\n      extcodesize\n      iszero\n      dup1\n      iszero\n      tag_76\n      jumpi\n      0x00\n      dup1\n      revert\n    tag_76:\n      pop\n      gas\n      call\n      iszero\n      dup1\n      iszero\n      tag_78\n      jumpi\n      returndatasize\n      0x00\n      dup1\n      returndatacopy\n      revert(0x00, returndatasize)\n    tag_78:\n      pop\n      pop\n      pop\n      pop\n        /* \"NFTStaking.sol\":912:922  msg.sender */\n      caller\n        /* \"NFTStaking.sol\":892:900  stakedBy */\n      0x02\n        /* \"NFTStaking.sol\":892:909  stakedBy[tokenId] */\n      0x00\n        /* \"NFTStaking.sol\":901:908  tokenId */\n      dup4\n        /* \"NFTStaking.sol\":892:909  stakedBy[tokenId] */\n      dup2\n      mstore\n      0x20\n      add\n      swap1\n      dup2\n      mstore\n      0x20\n      add\n      0x00\n      keccak256\n      0x00\n        /* \"NFTStaking.sol\":892:922  stakedBy[tokenId] = msg.sender */\n      0x0100\n      exp\n      dup2\n      sload\n      dup2\n      0xffffffffffffffffffffffffffffffffffffffff\n      mul\n      not\n      and\n      swap1\n      dup4\n      0xffffffffffffffffffffffffffffffffffffffff\n      and\n      mul\n      or\n      swap1\n      sstore\n      pop\n        /* \"NFTStaking.sol\":954:969  block.timestamp */\n      timestamp\n        /* \"NFTStaking.sol\":933:942  lastClaim */\n      0x03\n        /* \"NFTStaking.sol\":933:951  lastClaim[tokenId] */\n      0x00\n        /* \"NFTStaking.sol\":943:950  tokenId */\n      dup4\n        /* \"NFTStaking.sol\":933:951  lastClaim[tokenId] */\n      dup2\n      mstore\n      0x20\n      add\n      swap1\n      dup2\n      mstore\n      0x20\n      add\n      0x00\n      keccak256\n        /* \"NFTStaking.sol\":933:969  lastClaim[tokenId] = block.timestamp */\n      dup2\n      swap1\n      sstore\n      pop\n        /* \"NFTStaking.sol\":636:977  function stakeNFT(uint256 tokenId) public {... */\n      pop\n      jump\t// out\n        /* \"NFTStaking.sol\":313:356  mapping(uint256 => address) public stakedBy */\n    tag_34:\n      mstore(0x20, 0x02)\n      dup1\n      0x00\n      mstore\n      keccak256(0x00, 0x40)\n      0x00\n      swap2\n      pop\n      sload\n      swap1\n      0x0100\n      exp\n      swap1\n      div\n      0xffffffffffffffffffffffffffffffffffffffff\n      and\n      dup2\n      jump\t// out\n        /* \"NFTStaking.sol\":414:457  uint256 public rewardPerDay = 10 * 10 ** 18 */\n    tag_38:\n      sload(0x04)\n      dup2\n      jump\t// out\n        /* \"NFTStaking.sol\":1309:1567  function unstakeNFT(uint256 tokenId) public {... */\n    tag_42:\n        /* \"NFTStaking.sol\":1393:1403  msg.sender */\n      caller\n        /* \"NFTStaking.sol\":1372:1403  stakedBy[tokenId] == msg.sender */\n      0xffffffffffffffffffffffffffffffffffffffff\n      and\n        /* \"NFTStaking.sol\":1372:1380  stakedBy */\n      0x02\n        /* \"NFTStaking.sol\":1372:1389  stakedBy[tokenId] */\n      0x00\n        /* \"NFTStaking.sol\":1381:1388  tokenId */\n      dup4\n        /* \"NFTStaking.sol\":1372:1389  stakedBy[tokenId] */\n      dup2\n      mstore\n      0x20\n      add\n      swap1\n      dup2\n      mstore\n      0x20\n      add\n      0x00\n      keccak256\n      0x00\n      swap1\n      sload\n      swap1\n      0x0100\n      exp\n      swap1\n      div\n      0xffffffffffffffffffffffffffffffffffffffff\n      and\n        /* \"NFTStaking.sol\":1372:1403  stakedBy[tokenId] == msg.sender */\n      0xffffffffffffffffffffffffffffffffffffffff\n      and\n      eq\n        /* \"NFTStaking.sol\":1364:1425  require(stakedBy[tokenId] == msg.sender, \"Not staked by you\") */\n      tag_80\n      jumpi\n      mload(0x40)\n      0x08c379a000000000000000000000000000000000000000000000000000000000\n      dup2\n      mstore\n      0x04\n      add\n      tag_81\n      swap1\n      tag_50\n      jump\t// in\n    tag_81:\n      mload(0x40)\n      dup1\n      swap2\n      sub\n      swap1\n      revert\n    tag_80:\n        /* \"NFTStaking.sol\":1436:1439  nft */\n      0x01\n      0x00\n      swap1\n      sload\n      swap1\n      0x0100\n      exp\n      swap1\n      div\n      0xffffffffffffffffffffffffffffffffffffffff\n      and\n        /* \"NFTStaking.sol\":1436:1452  nft.transferFrom */\n      0xffffffffffffffffffffffffffffffffffffffff\n      and\n      0x23b872dd\n        /* \"NFTStaking.sol\":1461:1465  this */\n      address\n        /* \"NFTStaking.sol\":1468:1478  msg.sender */\n      caller\n        /* \"NFTStaking.sol\":1480:1487  tokenId */\n      dup5\n        /* \"NFTStaking.sol\":1436:1488  nft.transferFrom(address(this), msg.sender, tokenId) */\n      mload(0x40)\n      dup5\n      0xffffffff\n      and\n      0xe0\n      shl\n      dup2\n      mstore\n      0x04\n      add\n      tag_82\n      swap4\n      swap3\n      swap2\n      swap1\n      tag_75\n      jump\t// in\n    tag_82:\n      0x00\n      mload(0x40)\n      dup1\n      dup4\n      sub\n      dup2\n      0x00\n      dup8\n      dup1\n      extcodesize\n      iszero\n      dup1\n      iszero\n      tag_83\n      jumpi\n      0x00\n      dup1\n      revert\n    tag_83:\n      pop\n      gas\n      call\n      iszero\n      dup1\n      iszero\n      tag_85\n      jumpi\n      returndatasize\n      0x00\n      dup1\n      returndatacopy\n      revert(0x00, returndatasize)\n    tag_85:\n      pop\n      pop\n      pop\n      pop\n        /* \"NFTStaking.sol\":1506:1514  stakedBy */\n      0x02\n        /* \"NFTStaking.sol\":1506:1523  stakedBy[tokenId] */\n      0x00\n        /* \"NFTStaking.sol\":1515:1522  tokenId */\n      dup3\n        /* \"NFTStaking.sol\":1506:1523  stakedBy[tokenId] */\n      dup2\n      mstore\n      0x20\n      add\n      swap1\n      dup2\n      mstore\n      0x20\n      add\n      0x00\n      keccak256\n      0x00\n        /* \"NFTStaking.sol\":1499:1523  delete stakedBy[tokenId] */\n      0x0100\n      exp\n      dup2\n      sload\n      swap1\n      0xffffffffffffffffffffffffffffffffffffffff\n      mul\n      not\n      and\n      swap1\n      sstore\n        /* \"NFTStaking.sol\":1541:1550  lastClaim */\n      0x03\n        /* \"NFTStaking.sol\":1541:1559  lastClaim[tokenId] */\n      0x00\n        /* \"NFTStaking.sol\":1551:1558  tokenId */\n      dup3\n        /* \"NFTStaking.sol\":1541:1559  lastClaim[tokenId] */\n      dup2\n      mstore\n      0x20\n      add\n      swap1\n      dup2\n      mstore\n      0x20\n      add\n      0x00\n      keccak256\n        /* \"NFTStaking.sol\":1534:1559  delete lastClaim[tokenId] */\n      0x00\n      swap1\n      sstore\n        /* \"NFTStaking.sol\":1309:1567  function unstakeNFT(uint256 tokenId) public {... */\n      pop\n      jump\t// out\n        /* \"NFTStaking.sol\":262:281  IERC20 public token */\n    tag_44:\n      0x00\n      dup1\n      sload\n      swap1\n      0x0100\n      exp\n      swap1\n      div\n      0xffffffffffffffffffffffffffffffffffffffff\n      and\n      dup2\n      jump\t// out\n        /* \"#utility.yul\":88:205   */\n    tag_87:\n        /* \"#utility.yul\":197:198   */\n      0x00\n        /* \"#utility.yul\":194:195   */\n      dup1\n        /* \"#utility.yul\":187:199   */\n      revert\n        /* \"#utility.yul\":334:411   */\n    tag_89:\n        /* \"#utility.yul\":371:378   */\n      0x00\n        /* \"#utility.yul\":400:405   */\n      dup2\n        /* \"#utility.yul\":389:405   */\n      swap1\n      pop\n        /* \"#utility.yul\":334:411   */\n      swap2\n      swap1\n      pop\n      jump\t// out\n        /* \"#utility.yul\":417:539   */\n    tag_90:\n        /* \"#utility.yul\":490:514   */\n      tag_124\n        /* \"#utility.yul\":508:513   */\n      dup2\n        /* \"#utility.yul\":490:514   */\n      tag_89\n      jump\t// in\n    tag_124:\n        /* \"#utility.yul\":483:488   */\n      dup2\n        /* \"#utility.yul\":480:515   */\n      eq\n        /* \"#utility.yul\":470:533   */\n      tag_125\n      jumpi\n        /* \"#utility.yul\":529:530   */\n      0x00\n        /* \"#utility.yul\":526:527   */\n      dup1\n        /* \"#utility.yul\":519:531   */\n      revert\n        /* \"#utility.yul\":470:533   */\n    tag_125:\n        /* \"#utility.yul\":417:539   */\n      pop\n      jump\t// out\n        /* \"#utility.yul\":545:684   */\n    tag_91:\n        /* \"#utility.yul\":591:596   */\n      0x00\n        /* \"#utility.yul\":629:635   */\n      dup2\n        /* \"#utility.yul\":616:636   */\n      calldataload\n        /* \"#utility.yul\":607:636   */\n      swap1\n      pop\n        /* \"#utility.yul\":645:678   */\n      tag_127\n        /* \"#utility.yul\":672:677   */\n      dup2\n        /* \"#utility.yul\":645:678   */\n      tag_90\n      jump\t// in\n    tag_127:\n        /* \"#utility.yul\":545:684   */\n      swap3\n      swap2\n      pop\n      pop\n      jump\t// out\n        /* \"#utility.yul\":690:1019   */\n    tag_15:\n        /* \"#utility.yul\":749:755   */\n      0x00\n        /* \"#utility.yul\":798:800   */\n      0x20\n        /* \"#utility.yul\":786:795   */\n      dup3\n        /* \"#utility.yul\":777:784   */\n      dup5\n        /* \"#utility.yul\":773:796   */\n      sub\n        /* \"#utility.yul\":769:801   */\n      slt\n        /* \"#utility.yul\":766:885   */\n      iszero\n      tag_129\n      jumpi\n        /* \"#utility.yul\":804:883   */\n      tag_130\n      tag_87\n      jump\t// in\n    tag_130:\n        /* \"#utility.yul\":766:885   */\n    tag_129:\n        /* \"#utility.yul\":924:925   */\n      0x00\n        /* \"#utility.yul\":949:1002   */\n      tag_131\n        /* \"#utility.yul\":994:1001   */\n      dup5\n        /* \"#utility.yul\":985:991   */\n      dup3\n        /* \"#utility.yul\":974:983   */\n      dup6\n        /* \"#utility.yul\":970:992   */\n      add\n        /* \"#utility.yul\":949:1002   */\n      tag_91\n      jump\t// in\n    tag_131:\n        /* \"#utility.yul\":939:1002   */\n      swap2\n      pop\n        /* \"#utility.yul\":895:1012   */\n      pop\n        /* \"#utility.yul\":690:1019   */\n      swap3\n      swap2\n      pop\n      pop\n      jump\t// out\n        /* \"#utility.yul\":1025:1143   */\n    tag_92:\n        /* \"#utility.yul\":1112:1136   */\n      tag_133\n        /* \"#utility.yul\":1130:1135   */\n      dup2\n        /* \"#utility.yul\":1112:1136   */\n      tag_89\n      jump\t// in\n    tag_133:\n        /* \"#utility.yul\":1107:1110   */\n      dup3\n        /* \"#utility.yul\":1100:1137   */\n      mstore\n        /* \"#utility.yul\":1025:1143   */\n      pop\n      pop\n      jump\t// out\n        /* \"#utility.yul\":1149:1371   */\n    tag_20:\n        /* \"#utility.yul\":1242:1246   */\n      0x00\n        /* \"#utility.yul\":1280:1282   */\n      0x20\n        /* \"#utility.yul\":1269:1278   */\n      dup3\n        /* \"#utility.yul\":1265:1283   */\n      add\n        /* \"#utility.yul\":1257:1283   */\n      swap1\n      pop\n        /* \"#utility.yul\":1293:1364   */\n      tag_135\n        /* \"#utility.yul\":1361:1362   */\n      0x00\n        /* \"#utility.yul\":1350:1359   */\n      dup4\n        /* \"#utility.yul\":1346:1363   */\n      add\n        /* \"#utility.yul\":1337:1343   */\n      dup5\n        /* \"#utility.yul\":1293:1364   */\n      tag_92\n      jump\t// in\n    tag_135:\n        /* \"#utility.yul\":1149:1371   */\n      swap3\n      swap2\n      pop\n      pop\n      jump\t// out\n        /* \"#utility.yul\":1377:1503   */\n    tag_93:\n        /* \"#utility.yul\":1414:1421   */\n      0x00\n        /* \"#utility.yul\":1454:1496   */\n      0xffffffffffffffffffffffffffffffffffffffff\n        /* \"#utility.yul\":1447:1452   */\n      dup3\n        /* \"#utility.yul\":1443:1497   */\n      and\n        /* \"#utility.yul\":1432:1497   */\n      swap1\n      pop\n        /* \"#utility.yul\":1377:1503   */\n      swap2\n      swap1\n      pop\n      jump\t// out\n        /* \"#utility.yul\":1509:1569   */\n    tag_94:\n        /* \"#utility.yul\":1537:1540   */\n      0x00\n        /* \"#utility.yul\":1558:1563   */\n      dup2\n        /* \"#utility.yul\":1551:1563   */\n      swap1\n      pop\n        /* \"#utility.yul\":1509:1569   */\n      swap2\n      swap1\n      pop\n      jump\t// out\n        /* \"#utility.yul\":1575:1717   */\n    tag_95:\n        /* \"#utility.yul\":1625:1634   */\n      0x00\n        /* \"#utility.yul\":1658:1711   */\n      tag_139\n        /* \"#utility.yul\":1676:1710   */\n      tag_140\n        /* \"#utility.yul\":1685:1709   */\n      tag_141\n        /* \"#utility.yul\":1703:1708   */\n      dup5\n        /* \"#utility.yul\":1685:1709   */\n      tag_93\n      jump\t// in\n    tag_141:\n        /* \"#utility.yul\":1676:1710   */\n      tag_94\n      jump\t// in\n    tag_140:\n        /* \"#utility.yul\":1658:1711   */\n      tag_93\n      jump\t// in\n    tag_139:\n        /* \"#utility.yul\":1645:1711   */\n      swap1\n      pop\n        /* \"#utility.yul\":1575:1717   */\n      swap2\n      swap1\n      pop\n      jump\t// out\n        /* \"#utility.yul\":1723:1849   */\n    tag_96:\n        /* \"#utility.yul\":1773:1782   */\n      0x00\n        /* \"#utility.yul\":1806:1843   */\n      tag_143\n        /* \"#utility.yul\":1837:1842   */\n      dup3\n        /* \"#utility.yul\":1806:1843   */\n      tag_95\n      jump\t// in\n    tag_143:\n        /* \"#utility.yul\":1793:1843   */\n      swap1\n      pop\n        /* \"#utility.yul\":1723:1849   */\n      swap2\n      swap1\n      pop\n      jump\t// out\n        /* \"#utility.yul\":1855:1996   */\n    tag_97:\n        /* \"#utility.yul\":1920:1929   */\n      0x00\n        /* \"#utility.yul\":1953:1990   */\n      tag_145\n        /* \"#utility.yul\":1984:1989   */\n      dup3\n        /* \"#utility.yul\":1953:1990   */\n      tag_96\n      jump\t// in\n    tag_145:\n        /* \"#utility.yul\":1940:1990   */\n      swap1\n      pop\n        /* \"#utility.yul\":1855:1996   */\n      swap2\n      swap1\n      pop\n      jump\t// out\n        /* \"#utility.yul\":2002:2163   */\n    tag_98:\n        /* \"#utility.yul\":2104:2156   */\n      tag_147\n        /* \"#utility.yul\":2150:2155   */\n      dup2\n        /* \"#utility.yul\":2104:2156   */\n      tag_97\n      jump\t// in\n    tag_147:\n        /* \"#utility.yul\":2099:2102   */\n      dup3\n        /* \"#utility.yul\":2092:2157   */\n      mstore\n        /* \"#utility.yul\":2002:2163   */\n      pop\n      pop\n      jump\t// out\n        /* \"#utility.yul\":2169:2421   */\n    tag_28:\n        /* \"#utility.yul\":2277:2281   */\n      0x00\n        /* \"#utility.yul\":2315:2317   */\n      0x20\n        /* \"#utility.yul\":2304:2313   */\n      dup3\n        /* \"#utility.yul\":2300:2318   */\n      add\n        /* \"#utility.yul\":2292:2318   */\n      swap1\n      pop\n        /* \"#utility.yul\":2328:2414   */\n      tag_149\n        /* \"#utility.yul\":2411:2412   */\n      0x00\n        /* \"#utility.yul\":2400:2409   */\n      dup4\n        /* \"#utility.yul\":2396:2413   */\n      add\n        /* \"#utility.yul\":2387:2393   */\n      dup5\n        /* \"#utility.yul\":2328:2414   */\n      tag_98\n      jump\t// in\n    tag_149:\n        /* \"#utility.yul\":2169:2421   */\n      swap3\n      swap2\n      pop\n      pop\n      jump\t// out\n        /* \"#utility.yul\":2427:2523   */\n    tag_99:\n        /* \"#utility.yul\":2464:2471   */\n      0x00\n        /* \"#utility.yul\":2493:2517   */\n      tag_151\n        /* \"#utility.yul\":2511:2516   */\n      dup3\n        /* \"#utility.yul\":2493:2517   */\n      tag_93\n      jump\t// in\n    tag_151:\n        /* \"#utility.yul\":2482:2517   */\n      swap1\n      pop\n        /* \"#utility.yul\":2427:2523   */\n      swap2\n      swap1\n      pop\n      jump\t// out\n        /* \"#utility.yul\":2529:2647   */\n    tag_100:\n        /* \"#utility.yul\":2616:2640   */\n      tag_153\n        /* \"#utility.yul\":2634:2639   */\n      dup2\n        /* \"#utility.yul\":2616:2640   */\n      tag_99\n      jump\t// in\n    tag_153:\n        /* \"#utility.yul\":2611:2614   */\n      dup3\n        /* \"#utility.yul\":2604:2641   */\n      mstore\n        /* \"#utility.yul\":2529:2647   */\n      pop\n      pop\n      jump\t// out\n        /* \"#utility.yul\":2653:2875   */\n    tag_36:\n        /* \"#utility.yul\":2746:2750   */\n      0x00\n        /* \"#utility.yul\":2784:2786   */\n      0x20\n        /* \"#utility.yul\":2773:2782   */\n      dup3\n        /* \"#utility.yul\":2769:2787   */\n      add\n        /* \"#utility.yul\":2761:2787   */\n      swap1\n      pop\n        /* \"#utility.yul\":2797:2868   */\n      tag_155\n        /* \"#utility.yul\":2865:2866   */\n      0x00\n        /* \"#utility.yul\":2854:2863   */\n      dup4\n        /* \"#utility.yul\":2850:2867   */\n      add\n        /* \"#utility.yul\":2841:2847   */\n      dup5\n        /* \"#utility.yul\":2797:2868   */\n      tag_100\n      jump\t// in\n    tag_155:\n        /* \"#utility.yul\":2653:2875   */\n      swap3\n      swap2\n      pop\n      pop\n      jump\t// out\n        /* \"#utility.yul\":2881:3021   */\n    tag_101:\n        /* \"#utility.yul\":2945:2954   */\n      0x00\n        /* \"#utility.yul\":2978:3015   */\n      tag_157\n        /* \"#utility.yul\":3009:3014   */\n      dup3\n        /* \"#utility.yul\":2978:3015   */\n      tag_96\n      jump\t// in\n    tag_157:\n        /* \"#utility.yul\":2965:3015   */\n      swap1\n      pop\n        /* \"#utility.yul\":2881:3021   */\n      swap2\n      swap1\n      pop\n      jump\t// out\n        /* \"#utility.yul\":3027:3186   */\n    tag_102:\n        /* \"#utility.yul\":3128:3179   */\n      tag_159\n        /* \"#utility.yul\":3173:3178   */\n      dup2\n        /* \"#utility.yul\":3128:3179   */\n      tag_101\n      jump\t// in\n    tag_159:\n        /* \"#utility.yul\":3123:3126   */\n      dup3\n        /* \"#utility.yul\":3116:3180   */\n      mstore\n        /* \"#utility.yul\":3027:3186   */\n      pop\n      pop\n      jump\t// out\n        /* \"#utility.yul\":3192:3442   */\n    tag_46:\n        /* \"#utility.yul\":3299:3303   */\n      0x00\n        /* \"#utility.yul\":3337:3339   */\n      0x20\n        /* \"#utility.yul\":3326:3335   */\n      dup3\n        /* \"#utility.yul\":3322:3340   */\n      add\n        /* \"#utility.yul\":3314:3340   */\n      swap1\n      pop\n        /* \"#utility.yul\":3350:3435   */\n      tag_161\n        /* \"#utility.yul\":3432:3433   */\n      0x00\n        /* \"#utility.yul\":3421:3430   */\n      dup4\n        /* \"#utility.yul\":3417:3434   */\n      add\n        /* \"#utility.yul\":3408:3414   */\n      dup5\n        /* \"#utility.yul\":3350:3435   */\n      tag_102\n      jump\t// in\n    tag_161:\n        /* \"#utility.yul\":3192:3442   */\n      swap3\n      swap2\n      pop\n      pop\n      jump\t// out\n        /* \"#utility.yul\":3448:3617   */\n    tag_103:\n        /* \"#utility.yul\":3532:3543   */\n      0x00\n        /* \"#utility.yul\":3566:3572   */\n      dup3\n        /* \"#utility.yul\":3561:3564   */\n      dup3\n        /* \"#utility.yul\":3554:3573   */\n      mstore\n        /* \"#utility.yul\":3606:3610   */\n      0x20\n        /* \"#utility.yul\":3601:3604   */\n      dup3\n        /* \"#utility.yul\":3597:3611   */\n      add\n        /* \"#utility.yul\":3582:3611   */\n      swap1\n      pop\n        /* \"#utility.yul\":3448:3617   */\n      swap3\n      swap2\n      pop\n      pop\n      jump\t// out\n        /* \"#utility.yul\":3623:3790   */\n    tag_104:\n        /* \"#utility.yul\":3763:3782   */\n      0x4e6f74207374616b656420627920796f75000000000000000000000000000000\n        /* \"#utility.yul\":3759:3760   */\n      0x00\n        /* \"#utility.yul\":3751:3757   */\n      dup3\n        /* \"#utility.yul\":3747:3761   */\n      add\n        /* \"#utility.yul\":3740:3783   */\n      mstore\n        /* \"#utility.yul\":3623:3790   */\n      pop\n      jump\t// out\n        /* \"#utility.yul\":3796:4162   */\n    tag_105:\n        /* \"#utility.yul\":3938:3941   */\n      0x00\n        /* \"#utility.yul\":3959:4026   */\n      tag_165\n        /* \"#utility.yul\":4023:4025   */\n      0x11\n        /* \"#utility.yul\":4018:4021   */\n      dup4\n        /* \"#utility.yul\":3959:4026   */\n      tag_103\n      jump\t// in\n    tag_165:\n        /* \"#utility.yul\":3952:4026   */\n      swap2\n      pop\n        /* \"#utility.yul\":4035:4128   */\n      tag_166\n        /* \"#utility.yul\":4124:4127   */\n      dup3\n        /* \"#utility.yul\":4035:4128   */\n      tag_104\n      jump\t// in\n    tag_166:\n        /* \"#utility.yul\":4153:4155   */\n      0x20\n        /* \"#utility.yul\":4148:4151   */\n      dup3\n        /* \"#utility.yul\":4144:4156   */\n      add\n        /* \"#utility.yul\":4137:4156   */\n      swap1\n      pop\n        /* \"#utility.yul\":3796:4162   */\n      swap2\n      swap1\n      pop\n      jump\t// out\n        /* \"#utility.yul\":4168:4587   */\n    tag_50:\n        /* \"#utility.yul\":4334:4338   */\n      0x00\n        /* \"#utility.yul\":4372:4374   */\n      0x20\n        /* \"#utility.yul\":4361:4370   */\n      dup3\n        /* \"#utility.yul\":4357:4375   */\n      add\n        /* \"#utility.yul\":4349:4375   */\n      swap1\n      pop\n        /* \"#utility.yul\":4421:4430   */\n      dup2\n        /* \"#utility.yul\":4415:4419   */\n      dup2\n        /* \"#utility.yul\":4411:4431   */\n      sub\n        /* \"#utility.yul\":4407:4408   */\n      0x00\n        /* \"#utility.yul\":4396:4405   */\n      dup4\n        /* \"#utility.yul\":4392:4409   */\n      add\n        /* \"#utility.yul\":4385:4432   */\n      mstore\n        /* \"#utility.yul\":4449:4580   */\n      tag_168\n        /* \"#utility.yul\":4575:4579   */\n      dup2\n        /* \"#utility.yul\":4449:4580   */\n      tag_105\n      jump\t// in\n    tag_168:\n        /* \"#utility.yul\":4441:4580   */\n      swap1\n      pop\n        /* \"#utility.yul\":4168:4587   */\n      swap2\n      swap1\n      pop\n      jump\t// out\n        /* \"#utility.yul\":4593:4773   */\n    tag_106:\n        /* \"#utility.yul\":4641:4718   */\n      0x4e487b7100000000000000000000000000000000000000000000000000000000\n        /* \"#utility.yul\":4638:4639   */\n      0x00\n        /* \"#utility.yul\":4631:4719   */\n      mstore\n        /* \"#utility.yul\":4738:4742   */\n      0x11\n        /* \"#utility.yul\":4735:4736   */\n      0x04\n        /* \"#utility.yul\":4728:4743   */\n      mstore\n        /* \"#utility.yul\":4762:4766   */\n      0x24\n        /* \"#utility.yul\":4759:4760   */\n      0x00\n        /* \"#utility.yul\":4752:4767   */\n      revert\n        /* \"#utility.yul\":4779:4970   */\n    tag_52:\n        /* \"#utility.yul\":4819:4822   */\n      0x00\n        /* \"#utility.yul\":4838:4858   */\n      tag_171\n        /* \"#utility.yul\":4856:4857   */\n      dup3\n        /* \"#utility.yul\":4838:4858   */\n      tag_89\n      jump\t// in\n    tag_171:\n        /* \"#utility.yul\":4833:4858   */\n      swap2\n      pop\n        /* \"#utility.yul\":4872:4892   */\n      tag_172\n        /* \"#utility.yul\":4890:4891   */\n      dup4\n        /* \"#utility.yul\":4872:4892   */\n      tag_89\n      jump\t// in\n    tag_172:\n        /* \"#utility.yul\":4867:4892   */\n      swap3\n      pop\n        /* \"#utility.yul\":4915:4916   */\n      dup3\n        /* \"#utility.yul\":4912:4913   */\n      dup3\n        /* \"#utility.yul\":4908:4917   */\n      add\n        /* \"#utility.yul\":4901:4917   */\n      swap1\n      pop\n        /* \"#utility.yul\":4936:4939   */\n      dup1\n        /* \"#utility.yul\":4933:4934   */\n      dup3\n        /* \"#utility.yul\":4930:4940   */\n      gt\n        /* \"#utility.yul\":4927:4963   */\n      iszero\n      tag_173\n      jumpi\n        /* \"#utility.yul\":4943:4961   */\n      tag_174\n      tag_106\n      jump\t// in\n    tag_174:\n        /* \"#utility.yul\":4927:4963   */\n    tag_173:\n        /* \"#utility.yul\":4779:4970   */\n      swap3\n      swap2\n      pop\n      pop\n      jump\t// out\n        /* \"#utility.yul\":4976:5143   */\n    tag_107:\n        /* \"#utility.yul\":5116:5135   */\n      0x546f6f20736f6f6e20746f20636c61696d000000000000000000000000000000\n        /* \"#utility.yul\":5112:5113   */\n      0x00\n        /* \"#utility.yul\":5104:5110   */\n      dup3\n        /* \"#utility.yul\":5100:5114   */\n      add\n        /* \"#utility.yul\":5093:5136   */\n      mstore\n        /* \"#utility.yul\":4976:5143   */\n      pop\n      jump\t// out\n        /* \"#utility.yul\":5149:5515   */\n    tag_108:\n        /* \"#utility.yul\":5291:5294   */\n      0x00\n        /* \"#utility.yul\":5312:5379   */\n      tag_177\n        /* \"#utility.yul\":5376:5378   */\n      0x11\n        /* \"#utility.yul\":5371:5374   */\n      dup4\n        /* \"#utility.yul\":5312:5379   */\n      tag_103\n      jump\t// in\n    tag_177:\n        /* \"#utility.yul\":5305:5379   */\n      swap2\n      pop\n        /* \"#utility.yul\":5388:5481   */\n      tag_178\n        /* \"#utility.yul\":5477:5480   */\n      dup3\n        /* \"#utility.yul\":5388:5481   */\n      tag_107\n      jump\t// in\n    tag_178:\n        /* \"#utility.yul\":5506:5508   */\n      0x20\n        /* \"#utility.yul\":5501:5504   */\n      dup3\n        /* \"#utility.yul\":5497:5509   */\n      add\n        /* \"#utility.yul\":5490:5509   */\n      swap1\n      pop\n        /* \"#utility.yul\":5149:5515   */\n      swap2\n      swap1\n      pop\n      jump\t// out\n        /* \"#utility.yul\":5521:5940   */\n    tag_55:\n        /* \"#utility.yul\":5687:5691   */\n      0x00\n        /* \"#utility.yul\":5725:5727   */\n      0x20\n        /* \"#utility.yul\":5714:5723   */\n      dup3\n        /* \"#utility.yul\":5710:5728   */\n      add\n        /* \"#utility.yul\":5702:5728   */\n      swap1\n      pop\n        /* \"#utility.yul\":5774:5783   */\n      dup2\n        /* \"#utility.yul\":5768:5772   */\n      dup2\n        /* \"#utility.yul\":5764:5784   */\n      sub\n        /* \"#utility.yul\":5760:5761   */\n      0x00\n        /* \"#utility.yul\":5749:5758   */\n      dup4\n        /* \"#utility.yul\":5745:5762   */\n      add\n        /* \"#utility.yul\":5738:5785   */\n      mstore\n        /* \"#utility.yul\":5802:5933   */\n      tag_180\n        /* \"#utility.yul\":5928:5932   */\n      dup2\n        /* \"#utility.yul\":5802:5933   */\n      tag_108\n      jump\t// in\n    tag_180:\n        /* \"#utility.yul\":5794:5933   */\n      swap1\n      pop\n        /* \"#utility.yul\":5521:5940   */\n      swap2\n      swap1\n      pop\n      jump\t// out\n        /* \"#utility.yul\":5946:6278   */\n    tag_57:\n        /* \"#utility.yul\":6067:6071   */\n      0x00\n        /* \"#utility.yul\":6105:6107   */\n      0x40\n        /* \"#utility.yul\":6094:6103   */\n      dup3\n        /* \"#utility.yul\":6090:6108   */\n      add\n        /* \"#utility.yul\":6082:6108   */\n      swap1\n      pop\n        /* \"#utility.yul\":6118:6189   */\n      tag_182\n        /* \"#utility.yul\":6186:6187   */\n      0x00\n        /* \"#utility.yul\":6175:6184   */\n      dup4\n        /* \"#utility.yul\":6171:6188   */\n      add\n        /* \"#utility.yul\":6162:6168   */\n      dup6\n        /* \"#utility.yul\":6118:6189   */\n      tag_100\n      jump\t// in\n    tag_182:\n        /* \"#utility.yul\":6199:6271   */\n      tag_183\n        /* \"#utility.yul\":6267:6269   */\n      0x20\n        /* \"#utility.yul\":6256:6265   */\n      dup4\n        /* \"#utility.yul\":6252:6270   */\n      add\n        /* \"#utility.yul\":6243:6249   */\n      dup5\n        /* \"#utility.yul\":6199:6271   */\n      tag_92\n      jump\t// in\n    tag_183:\n        /* \"#utility.yul\":5946:6278   */\n      swap4\n      swap3\n      pop\n      pop\n      pop\n      jump\t// out\n        /* \"#utility.yul\":6284:6374   */\n    tag_109:\n        /* \"#utility.yul\":6318:6325   */\n      0x00\n        /* \"#utility.yul\":6361:6366   */\n      dup2\n        /* \"#utility.yul\":6354:6367   */\n      iszero\n        /* \"#utility.yul\":6347:6368   */\n      iszero\n        /* \"#utility.yul\":6336:6368   */\n      swap1\n      pop\n        /* \"#utility.yul\":6284:6374   */\n      swap2\n      swap1\n      pop\n      jump\t// out\n        /* \"#utility.yul\":6380:6496   */\n    tag_110:\n        /* \"#utility.yul\":6450:6471   */\n      tag_186\n        /* \"#utility.yul\":6465:6470   */\n      dup2\n        /* \"#utility.yul\":6450:6471   */\n      tag_109\n      jump\t// in\n    tag_186:\n        /* \"#utility.yul\":6443:6448   */\n      dup2\n        /* \"#utility.yul\":6440:6472   */\n      eq\n        /* \"#utility.yul\":6430:6490   */\n      tag_187\n      jumpi\n        /* \"#utility.yul\":6486:6487   */\n      0x00\n        /* \"#utility.yul\":6483:6484   */\n      dup1\n        /* \"#utility.yul\":6476:6488   */\n      revert\n        /* \"#utility.yul\":6430:6490   */\n    tag_187:\n        /* \"#utility.yul\":6380:6496   */\n      pop\n      jump\t// out\n        /* \"#utility.yul\":6502:6639   */\n    tag_111:\n        /* \"#utility.yul\":6556:6561   */\n      0x00\n        /* \"#utility.yul\":6587:6593   */\n      dup2\n        /* \"#utility.yul\":6581:6594   */\n      mload\n        /* \"#utility.yul\":6572:6594   */\n      swap1\n      pop\n        /* \"#utility.yul\":6603:6633   */\n      tag_189\n        /* \"#utility.yul\":6627:6632   */\n      dup2\n        /* \"#utility.yul\":6603:6633   */\n      tag_110\n      jump\t// in\n    tag_189:\n        /* \"#utility.yul\":6502:6639   */\n      swap3\n      swap2\n      pop\n      pop\n      jump\t// out\n        /* \"#utility.yul\":6645:6990   */\n    tag_61:\n        /* \"#utility.yul\":6712:6718   */\n      0x00\n        /* \"#utility.yul\":6761:6763   */\n      0x20\n        /* \"#utility.yul\":6749:6758   */\n      dup3\n        /* \"#utility.yul\":6740:6747   */\n      dup5\n        /* \"#utility.yul\":6736:6759   */\n      sub\n        /* \"#utility.yul\":6732:6764   */\n      slt\n        /* \"#utility.yul\":6729:6848   */\n      iszero\n      tag_191\n      jumpi\n        /* \"#utility.yul\":6767:6846   */\n      tag_192\n      tag_87\n      jump\t// in\n    tag_192:\n        /* \"#utility.yul\":6729:6848   */\n    tag_191:\n        /* \"#utility.yul\":6887:6888   */\n      0x00\n        /* \"#utility.yul\":6912:6973   */\n      tag_193\n        /* \"#utility.yul\":6965:6972   */\n      dup5\n        /* \"#utility.yul\":6956:6962   */\n      dup3\n        /* \"#utility.yul\":6945:6954   */\n      dup6\n        /* \"#utility.yul\":6941:6963   */\n      add\n        /* \"#utility.yul\":6912:6973   */\n      tag_111\n      jump\t// in\n    tag_193:\n        /* \"#utility.yul\":6902:6973   */\n      swap2\n      pop\n        /* \"#utility.yul\":6858:6983   */\n      pop\n        /* \"#utility.yul\":6645:6990   */\n      swap3\n      swap2\n      pop\n      pop\n      jump\t// out\n        /* \"#utility.yul\":6996:7118   */\n    tag_112:\n        /* \"#utility.yul\":7069:7093   */\n      tag_195\n        /* \"#utility.yul\":7087:7092   */\n      dup2\n        /* \"#utility.yul\":7069:7093   */\n      tag_99\n      jump\t// in\n    tag_195:\n        /* \"#utility.yul\":7062:7067   */\n      dup2\n        /* \"#utility.yul\":7059:7094   */\n      eq\n        /* \"#utility.yul\":7049:7112   */\n      tag_196\n      jumpi\n        /* \"#utility.yul\":7108:7109   */\n      0x00\n        /* \"#utility.yul\":7105:7106   */\n      dup1\n        /* \"#utility.yul\":7098:7110   */\n      revert\n        /* \"#utility.yul\":7049:7112   */\n    tag_196:\n        /* \"#utility.yul\":6996:7118   */\n      pop\n      jump\t// out\n        /* \"#utility.yul\":7124:7267   */\n    tag_113:\n        /* \"#utility.yul\":7181:7186   */\n      0x00\n        /* \"#utility.yul\":7212:7218   */\n      dup2\n        /* \"#utility.yul\":7206:7219   */\n      mload\n        /* \"#utility.yul\":7197:7219   */\n      swap1\n      pop\n        /* \"#utility.yul\":7228:7261   */\n      tag_198\n        /* \"#utility.yul\":7255:7260   */\n      dup2\n        /* \"#utility.yul\":7228:7261   */\n      tag_112\n      jump\t// in\n    tag_198:\n        /* \"#utility.yul\":7124:7267   */\n      swap3\n      swap2\n      pop\n      pop\n      jump\t// out\n        /* \"#utility.yul\":7273:7624   */\n    tag_67:\n        /* \"#utility.yul\":7343:7349   */\n      0x00\n        /* \"#utility.yul\":7392:7394   */\n      0x20\n        /* \"#utility.yul\":7380:7389   */\n      dup3\n        /* \"#utility.yul\":7371:7378   */\n      dup5\n        /* \"#utility.yul\":7367:7390   */\n      sub\n        /* \"#utility.yul\":7363:7395   */\n      slt\n        /* \"#utility.yul\":7360:7479   */\n      iszero\n      tag_200\n      jumpi\n        /* \"#utility.yul\":7398:7477   */\n      tag_201\n      tag_87\n      jump\t// in\n    tag_201:\n        /* \"#utility.yul\":7360:7479   */\n    tag_200:\n        /* \"#utility.yul\":7518:7519   */\n      0x00\n        /* \"#utility.yul\":7543:7607   */\n      tag_202\n        /* \"#utility.yul\":7599:7606   */\n      dup5\n        /* \"#utility.yul\":7590:7596   */\n      dup3\n        /* \"#utility.yul\":7579:7588   */\n      dup6\n        /* \"#utility.yul\":7575:7597   */\n      add\n        /* \"#utility.yul\":7543:7607   */\n      tag_113\n      jump\t// in\n    tag_202:\n        /* \"#utility.yul\":7533:7607   */\n      swap2\n      pop\n        /* \"#utility.yul\":7489:7617   */\n      pop\n        /* \"#utility.yul\":7273:7624   */\n      swap3\n      swap2\n      pop\n      pop\n      jump\t// out\n        /* \"#utility.yul\":7630:7793   */\n    tag_114:\n        /* \"#utility.yul\":7770:7785   */\n      0x4e6f7420746865206f776e657200000000000000000000000000000000000000\n        /* \"#utility.yul\":7766:7767   */\n      0x00\n        /* \"#utility.yul\":7758:7764   */\n      dup3\n        /* \"#utility.yul\":7754:7768   */\n      add\n        /* \"#utility.yul\":7747:7786   */\n      mstore\n        /* \"#utility.yul\":7630:7793   */\n      pop\n      jump\t// out\n        /* \"#utility.yul\":7799:8165   */\n    tag_115:\n        /* \"#utility.yul\":7941:7944   */\n      0x00\n        /* \"#utility.yul\":7962:8029   */\n      tag_205\n        /* \"#utility.yul\":8026:8028   */\n      0x0d\n        /* \"#utility.yul\":8021:8024   */\n      dup4\n        /* \"#utility.yul\":7962:8029   */\n      tag_103\n      jump\t// in\n    tag_205:\n        /* \"#utility.yul\":7955:8029   */\n      swap2\n      pop\n        /* \"#utility.yul\":8038:8131   */\n      tag_206\n        /* \"#utility.yul\":8127:8130   */\n      dup3\n        /* \"#utility.yul\":8038:8131   */\n      tag_114\n      jump\t// in\n    tag_206:\n        /* \"#utility.yul\":8156:8158   */\n      0x20\n        /* \"#utility.yul\":8151:8154   */\n      dup3\n        /* \"#utility.yul\":8147:8159   */\n      add\n        /* \"#utility.yul\":8140:8159   */\n      swap1\n      pop\n        /* \"#utility.yul\":7799:8165   */\n      swap2\n      swap1\n      pop\n      jump\t// out\n        /* \"#utility.yul\":8171:8590   */\n    tag_70:\n        /* \"#utility.yul\":8337:8341   */\n      0x00\n        /* \"#utility.yul\":8375:8377   */\n      0x20\n        /* \"#utility.yul\":8364:8373   */\n      dup3\n        /* \"#utility.yul\":8360:8378   */\n      add\n        /* \"#utility.yul\":8352:8378   */\n      swap1\n      pop\n        /* \"#utility.yul\":8424:8433   */\n      dup2\n        /* \"#utility.yul\":8418:8422   */\n      dup2\n        /* \"#utility.yul\":8414:8434   */\n      sub\n        /* \"#utility.yul\":8410:8411   */\n      0x00\n        /* \"#utility.yul\":8399:8408   */\n      dup4\n        /* \"#utility.yul\":8395:8412   */\n      add\n        /* \"#utility.yul\":8388:8435   */\n      mstore\n        /* \"#utility.yul\":8452:8583   */\n      tag_208\n        /* \"#utility.yul\":8578:8582   */\n      dup2\n        /* \"#utility.yul\":8452:8583   */\n      tag_115\n      jump\t// in\n    tag_208:\n        /* \"#utility.yul\":8444:8583   */\n      swap1\n      pop\n        /* \"#utility.yul\":8171:8590   */\n      swap2\n      swap1\n      pop\n      jump\t// out\n        /* \"#utility.yul\":8596:8760   */\n    tag_116:\n        /* \"#utility.yul\":8736:8752   */\n      0x416c7265616479207374616b6564000000000000000000000000000000000000\n        /* \"#utility.yul\":8732:8733   */\n      0x00\n        /* \"#utility.yul\":8724:8730   */\n      dup3\n        /* \"#utility.yul\":8720:8734   */\n      add\n        /* \"#utility.yul\":8713:8753   */\n      mstore\n        /* \"#utility.yul\":8596:8760   */\n      pop\n      jump\t// out\n        /* \"#utility.yul\":8766:9132   */\n    tag_117:\n        /* \"#utility.yul\":8908:8911   */\n      0x00\n        /* \"#utility.yul\":8929:8996   */\n      tag_211\n        /* \"#utility.yul\":8993:8995   */\n      0x0e\n        /* \"#utility.yul\":8988:8991   */\n      dup4\n        /* \"#utility.yul\":8929:8996   */\n      tag_103\n      jump\t// in\n    tag_211:\n        /* \"#utility.yul\":8922:8996   */\n      swap2\n      pop\n        /* \"#utility.yul\":9005:9098   */\n      tag_212\n        /* \"#utility.yul\":9094:9097   */\n      dup3\n        /* \"#utility.yul\":9005:9098   */\n      tag_116\n      jump\t// in\n    tag_212:\n        /* \"#utility.yul\":9123:9125   */\n      0x20\n        /* \"#utility.yul\":9118:9121   */\n      dup3\n        /* \"#utility.yul\":9114:9126   */\n      add\n        /* \"#utility.yul\":9107:9126   */\n      swap1\n      pop\n        /* \"#utility.yul\":8766:9132   */\n      swap2\n      swap1\n      pop\n      jump\t// out\n        /* \"#utility.yul\":9138:9557   */\n    tag_73:\n        /* \"#utility.yul\":9304:9308   */\n      0x00\n        /* \"#utility.yul\":9342:9344   */\n      0x20\n        /* \"#utility.yul\":9331:9340   */\n      dup3\n        /* \"#utility.yul\":9327:9345   */\n      add\n        /* \"#utility.yul\":9319:9345   */\n      swap1\n      pop\n        /* \"#utility.yul\":9391:9400   */\n      dup2\n        /* \"#utility.yul\":9385:9389   */\n      dup2\n        /* \"#utility.yul\":9381:9401   */\n      sub\n        /* \"#utility.yul\":9377:9378   */\n      0x00\n        /* \"#utility.yul\":9366:9375   */\n      dup4\n        /* \"#utility.yul\":9362:9379   */\n      add\n        /* \"#utility.yul\":9355:9402   */\n      mstore\n        /* \"#utility.yul\":9419:9550   */\n      tag_214\n        /* \"#utility.yul\":9545:9549   */\n      dup2\n        /* \"#utility.yul\":9419:9550   */\n      tag_117\n      jump\t// in\n    tag_214:\n        /* \"#utility.yul\":9411:9550   */\n      swap1\n      pop\n        /* \"#utility.yul\":9138:9557   */\n      swap2\n      swap1\n      pop\n      jump\t// out\n        /* \"#utility.yul\":9563:10005   */\n    tag_75:\n        /* \"#utility.yul\":9712:9716   */\n      0x00\n        /* \"#utility.yul\":9750:9752   */\n      0x60\n        /* \"#utility.yul\":9739:9748   */\n      dup3\n        /* \"#utility.yul\":9735:9753   */\n      add\n        /* \"#utility.yul\":9727:9753   */\n      swap1\n      pop\n        /* \"#utility.yul\":9763:9834   */\n      tag_216\n        /* \"#utility.yul\":9831:9832   */\n      0x00\n        /* \"#utility.yul\":9820:9829   */\n      dup4\n        /* \"#utility.yul\":9816:9833   */\n      add\n        /* \"#utility.yul\":9807:9813   */\n      dup7\n        /* \"#utility.yul\":9763:9834   */\n      tag_100\n      jump\t// in\n    tag_216:\n        /* \"#utility.yul\":9844:9916   */\n      tag_217\n        /* \"#utility.yul\":9912:9914   */\n      0x20\n        /* \"#utility.yul\":9901:9910   */\n      dup4\n        /* \"#utility.yul\":9897:9915   */\n      add\n        /* \"#utility.yul\":9888:9894   */\n      dup6\n        /* \"#utility.yul\":9844:9916   */\n      tag_100\n      jump\t// in\n    tag_217:\n        /* \"#utility.yul\":9926:9998   */\n      tag_218\n        /* \"#utility.yul\":9994:9996   */\n      0x40\n        /* \"#utility.yul\":9983:9992   */\n      dup4\n        /* \"#utility.yul\":9979:9997   */\n      add\n        /* \"#utility.yul\":9970:9976   */\n      dup5\n        /* \"#utility.yul\":9926:9998   */\n      tag_92\n      jump\t// in\n    tag_218:\n        /* \"#utility.yul\":9563:10005   */\n      swap5\n      swap4\n      pop\n      pop\n      pop\n      pop\n      jump\t// out\n\n    auxdata: 0xa2646970667358221220610fad379d7fcf8c5bb8e0d3418be11a44448bdb8d060419c2c102f0408fa44964736f6c634300081a0033\n}\n",
				"bytecode": {
					"linkReferences": {},
					"object": "6080604052678ac7230489e8000060045562015180600555348015610022575f80fd5b50604051610ebe380380610ebe83398181016040528101906100449190610174565b815f806101000a81548173ffffffffffffffffffffffffffffffffffffffff021916908373ffffffffffffffffffffffffffffffffffffffff1602179055508060015f6101000a81548173ffffffffffffffffffffffffffffffffffffffff021916908373ffffffffffffffffffffffffffffffffffffffff16021790555050506101b2565b5f80fd5b5f73ffffffffffffffffffffffffffffffffffffffff82169050919050565b5f6100f7826100ce565b9050919050565b5f610108826100ed565b9050919050565b610118816100fe565b8114610122575f80fd5b50565b5f815190506101338161010f565b92915050565b5f610143826100ed565b9050919050565b61015381610139565b811461015d575f80fd5b50565b5f8151905061016e8161014a565b92915050565b5f806040838503121561018a576101896100ca565b5b5f61019785828601610125565b92505060206101a885828601610160565b9150509250929050565b610cff806101bf5f395ff3fe608060405234801561000f575f80fd5b5060043610610091575f3560e01c80636eb604e0116100645780636eb604e01461011d5780639ee4af1014610139578063af8f42b814610169578063c1dfa0bb14610187578063fc0c546a146101a357610091565b80630962ef7914610095578063146d4574146100b15780633d3728b5146100cf57806347ccca02146100ff575b5f80fd5b6100af60048036038101906100aa9190610850565b6101c1565b005b6100b9610376565b6040516100c6919061088a565b60405180910390f35b6100e960048036038101906100e49190610850565b61037c565b6040516100f6919061088a565b60405180910390f35b610107610391565b604051610114919061091d565b60405180910390f35b61013760048036038101906101329190610850565b6103b6565b005b610153600480360381019061014e9190610850565b61064d565b6040516101609190610956565b60405180910390f35b61017161067d565b60405161017e919061088a565b60405180910390f35b6101a1600480360381019061019c9190610850565b610683565b005b6101ab6107f6565b6040516101b8919061098f565b60405180910390f35b3373ffffffffffffffffffffffffffffffffffffffff1660025f8381526020019081526020015f205f9054906101000a900473ffffffffffffffffffffffffffffffffffffffff1673ffffffffffffffffffffffffffffffffffffffff161461025f576040517f08c379a000000000000000000000000000000000000000000000000000000000815260040161025690610a02565b60405180910390fd5b60055460035f8381526020019081526020015f205461027e9190610a4d565b4210156102c0576040517f08c379a00000000000000000000000000000000000000000000000000000000081526004016102b790610aca565b60405180910390fd5b5f8054906101000a900473ffffffffffffffffffffffffffffffffffffffff1673ffffffffffffffffffffffffffffffffffffffff1663a9059cbb336004546040518363ffffffff1660e01b815260040161031c929190610ae8565b6020604051808303815f875af1158015610338573d5f803e3d5ffd5b505050506040513d601f19601f8201168201806040525081019061035c9190610b44565b504260035f8381526020019081526020015f208190555050565b60055481565b6003602052805f5260405f205f915090505481565b60015f9054906101000a900473ffffffffffffffffffffffffffffffffffffffff1681565b3373ffffffffffffffffffffffffffffffffffffffff1660015f9054906101000a900473ffffffffffffffffffffffffffffffffffffffff1673ffffffffffffffffffffffffffffffffffffffff16636352211e836040518263ffffffff1660e01b8152600401610427919061088a565b602060405180830381865afa158015610442573d5f803e3d5ffd5b505050506040513d601f19601f820116820180604052508101906104669190610b99565b73ffffffffffffffffffffffffffffffffffffffff16146104bc576040517f08c379a00000000000000000000000000000000000000000000000000000000081526004016104b390610c0e565b60405180910390fd5b5f73ffffffffffffffffffffffffffffffffffffffff1660025f8381526020019081526020015f205f9054906101000a900473ffffffffffffffffffffffffffffffffffffffff1673ffffffffffffffffffffffffffffffffffffffff161461055a576040517f08c379a000000000000000000000000000000000000000000000000000000000815260040161055190610c76565b60405180910390fd5b60015f9054906101000a900473ffffffffffffffffffffffffffffffffffffffff1673ffffffffffffffffffffffffffffffffffffffff166323b872dd3330846040518463ffffffff1660e01b81526004016105b893929190610c94565b5f604051808303815f87803b1580156105cf575f80fd5b505af11580156105e1573d5f803e3d5ffd5b505050503360025f8381526020019081526020015f205f6101000a81548173ffffffffffffffffffffffffffffffffffffffff021916908373ffffffffffffffffffffffffffffffffffffffff1602179055504260035f8381526020019081526020015f208190555050565b6002602052805f5260405f205f915054906101000a900473ffffffffffffffffffffffffffffffffffffffff1681565b60045481565b3373ffffffffffffffffffffffffffffffffffffffff1660025f8381526020019081526020015f205f9054906101000a900473ffffffffffffffffffffffffffffffffffffffff1673ffffffffffffffffffffffffffffffffffffffff1614610721576040517f08c379a000000000000000000000000000000000000000000000000000000000815260040161071890610a02565b60405180910390fd5b60015f9054906101000a900473ffffffffffffffffffffffffffffffffffffffff1673ffffffffffffffffffffffffffffffffffffffff166323b872dd3033846040518463ffffffff1660e01b815260040161077f93929190610c94565b5f604051808303815f87803b158015610796575f80fd5b505af11580156107a8573d5f803e3d5ffd5b5050505060025f8281526020019081526020015f205f6101000a81549073ffffffffffffffffffffffffffffffffffffffff021916905560035f8281526020019081526020015f205f905550565b5f8054906101000a900473ffffffffffffffffffffffffffffffffffffffff1681565b5f80fd5b5f819050919050565b61082f8161081d565b8114610839575f80fd5b50565b5f8135905061084a81610826565b92915050565b5f6020828403121561086557610864610819565b5b5f6108728482850161083c565b91505092915050565b6108848161081d565b82525050565b5f60208201905061089d5f83018461087b565b92915050565b5f73ffffffffffffffffffffffffffffffffffffffff82169050919050565b5f819050919050565b5f6108e56108e06108db846108a3565b6108c2565b6108a3565b9050919050565b5f6108f6826108cb565b9050919050565b5f610907826108ec565b9050919050565b610917816108fd565b82525050565b5f6020820190506109305f83018461090e565b92915050565b5f610940826108a3565b9050919050565b61095081610936565b82525050565b5f6020820190506109695f830184610947565b92915050565b5f610979826108ec565b9050919050565b6109898161096f565b82525050565b5f6020820190506109a25f830184610980565b92915050565b5f82825260208201905092915050565b7f4e6f74207374616b656420627920796f750000000000000000000000000000005f82015250565b5f6109ec6011836109a8565b91506109f7826109b8565b602082019050919050565b5f6020820190508181035f830152610a19816109e0565b9050919050565b7f4e487b71000000000000000000000000000000000000000000000000000000005f52601160045260245ffd5b5f610a578261081d565b9150610a628361081d565b9250828201905080821115610a7a57610a79610a20565b5b92915050565b7f546f6f20736f6f6e20746f20636c61696d0000000000000000000000000000005f82015250565b5f610ab46011836109a8565b9150610abf82610a80565b602082019050919050565b5f6020820190508181035f830152610ae181610aa8565b9050919050565b5f604082019050610afb5f830185610947565b610b08602083018461087b565b9392505050565b5f8115159050919050565b610b2381610b0f565b8114610b2d575f80fd5b50565b5f81519050610b3e81610b1a565b92915050565b5f60208284031215610b5957610b58610819565b5b5f610b6684828501610b30565b91505092915050565b610b7881610936565b8114610b82575f80fd5b50565b5f81519050610b9381610b6f565b92915050565b5f60208284031215610bae57610bad610819565b5b5f610bbb84828501610b85565b91505092915050565b7f4e6f7420746865206f776e6572000000000000000000000000000000000000005f82015250565b5f610bf8600d836109a8565b9150610c0382610bc4565b602082019050919050565b5f6020820190508181035f830152610c2581610bec565b9050919050565b7f416c7265616479207374616b65640000000000000000000000000000000000005f82015250565b5f610c60600e836109a8565b9150610c6b82610c2c565b602082019050919050565b5f6020820190508181035f830152610c8d81610c54565b9050919050565b5f606082019050610ca75f830186610947565b610cb46020830185610947565b610cc1604083018461087b565b94935050505056fea2646970667358221220610fad379d7fcf8c5bb8e0d3418be11a44448bdb8d060419c2c102f0408fa44964736f6c634300081a0033",
					"opcodes": "PUSH1 0x80 PUSH1 0x40 MSTORE PUSH8 0x8AC7230489E80000 PUSH1 0x4 SSTORE PUSH3 0x15180 PUSH1 0x5 SSTORE CALLVALUE DUP1 ISZERO PUSH2 0x22 JUMPI PUSH0 DUP1 REVERT JUMPDEST POP PUSH1 0x40 MLOAD PUSH2 0xEBE CODESIZE SUB DUP1 PUSH2 0xEBE DUP4 CODECOPY DUP2 DUP2 ADD PUSH1 0x40 MSTORE DUP2 ADD SWAP1 PUSH2 0x44 SWAP2 SWAP1 PUSH2 0x174 JUMP JUMPDEST DUP2 PUSH0 DUP1 PUSH2 0x100 EXP DUP2 SLOAD DUP2 PUSH20 0xFFFFFFFFFFFFFFFFFFFFFFFFFFFFFFFFFFFFFFFF MUL NOT AND SWAP1 DUP4 PUSH20 0xFFFFFFFFFFFFFFFFFFFFFFFFFFFFFFFFFFFFFFFF AND MUL OR SWAP1 SSTORE POP DUP1 PUSH1 0x1 PUSH0 PUSH2 0x100 EXP DUP2 SLOAD DUP2 PUSH20 0xFFFFFFFFFFFFFFFFFFFFFFFFFFFFFFFFFFFFFFFF MUL NOT AND SWAP1 DUP4 PUSH20 0xFFFFFFFFFFFFFFFFFFFFFFFFFFFFFFFFFFFFFFFF AND MUL OR SWAP1 SSTORE POP POP POP PUSH2 0x1B2 JUMP JUMPDEST PUSH0 DUP1 REVERT JUMPDEST PUSH0 PUSH20 0xFFFFFFFFFFFFFFFFFFFFFFFFFFFFFFFFFFFFFFFF DUP3 AND SWAP1 POP SWAP2 SWAP1 POP JUMP JUMPDEST PUSH0 PUSH2 0xF7 DUP3 PUSH2 0xCE JUMP JUMPDEST SWAP1 POP SWAP2 SWAP1 POP JUMP JUMPDEST PUSH0 PUSH2 0x108 DUP3 PUSH2 0xED JUMP JUMPDEST SWAP1 POP SWAP2 SWAP1 POP JUMP JUMPDEST PUSH2 0x118 DUP2 PUSH2 0xFE JUMP JUMPDEST DUP2 EQ PUSH2 0x122 JUMPI PUSH0 DUP1 REVERT JUMPDEST POP JUMP JUMPDEST PUSH0 DUP2 MLOAD SWAP1 POP PUSH2 0x133 DUP2 PUSH2 0x10F JUMP JUMPDEST SWAP3 SWAP2 POP POP JUMP JUMPDEST PUSH0 PUSH2 0x143 DUP3 PUSH2 0xED JUMP JUMPDEST SWAP1 POP SWAP2 SWAP1 POP JUMP JUMPDEST PUSH2 0x153 DUP2 PUSH2 0x139 JUMP JUMPDEST DUP2 EQ PUSH2 0x15D JUMPI PUSH0 DUP1 REVERT JUMPDEST POP JUMP JUMPDEST PUSH0 DUP2 MLOAD SWAP1 POP PUSH2 0x16E DUP2 PUSH2 0x14A JUMP JUMPDEST SWAP3 SWAP2 POP POP JUMP JUMPDEST PUSH0 DUP1 PUSH1 0x40 DUP4 DUP6 SUB SLT ISZERO PUSH2 0x18A JUMPI PUSH2 0x189 PUSH2 0xCA JUMP JUMPDEST JUMPDEST PUSH0 PUSH2 0x197 DUP6 DUP3 DUP7 ADD PUSH2 0x125 JUMP JUMPDEST SWAP3 POP POP PUSH1 0x20 PUSH2 0x1A8 DUP6 DUP3 DUP7 ADD PUSH2 0x160 JUMP JUMPDEST SWAP2 POP POP SWAP3 POP SWAP3 SWAP1 POP JUMP JUMPDEST PUSH2 0xCFF DUP1 PUSH2 0x1BF PUSH0 CODECOPY PUSH0 RETURN INVALID PUSH1 0x80 PUSH1 0x40 MSTORE CALLVALUE DUP1 ISZERO PUSH2 0xF JUMPI PUSH0 DUP1 REVERT JUMPDEST POP PUSH1 0x4 CALLDATASIZE LT PUSH2 0x91 JUMPI PUSH0 CALLDATALOAD PUSH1 0xE0 SHR DUP1 PUSH4 0x6EB604E0 GT PUSH2 0x64 JUMPI DUP1 PUSH4 0x6EB604E0 EQ PUSH2 0x11D JUMPI DUP1 PUSH4 0x9EE4AF10 EQ PUSH2 0x139 JUMPI DUP1 PUSH4 0xAF8F42B8 EQ PUSH2 0x169 JUMPI DUP1 PUSH4 0xC1DFA0BB EQ PUSH2 0x187 JUMPI DUP1 PUSH4 0xFC0C546A EQ PUSH2 0x1A3 JUMPI PUSH2 0x91 JUMP JUMPDEST DUP1 PUSH4 0x962EF79 EQ PUSH2 0x95 JUMPI DUP1 PUSH4 0x146D4574 EQ PUSH2 0xB1 JUMPI DUP1 PUSH4 0x3D3728B5 EQ PUSH2 0xCF JUMPI DUP1 PUSH4 0x47CCCA02 EQ PUSH2 0xFF JUMPI JUMPDEST PUSH0 DUP1 REVERT JUMPDEST PUSH2 0xAF PUSH1 0x4 DUP1 CALLDATASIZE SUB DUP2 ADD SWAP1 PUSH2 0xAA SWAP2 SWAP1 PUSH2 0x850 JUMP JUMPDEST PUSH2 0x1C1 JUMP JUMPDEST STOP JUMPDEST PUSH2 0xB9 PUSH2 0x376 JUMP JUMPDEST PUSH1 0x40 MLOAD PUSH2 0xC6 SWAP2 SWAP1 PUSH2 0x88A JUMP JUMPDEST PUSH1 0x40 MLOAD DUP1 SWAP2 SUB SWAP1 RETURN JUMPDEST PUSH2 0xE9 PUSH1 0x4 DUP1 CALLDATASIZE SUB DUP2 ADD SWAP1 PUSH2 0xE4 SWAP2 SWAP1 PUSH2 0x850 JUMP JUMPDEST PUSH2 0x37C JUMP JUMPDEST PUSH1 0x40 MLOAD PUSH2 0xF6 SWAP2 SWAP1 PUSH2 0x88A JUMP JUMPDEST PUSH1 0x40 MLOAD DUP1 SWAP2 SUB SWAP1 RETURN JUMPDEST PUSH2 0x107 PUSH2 0x391 JUMP JUMPDEST PUSH1 0x40 MLOAD PUSH2 0x114 SWAP2 SWAP1 PUSH2 0x91D JUMP JUMPDEST PUSH1 0x40 MLOAD DUP1 SWAP2 SUB SWAP1 RETURN JUMPDEST PUSH2 0x137 PUSH1 0x4 DUP1 CALLDATASIZE SUB DUP2 ADD SWAP1 PUSH2 0x132 SWAP2 SWAP1 PUSH2 0x850 JUMP JUMPDEST PUSH2 0x3B6 JUMP JUMPDEST STOP JUMPDEST PUSH2 0x153 PUSH1 0x4 DUP1 CALLDATASIZE SUB DUP2 ADD SWAP1 PUSH2 0x14E SWAP2 SWAP1 PUSH2 0x850 JUMP JUMPDEST PUSH2 0x64D JUMP JUMPDEST PUSH1 0x40 MLOAD PUSH2 0x160 SWAP2 SWAP1 PUSH2 0x956 JUMP JUMPDEST PUSH1 0x40 MLOAD DUP1 SWAP2 SUB SWAP1 RETURN JUMPDEST PUSH2 0x171 PUSH2 0x67D JUMP JUMPDEST PUSH1 0x40 MLOAD PUSH2 0x17E SWAP2 SWAP1 PUSH2 0x88A JUMP JUMPDEST PUSH1 0x40 MLOAD DUP1 SWAP2 SUB SWAP1 RETURN JUMPDEST PUSH2 0x1A1 PUSH1 0x4 DUP1 CALLDATASIZE SUB DUP2 ADD SWAP1 PUSH2 0x19C SWAP2 SWAP1 PUSH2 0x850 JUMP JUMPDEST PUSH2 0x683 JUMP JUMPDEST STOP JUMPDEST PUSH2 0x1AB PUSH2 0x7F6 JUMP JUMPDEST PUSH1 0x40 MLOAD PUSH2 0x1B8 SWAP2 SWAP1 PUSH2 0x98F JUMP JUMPDEST PUSH1 0x40 MLOAD DUP1 SWAP2 SUB SWAP1 RETURN JUMPDEST CALLER PUSH20 0xFFFFFFFFFFFFFFFFFFFFFFFFFFFFFFFFFFFFFFFF AND PUSH1 0x2 PUSH0 DUP4 DUP2 MSTORE PUSH1 0x20 ADD SWAP1 DUP2 MSTORE PUSH1 0x20 ADD PUSH0 KECCAK256 PUSH0 SWAP1 SLOAD SWAP1 PUSH2 0x100 EXP SWAP1 DIV PUSH20 0xFFFFFFFFFFFFFFFFFFFFFFFFFFFFFFFFFFFFFFFF AND PUSH20 0xFFFFFFFFFFFFFFFFFFFFFFFFFFFFFFFFFFFFFFFF AND EQ PUSH2 0x25F JUMPI PUSH1 0x40 MLOAD PUSH32 0x8C379A000000000000000000000000000000000000000000000000000000000 DUP2 MSTORE PUSH1 0x4 ADD PUSH2 0x256 SWAP1 PUSH2 0xA02 JUMP JUMPDEST PUSH1 0x40 MLOAD DUP1 SWAP2 SUB SWAP1 REVERT JUMPDEST PUSH1 0x5 SLOAD PUSH1 0x3 PUSH0 DUP4 DUP2 MSTORE PUSH1 0x20 ADD SWAP1 DUP2 MSTORE PUSH1 0x20 ADD PUSH0 KECCAK256 SLOAD PUSH2 0x27E SWAP2 SWAP1 PUSH2 0xA4D JUMP JUMPDEST TIMESTAMP LT ISZERO PUSH2 0x2C0 JUMPI PUSH1 0x40 MLOAD PUSH32 0x8C379A000000000000000000000000000000000000000000000000000000000 DUP2 MSTORE PUSH1 0x4 ADD PUSH2 0x2B7 SWAP1 PUSH2 0xACA JUMP JUMPDEST PUSH1 0x40 MLOAD DUP1 SWAP2 SUB SWAP1 REVERT JUMPDEST PUSH0 DUP1 SLOAD SWAP1 PUSH2 0x100 EXP SWAP1 DIV PUSH20 0xFFFFFFFFFFFFFFFFFFFFFFFFFFFFFFFFFFFFFFFF AND PUSH20 0xFFFFFFFFFFFFFFFFFFFFFFFFFFFFFFFFFFFFFFFF AND PUSH4 0xA9059CBB CALLER PUSH1 0x4 SLOAD PUSH1 0x40 MLOAD DUP4 PUSH4 0xFFFFFFFF AND PUSH1 0xE0 SHL DUP2 MSTORE PUSH1 0x4 ADD PUSH2 0x31C SWAP3 SWAP2 SWAP1 PUSH2 0xAE8 JUMP JUMPDEST PUSH1 0x20 PUSH1 0x40 MLOAD DUP1 DUP4 SUB DUP2 PUSH0 DUP8 GAS CALL ISZERO DUP1 ISZERO PUSH2 0x338 JUMPI RETURNDATASIZE PUSH0 DUP1 RETURNDATACOPY RETURNDATASIZE PUSH0 REVERT JUMPDEST POP POP POP POP PUSH1 0x40 MLOAD RETURNDATASIZE PUSH1 0x1F NOT PUSH1 0x1F DUP3 ADD AND DUP3 ADD DUP1 PUSH1 0x40 MSTORE POP DUP2 ADD SWAP1 PUSH2 0x35C SWAP2 SWAP1 PUSH2 0xB44 JUMP JUMPDEST POP TIMESTAMP PUSH1 0x3 PUSH0 DUP4 DUP2 MSTORE PUSH1 0x20 ADD SWAP1 DUP2 MSTORE PUSH1 0x20 ADD PUSH0 KECCAK256 DUP2 SWAP1 SSTORE POP POP JUMP JUMPDEST PUSH1 0x5 SLOAD DUP2 JUMP JUMPDEST PUSH1 0x3 PUSH1 0x20 MSTORE DUP1 PUSH0 MSTORE PUSH1 0x40 PUSH0 KECCAK256 PUSH0 SWAP2 POP SWAP1 POP SLOAD DUP2 JUMP JUMPDEST PUSH1 0x1 PUSH0 SWAP1 SLOAD SWAP1 PUSH2 0x100 EXP SWAP1 DIV PUSH20 0xFFFFFFFFFFFFFFFFFFFFFFFFFFFFFFFFFFFFFFFF AND DUP2 JUMP JUMPDEST CALLER PUSH20 0xFFFFFFFFFFFFFFFFFFFFFFFFFFFFFFFFFFFFFFFF AND PUSH1 0x1 PUSH0 SWAP1 SLOAD SWAP1 PUSH2 0x100 EXP SWAP1 DIV PUSH20 0xFFFFFFFFFFFFFFFFFFFFFFFFFFFFFFFFFFFFFFFF AND PUSH20 0xFFFFFFFFFFFFFFFFFFFFFFFFFFFFFFFFFFFFFFFF AND PUSH4 0x6352211E DUP4 PUSH1 0x40 MLOAD DUP3 PUSH4 0xFFFFFFFF AND PUSH1 0xE0 SHL DUP2 MSTORE PUSH1 0x4 ADD PUSH2 0x427 SWAP2 SWAP1 PUSH2 0x88A JUMP JUMPDEST PUSH1 0x20 PUSH1 0x40 MLOAD DUP1 DUP4 SUB DUP2 DUP7 GAS STATICCALL ISZERO DUP1 ISZERO PUSH2 0x442 JUMPI RETURNDATASIZE PUSH0 DUP1 RETURNDATACOPY RETURNDATASIZE PUSH0 REVERT JUMPDEST POP POP POP POP PUSH1 0x40 MLOAD RETURNDATASIZE PUSH1 0x1F NOT PUSH1 0x1F DUP3 ADD AND DUP3 ADD DUP1 PUSH1 0x40 MSTORE POP DUP2 ADD SWAP1 PUSH2 0x466 SWAP2 SWAP1 PUSH2 0xB99 JUMP JUMPDEST PUSH20 0xFFFFFFFFFFFFFFFFFFFFFFFFFFFFFFFFFFFFFFFF AND EQ PUSH2 0x4BC JUMPI PUSH1 0x40 MLOAD PUSH32 0x8C379A000000000000000000000000000000000000000000000000000000000 DUP2 MSTORE PUSH1 0x4 ADD PUSH2 0x4B3 SWAP1 PUSH2 0xC0E JUMP JUMPDEST PUSH1 0x40 MLOAD DUP1 SWAP2 SUB SWAP1 REVERT JUMPDEST PUSH0 PUSH20 0xFFFFFFFFFFFFFFFFFFFFFFFFFFFFFFFFFFFFFFFF AND PUSH1 0x2 PUSH0 DUP4 DUP2 MSTORE PUSH1 0x20 ADD SWAP1 DUP2 MSTORE PUSH1 0x20 ADD PUSH0 KECCAK256 PUSH0 SWAP1 SLOAD SWAP1 PUSH2 0x100 EXP SWAP1 DIV PUSH20 0xFFFFFFFFFFFFFFFFFFFFFFFFFFFFFFFFFFFFFFFF AND PUSH20 0xFFFFFFFFFFFFFFFFFFFFFFFFFFFFFFFFFFFFFFFF AND EQ PUSH2 0x55A JUMPI PUSH1 0x40 MLOAD PUSH32 0x8C379A000000000000000000000000000000000000000000000000000000000 DUP2 MSTORE PUSH1 0x4 ADD PUSH2 0x551 SWAP1 PUSH2 0xC76 JUMP JUMPDEST PUSH1 0x40 MLOAD DUP1 SWAP2 SUB SWAP1 REVERT JUMPDEST PUSH1 0x1 PUSH0 SWAP1 SLOAD SWAP1 PUSH2 0x100 EXP SWAP1 DIV PUSH20 0xFFFFFFFFFFFFFFFFFFFFFFFFFFFFFFFFFFFFFFFF AND PUSH20 0xFFFFFFFFFFFFFFFFFFFFFFFFFFFFFFFFFFFFFFFF AND PUSH4 0x23B872DD CALLER ADDRESS DUP5 PUSH1 0x40 MLOAD DUP5 PUSH4 0xFFFFFFFF AND PUSH1 0xE0 SHL DUP2 MSTORE PUSH1 0x4 ADD PUSH2 0x5B8 SWAP4 SWAP3 SWAP2 SWAP1 PUSH2 0xC94 JUMP JUMPDEST PUSH0 PUSH1 0x40 MLOAD DUP1 DUP4 SUB DUP2 PUSH0 DUP8 DUP1 EXTCODESIZE ISZERO DUP1 ISZERO PUSH2 0x5CF JUMPI PUSH0 DUP1 REVERT JUMPDEST POP GAS CALL ISZERO DUP1 ISZERO PUSH2 0x5E1 JUMPI RETURNDATASIZE PUSH0 DUP1 RETURNDATACOPY RETURNDATASIZE PUSH0 REVERT JUMPDEST POP POP POP POP CALLER PUSH1 0x2 PUSH0 DUP4 DUP2 MSTORE PUSH1 0x20 ADD SWAP1 DUP2 MSTORE PUSH1 0x20 ADD PUSH0 KECCAK256 PUSH0 PUSH2 0x100 EXP DUP2 SLOAD DUP2 PUSH20 0xFFFFFFFFFFFFFFFFFFFFFFFFFFFFFFFFFFFFFFFF MUL NOT AND SWAP1 DUP4 PUSH20 0xFFFFFFFFFFFFFFFFFFFFFFFFFFFFFFFFFFFFFFFF AND MUL OR SWAP1 SSTORE POP TIMESTAMP PUSH1 0x3 PUSH0 DUP4 DUP2 MSTORE PUSH1 0x20 ADD SWAP1 DUP2 MSTORE PUSH1 0x20 ADD PUSH0 KECCAK256 DUP2 SWAP1 SSTORE POP POP JUMP JUMPDEST PUSH1 0x2 PUSH1 0x20 MSTORE DUP1 PUSH0 MSTORE PUSH1 0x40 PUSH0 KECCAK256 PUSH0 SWAP2 POP SLOAD SWAP1 PUSH2 0x100 EXP SWAP1 DIV PUSH20 0xFFFFFFFFFFFFFFFFFFFFFFFFFFFFFFFFFFFFFFFF AND DUP2 JUMP JUMPDEST PUSH1 0x4 SLOAD DUP2 JUMP JUMPDEST CALLER PUSH20 0xFFFFFFFFFFFFFFFFFFFFFFFFFFFFFFFFFFFFFFFF AND PUSH1 0x2 PUSH0 DUP4 DUP2 MSTORE PUSH1 0x20 ADD SWAP1 DUP2 MSTORE PUSH1 0x20 ADD PUSH0 KECCAK256 PUSH0 SWAP1 SLOAD SWAP1 PUSH2 0x100 EXP SWAP1 DIV PUSH20 0xFFFFFFFFFFFFFFFFFFFFFFFFFFFFFFFFFFFFFFFF AND PUSH20 0xFFFFFFFFFFFFFFFFFFFFFFFFFFFFFFFFFFFFFFFF AND EQ PUSH2 0x721 JUMPI PUSH1 0x40 MLOAD PUSH32 0x8C379A000000000000000000000000000000000000000000000000000000000 DUP2 MSTORE PUSH1 0x4 ADD PUSH2 0x718 SWAP1 PUSH2 0xA02 JUMP JUMPDEST PUSH1 0x40 MLOAD DUP1 SWAP2 SUB SWAP1 REVERT JUMPDEST PUSH1 0x1 PUSH0 SWAP1 SLOAD SWAP1 PUSH2 0x100 EXP SWAP1 DIV PUSH20 0xFFFFFFFFFFFFFFFFFFFFFFFFFFFFFFFFFFFFFFFF AND PUSH20 0xFFFFFFFFFFFFFFFFFFFFFFFFFFFFFFFFFFFFFFFF AND PUSH4 0x23B872DD ADDRESS CALLER DUP5 PUSH1 0x40 MLOAD DUP5 PUSH4 0xFFFFFFFF AND PUSH1 0xE0 SHL DUP2 MSTORE PUSH1 0x4 ADD PUSH2 0x77F SWAP4 SWAP3 SWAP2 SWAP1 PUSH2 0xC94 JUMP JUMPDEST PUSH0 PUSH1 0x40 MLOAD DUP1 DUP4 SUB DUP2 PUSH0 DUP8 DUP1 EXTCODESIZE ISZERO DUP1 ISZERO PUSH2 0x796 JUMPI PUSH0 DUP1 REVERT JUMPDEST POP GAS CALL ISZERO DUP1 ISZERO PUSH2 0x7A8 JUMPI RETURNDATASIZE PUSH0 DUP1 RETURNDATACOPY RETURNDATASIZE PUSH0 REVERT JUMPDEST POP POP POP POP PUSH1 0x2 PUSH0 DUP3 DUP2 MSTORE PUSH1 0x20 ADD SWAP1 DUP2 MSTORE PUSH1 0x20 ADD PUSH0 KECCAK256 PUSH0 PUSH2 0x100 EXP DUP2 SLOAD SWAP1 PUSH20 0xFFFFFFFFFFFFFFFFFFFFFFFFFFFFFFFFFFFFFFFF MUL NOT AND SWAP1 SSTORE PUSH1 0x3 PUSH0 DUP3 DUP2 MSTORE PUSH1 0x20 ADD SWAP1 DUP2 MSTORE PUSH1 0x20 ADD PUSH0 KECCAK256 PUSH0 SWAP1 SSTORE POP JUMP JUMPDEST PUSH0 DUP1 SLOAD SWAP1 PUSH2 0x100 EXP SWAP1 DIV PUSH20 0xFFFFFFFFFFFFFFFFFFFFFFFFFFFFFFFFFFFFFFFF AND DUP2 JUMP JUMPDEST PUSH0 DUP1 REVERT JUMPDEST PUSH0 DUP2 SWAP1 POP SWAP2 SWAP1 POP JUMP JUMPDEST PUSH2 0x82F DUP2 PUSH2 0x81D JUMP JUMPDEST DUP2 EQ PUSH2 0x839 JUMPI PUSH0 DUP1 REVERT JUMPDEST POP JUMP JUMPDEST PUSH0 DUP2 CALLDATALOAD SWAP1 POP PUSH2 0x84A DUP2 PUSH2 0x826 JUMP JUMPDEST SWAP3 SWAP2 POP POP JUMP JUMPDEST PUSH0 PUSH1 0x20 DUP3 DUP5 SUB SLT ISZERO PUSH2 0x865 JUMPI PUSH2 0x864 PUSH2 0x819 JUMP JUMPDEST JUMPDEST PUSH0 PUSH2 0x872 DUP5 DUP3 DUP6 ADD PUSH2 0x83C JUMP JUMPDEST SWAP2 POP POP SWAP3 SWAP2 POP POP JUMP JUMPDEST PUSH2 0x884 DUP2 PUSH2 0x81D JUMP JUMPDEST DUP3 MSTORE POP POP JUMP JUMPDEST PUSH0 PUSH1 0x20 DUP3 ADD SWAP1 POP PUSH2 0x89D PUSH0 DUP4 ADD DUP5 PUSH2 0x87B JUMP JUMPDEST SWAP3 SWAP2 POP POP JUMP JUMPDEST PUSH0 PUSH20 0xFFFFFFFFFFFFFFFFFFFFFFFFFFFFFFFFFFFFFFFF DUP3 AND SWAP1 POP SWAP2 SWAP1 POP JUMP JUMPDEST PUSH0 DUP2 SWAP1 POP SWAP2 SWAP1 POP JUMP JUMPDEST PUSH0 PUSH2 0x8E5 PUSH2 0x8E0 PUSH2 0x8DB DUP5 PUSH2 0x8A3 JUMP JUMPDEST PUSH2 0x8C2 JUMP JUMPDEST PUSH2 0x8A3 JUMP JUMPDEST SWAP1 POP SWAP2 SWAP1 POP JUMP JUMPDEST PUSH0 PUSH2 0x8F6 DUP3 PUSH2 0x8CB JUMP JUMPDEST SWAP1 POP SWAP2 SWAP1 POP JUMP JUMPDEST PUSH0 PUSH2 0x907 DUP3 PUSH2 0x8EC JUMP JUMPDEST SWAP1 POP SWAP2 SWAP1 POP JUMP JUMPDEST PUSH2 0x917 DUP2 PUSH2 0x8FD JUMP JUMPDEST DUP3 MSTORE POP POP JUMP JUMPDEST PUSH0 PUSH1 0x20 DUP3 ADD SWAP1 POP PUSH2 0x930 PUSH0 DUP4 ADD DUP5 PUSH2 0x90E JUMP JUMPDEST SWAP3 SWAP2 POP POP JUMP JUMPDEST PUSH0 PUSH2 0x940 DUP3 PUSH2 0x8A3 JUMP JUMPDEST SWAP1 POP SWAP2 SWAP1 POP JUMP JUMPDEST PUSH2 0x950 DUP2 PUSH2 0x936 JUMP JUMPDEST DUP3 MSTORE POP POP JUMP JUMPDEST PUSH0 PUSH1 0x20 DUP3 ADD SWAP1 POP PUSH2 0x969 PUSH0 DUP4 ADD DUP5 PUSH2 0x947 JUMP JUMPDEST SWAP3 SWAP2 POP POP JUMP JUMPDEST PUSH0 PUSH2 0x979 DUP3 PUSH2 0x8EC JUMP JUMPDEST SWAP1 POP SWAP2 SWAP1 POP JUMP JUMPDEST PUSH2 0x989 DUP2 PUSH2 0x96F JUMP JUMPDEST DUP3 MSTORE POP POP JUMP JUMPDEST PUSH0 PUSH1 0x20 DUP3 ADD SWAP1 POP PUSH2 0x9A2 PUSH0 DUP4 ADD DUP5 PUSH2 0x980 JUMP JUMPDEST SWAP3 SWAP2 POP POP JUMP JUMPDEST PUSH0 DUP3 DUP3 MSTORE PUSH1 0x20 DUP3 ADD SWAP1 POP SWAP3 SWAP2 POP POP JUMP JUMPDEST PUSH32 0x4E6F74207374616B656420627920796F75000000000000000000000000000000 PUSH0 DUP3 ADD MSTORE POP JUMP JUMPDEST PUSH0 PUSH2 0x9EC PUSH1 0x11 DUP4 PUSH2 0x9A8 JUMP JUMPDEST SWAP2 POP PUSH2 0x9F7 DUP3 PUSH2 0x9B8 JUMP JUMPDEST PUSH1 0x20 DUP3 ADD SWAP1 POP SWAP2 SWAP1 POP JUMP JUMPDEST PUSH0 PUSH1 0x20 DUP3 ADD SWAP1 POP DUP2 DUP2 SUB PUSH0 DUP4 ADD MSTORE PUSH2 0xA19 DUP2 PUSH2 0x9E0 JUMP JUMPDEST SWAP1 POP SWAP2 SWAP1 POP JUMP JUMPDEST PUSH32 0x4E487B7100000000000000000000000000000000000000000000000000000000 PUSH0 MSTORE PUSH1 0x11 PUSH1 0x4 MSTORE PUSH1 0x24 PUSH0 REVERT JUMPDEST PUSH0 PUSH2 0xA57 DUP3 PUSH2 0x81D JUMP JUMPDEST SWAP2 POP PUSH2 0xA62 DUP4 PUSH2 0x81D JUMP JUMPDEST SWAP3 POP DUP3 DUP3 ADD SWAP1 POP DUP1 DUP3 GT ISZERO PUSH2 0xA7A JUMPI PUSH2 0xA79 PUSH2 0xA20 JUMP JUMPDEST JUMPDEST SWAP3 SWAP2 POP POP JUMP JUMPDEST PUSH32 0x546F6F20736F6F6E20746F20636C61696D000000000000000000000000000000 PUSH0 DUP3 ADD MSTORE POP JUMP JUMPDEST PUSH0 PUSH2 0xAB4 PUSH1 0x11 DUP4 PUSH2 0x9A8 JUMP JUMPDEST SWAP2 POP PUSH2 0xABF DUP3 PUSH2 0xA80 JUMP JUMPDEST PUSH1 0x20 DUP3 ADD SWAP1 POP SWAP2 SWAP1 POP JUMP JUMPDEST PUSH0 PUSH1 0x20 DUP3 ADD SWAP1 POP DUP2 DUP2 SUB PUSH0 DUP4 ADD MSTORE PUSH2 0xAE1 DUP2 PUSH2 0xAA8 JUMP JUMPDEST SWAP1 POP SWAP2 SWAP1 POP JUMP JUMPDEST PUSH0 PUSH1 0x40 DUP3 ADD SWAP1 POP PUSH2 0xAFB PUSH0 DUP4 ADD DUP6 PUSH2 0x947 JUMP JUMPDEST PUSH2 0xB08 PUSH1 0x20 DUP4 ADD DUP5 PUSH2 0x87B JUMP JUMPDEST SWAP4 SWAP3 POP POP POP JUMP JUMPDEST PUSH0 DUP2 ISZERO ISZERO SWAP1 POP SWAP2 SWAP1 POP JUMP JUMPDEST PUSH2 0xB23 DUP2 PUSH2 0xB0F JUMP JUMPDEST DUP2 EQ PUSH2 0xB2D JUMPI PUSH0 DUP1 REVERT JUMPDEST POP JUMP JUMPDEST PUSH0 DUP2 MLOAD SWAP1 POP PUSH2 0xB3E DUP2 PUSH2 0xB1A JUMP JUMPDEST SWAP3 SWAP2 POP POP JUMP JUMPDEST PUSH0 PUSH1 0x20 DUP3 DUP5 SUB SLT ISZERO PUSH2 0xB59 JUMPI PUSH2 0xB58 PUSH2 0x819 JUMP JUMPDEST JUMPDEST PUSH0 PUSH2 0xB66 DUP5 DUP3 DUP6 ADD PUSH2 0xB30 JUMP JUMPDEST SWAP2 POP POP SWAP3 SWAP2 POP POP JUMP JUMPDEST PUSH2 0xB78 DUP2 PUSH2 0x936 JUMP JUMPDEST DUP2 EQ PUSH2 0xB82 JUMPI PUSH0 DUP1 REVERT JUMPDEST POP JUMP JUMPDEST PUSH0 DUP2 MLOAD SWAP1 POP PUSH2 0xB93 DUP2 PUSH2 0xB6F JUMP JUMPDEST SWAP3 SWAP2 POP POP JUMP JUMPDEST PUSH0 PUSH1 0x20 DUP3 DUP5 SUB SLT ISZERO PUSH2 0xBAE JUMPI PUSH2 0xBAD PUSH2 0x819 JUMP JUMPDEST JUMPDEST PUSH0 PUSH2 0xBBB DUP5 DUP3 DUP6 ADD PUSH2 0xB85 JUMP JUMPDEST SWAP2 POP POP SWAP3 SWAP2 POP POP JUMP JUMPDEST PUSH32 0x4E6F7420746865206F776E657200000000000000000000000000000000000000 PUSH0 DUP3 ADD MSTORE POP JUMP JUMPDEST PUSH0 PUSH2 0xBF8 PUSH1 0xD DUP4 PUSH2 0x9A8 JUMP JUMPDEST SWAP2 POP PUSH2 0xC03 DUP3 PUSH2 0xBC4 JUMP JUMPDEST PUSH1 0x20 DUP3 ADD SWAP1 POP SWAP2 SWAP1 POP JUMP JUMPDEST PUSH0 PUSH1 0x20 DUP3 ADD SWAP1 POP DUP2 DUP2 SUB PUSH0 DUP4 ADD MSTORE PUSH2 0xC25 DUP2 PUSH2 0xBEC JUMP JUMPDEST SWAP1 POP SWAP2 SWAP1 POP JUMP JUMPDEST PUSH32 0x416C7265616479207374616B6564000000000000000000000000000000000000 PUSH0 DUP3 ADD MSTORE POP JUMP JUMPDEST PUSH0 PUSH2 0xC60 PUSH1 0xE DUP4 PUSH2 0x9A8 JUMP JUMPDEST SWAP2 POP PUSH2 0xC6B DUP3 PUSH2 0xC2C JUMP JUMPDEST PUSH1 0x20 DUP3 ADD SWAP1 POP SWAP2 SWAP1 POP JUMP JUMPDEST PUSH0 PUSH1 0x20 DUP3 ADD SWAP1 POP DUP2 DUP2 SUB PUSH0 DUP4 ADD MSTORE PUSH2 0xC8D DUP2 PUSH2 0xC54 JUMP JUMPDEST SWAP1 POP SWAP2 SWAP1 POP JUMP JUMPDEST PUSH0 PUSH1 0x60 DUP3 ADD SWAP1 POP PUSH2 0xCA7 PUSH0 DUP4 ADD DUP7 PUSH2 0x947 JUMP JUMPDEST PUSH2 0xCB4 PUSH1 0x20 DUP4 ADD DUP6 PUSH2 0x947 JUMP JUMPDEST PUSH2 0xCC1 PUSH1 0x40 DUP4 ADD DUP5 PUSH2 0x87B JUMP JUMPDEST SWAP5 SWAP4 POP POP POP POP JUMP INVALID LOG2 PUSH5 0x6970667358 0x22 SLT KECCAK256 PUSH2 0xFAD CALLDATACOPY SWAP14 PUSH32 0xCF8C5BB8E0D3418BE11A44448BDB8D060419C2C102F0408FA44964736F6C6343 STOP ADDMOD BYTE STOP CALLER "
				},
				"gasEstimates": {
					"creation": {
						"codeDepositCost": "665400",
						"executionCost": "infinite",
						"totalCost": "infinite"
					},
					"external": {
						"claimRewards(uint256)": "infinite",
						"lastClaim(uint256)": "infinite",
						"nft()": "infinite",
						"rewardPerDay()": "2469",
						"stakeNFT(uint256)": "infinite",
						"stakedBy(uint256)": "2849",
						"stakingTime()": "2448",
						"token()": "infinite",
						"unstakeNFT(uint256)": "infinite"
					}
				},
				"methodIdentifiers": {
					"claimRewards(uint256)": "0962ef79",
					"lastClaim(uint256)": "3d3728b5",
					"nft()": "47ccca02",
					"rewardPerDay()": "af8f42b8",
					"stakeNFT(uint256)": "6eb604e0",
					"stakedBy(uint256)": "9ee4af10",
					"stakingTime()": "146d4574",
					"token()": "fc0c546a",
					"unstakeNFT(uint256)": "c1dfa0bb"
				}
			},
			"storageLayout": {
				"storage": [
					{
						"astId": 392,
						"contract": "NFTStaking.sol:NFTStaking",
						"label": "token",
						"offset": 0,
						"slot": "0",
						"type": "t_contract(IERC20)225"
					},
					{
						"astId": 395,
						"contract": "NFTStaking.sol:NFTStaking",
						"label": "nft",
						"offset": 0,
						"slot": "1",
						"type": "t_contract(IERC721)342"
					},
					{
						"astId": 399,
						"contract": "NFTStaking.sol:NFTStaking",
						"label": "stakedBy",
						"offset": 0,
						"slot": "2",
						"type": "t_mapping(t_uint256,t_address)"
					},
					{
						"astId": 403,
						"contract": "NFTStaking.sol:NFTStaking",
						"label": "lastClaim",
						"offset": 0,
						"slot": "3",
						"type": "t_mapping(t_uint256,t_uint256)"
					},
					{
						"astId": 410,
						"contract": "NFTStaking.sol:NFTStaking",
						"label": "rewardPerDay",
						"offset": 0,
						"slot": "4",
						"type": "t_uint256"
					},
					{
						"astId": 413,
						"contract": "NFTStaking.sol:NFTStaking",
						"label": "stakingTime",
						"offset": 0,
						"slot": "5",
						"type": "t_uint256"
					}
				],
				"types": {
					"t_address": {
						"encoding": "inplace",
						"label": "address",
						"numberOfBytes": "20"
					},
					"t_contract(IERC20)225": {
						"encoding": "inplace",
						"label": "contract IERC20",
						"numberOfBytes": "20"
					},
					"t_contract(IERC721)342": {
						"encoding": "inplace",
						"label": "contract IERC721",
						"numberOfBytes": "20"
					},
					"t_mapping(t_uint256,t_address)": {
						"encoding": "mapping",
						"key": "t_uint256",
						"label": "mapping(uint256 => address)",
						"numberOfBytes": "32",
						"value": "t_address"
					},
					"t_mapping(t_uint256,t_uint256)": {
						"encoding": "mapping",
						"key": "t_uint256",
						"label": "mapping(uint256 => uint256)",
						"numberOfBytes": "32",
						"value": "t_uint256"
					},
					"t_uint256": {
						"encoding": "inplace",
						"label": "uint256",
						"numberOfBytes": "32"
					}
				}
			},
			"userdoc": {
				"kind": "user",
				"methods": {},
				"version": 1
			}
		}
	}
}